{
  "contract/ElectricKeeperV21.sol": {
    "ElectricKeeper": {
      "abi": [
        {
          "inputs": [],
          "stateMutability": "nonpayable",
          "type": "constructor"
        },
        {
          "anonymous": false,
          "inputs": [],
          "name": "VoltageChange",
          "type": "event"
        },
        {
          "inputs": [
            {
              "internalType": "uint256",
              "name": "ledValue",
              "type": "uint256"
            },
            {
              "internalType": "uint256",
              "name": "minutesToHaveOn",
              "type": "uint256"
            }
          ],
          "name": "BuyElectricityTimeOn",
          "outputs": [],
          "stateMutability": "payable",
          "type": "function"
        },
        {
          "inputs": [
            {
              "internalType": "uint256",
              "name": "",
              "type": "uint256"
            }
          ],
          "name": "LED",
          "outputs": [
            {
              "internalType": "uint256",
              "name": "Voltage",
              "type": "uint256"
            },
            {
              "internalType": "uint256",
              "name": "ExpirationTimeUNIX",
              "type": "uint256"
            }
          ],
          "stateMutability": "view",
          "type": "function"
        },
        {
          "inputs": [],
          "name": "Owner",
          "outputs": [
            {
              "internalType": "address",
              "name": "",
              "type": "address"
            }
          ],
          "stateMutability": "view",
          "type": "function"
        },
        {
          "inputs": [
            {
              "internalType": "uint256",
              "name": "ledValue",
              "type": "uint256"
            }
          ],
          "name": "OwnerEmergencyDangerOff",
          "outputs": [],
          "stateMutability": "nonpayable",
          "type": "function"
        },
        {
          "inputs": [
            {
              "internalType": "uint256",
              "name": "ledValue",
              "type": "uint256"
            }
          ],
          "name": "OwnerEmergencySafeOn",
          "outputs": [],
          "stateMutability": "nonpayable",
          "type": "function"
        },
        {
          "inputs": [],
          "name": "OwnerManualExpirationOff",
          "outputs": [],
          "stateMutability": "nonpayable",
          "type": "function"
        },
        {
          "inputs": [
            {
              "internalType": "bytes",
              "name": "",
              "type": "bytes"
            }
          ],
          "name": "checkUpkeep",
          "outputs": [
            {
              "internalType": "bool",
              "name": "upkeepNeeded",
              "type": "bool"
            },
            {
              "internalType": "bytes",
              "name": "",
              "type": "bytes"
            }
          ],
          "stateMutability": "nonpayable",
          "type": "function"
        },
        {
          "inputs": [],
          "name": "expirationOccured",
          "outputs": [
            {
              "internalType": "bool",
              "name": "",
              "type": "bool"
            }
          ],
          "stateMutability": "view",
          "type": "function"
        },
        {
          "inputs": [
            {
              "internalType": "bytes",
              "name": "",
              "type": "bytes"
            }
          ],
          "name": "performUpkeep",
          "outputs": [],
          "stateMutability": "nonpayable",
          "type": "function"
        }
      ],
      "evm": {
        "bytecode": {
          "linkReferences": {},
          "object": "60a060405234801561001057600080fd5b503373ffffffffffffffffffffffffffffffffffffffff1660808173ffffffffffffffffffffffffffffffffffffffff168152505060805161125061007c6000396000818161020d015281816105dd015281816106f7015281816108a50152610a5301526112506000f3fe6080604052600436106100865760003560e01c80636bf93b66116100595780636bf93b66146101125780636e04ff0d14610150578063979c22ce1461018e5780639e476c29146101b7578063b4a99a4e146101e057610086565b80630e2e1ff31461008b5780634585e33b146100a2578063494762f6146100cb578063571fcf0a146100e7575b600080fd5b34801561009757600080fd5b506100a061020b565b005b3480156100ae57600080fd5b506100c960048036038101906100c49190610ae4565b6103a3565b005b6100e560048036038101906100e09190610b67565b610468565b005b3480156100f357600080fd5b506100fc610647565b6040516101099190610bc2565b60405180910390f35b34801561011e57600080fd5b5061013960048036038101906101349190610bdd565b6106bc565b604051610147929190610c19565b60405180910390f35b34801561015c57600080fd5b5061017760048036038101906101729190610ae4565b6106e0565b604051610185929190610cdb565b60405180910390f35b34801561019a57600080fd5b506101b560048036038101906101b09190610bdd565b6106f5565b005b3480156101c357600080fd5b506101de60048036038101906101d99190610bdd565b6108a3565b005b3480156101ec57600080fd5b506101f5610a51565b6040516102029190610d4c565b60405180910390f35b7f000000000000000000000000000000000000000000000000000000000000000073ffffffffffffffffffffffffffffffffffffffff163373ffffffffffffffffffffffffffffffffffffffff1614610299576040517f08c379a000000000000000000000000000000000000000000000000000000000815260040161029090610dea565b60405180910390fd5b6102a1610647565b6102e0576040517f08c379a00000000000000000000000000000000000000000000000000000000081526004016102d790610e56565b60405180910390fd5b60005b60088110156103745760016000808381526020019081526020016000206000015414801561032557506000808281526020019081526020016000206001015442115b15610361576000806000838152602001908152602001600020600001819055506000806000838152602001908152602001600020600101819055505b808061036c90610ea5565b9150506102e3565b507f72fdfd0f629c78d86d13a56ec6144a2c6a4904ad7de41d8089e90b00ff65a94a60405160405180910390a1565b60005b6008811015610437576001600080838152602001908152602001600020600001541480156103e857506000808281526020019081526020016000206001015442115b15610424576000806000838152602001908152602001600020600001819055506000806000838152602001908152602001600020600101819055505b808061042f90610ea5565b9150506103a6565b507f72fdfd0f629c78d86d13a56ec6144a2c6a4904ad7de41d8089e90b00ff65a94a60405160405180910390a15050565b816000811015801561047a5750600881105b6104b9576040517f08c379a00000000000000000000000000000000000000000000000000000000081526004016104b090610f86565b60405180910390fd5b81341480156104c85750600082115b610507576040517f08c379a00000000000000000000000000000000000000000000000000000000081526004016104fe90611018565b60405180910390fd5b60008060008581526020019081526020016000206000015414156105765760016000808581526020019081526020016000206000018190555081603c61054d9190611038565b426105589190611092565b600080858152602001908152602001600020600101819055506105af565b81603c6105839190611038565b60008085815260200190815260200160002060010160008282546105a79190611092565b925050819055505b7f72fdfd0f629c78d86d13a56ec6144a2c6a4904ad7de41d8089e90b00ff65a94a60405160405180910390a17f000000000000000000000000000000000000000000000000000000000000000073ffffffffffffffffffffffffffffffffffffffff166108fc479081150290604051600060405180830381858888f19350505050158015610641573d6000803e3d6000fd5b50505050565b600080600090505b60088110156106b35760016000808381526020019081526020016000206000015414801561069157506000808281526020019081526020016000206001015442115b156106a05760019150506106b9565b80806106ab90610ea5565b91505061064f565b50600090505b90565b60006020528060005260406000206000915090508060000154908060010154905082565b600060606106ec610647565b91509250929050565b7f000000000000000000000000000000000000000000000000000000000000000073ffffffffffffffffffffffffffffffffffffffff163373ffffffffffffffffffffffffffffffffffffffff1614610783576040517f08c379a000000000000000000000000000000000000000000000000000000000815260040161077a90610dea565b60405180910390fd5b80600081101580156107955750600881105b6107d4576040517f08c379a00000000000000000000000000000000000000000000000000000000081526004016107cb90610f86565b60405180910390fd5b6001600080848152602001908152602001600020600001541461082c576040517f08c379a000000000000000000000000000000000000000000000000000000000815260040161082390611134565b60405180910390fd5b60026000808481526020019081526020016000206000018190555042600080848152602001908152602001600020600101600082825461086c9190611154565b925050819055507f72fdfd0f629c78d86d13a56ec6144a2c6a4904ad7de41d8089e90b00ff65a94a60405160405180910390a15050565b7f000000000000000000000000000000000000000000000000000000000000000073ffffffffffffffffffffffffffffffffffffffff163373ffffffffffffffffffffffffffffffffffffffff1614610931576040517f08c379a000000000000000000000000000000000000000000000000000000000815260040161092890610dea565b60405180910390fd5b80600081101580156109435750600881105b610982576040517f08c379a000000000000000000000000000000000000000000000000000000000815260040161097990610f86565b60405180910390fd5b600260008084815260200190815260200160002060000154146109da576040517f08c379a00000000000000000000000000000000000000000000000000000000081526004016109d1906111fa565b60405180910390fd5b600160008084815260200190815260200160002060000181905550426000808481526020019081526020016000206001016000828254610a1a9190611092565b925050819055507f72fdfd0f629c78d86d13a56ec6144a2c6a4904ad7de41d8089e90b00ff65a94a60405160405180910390a15050565b7f000000000000000000000000000000000000000000000000000000000000000081565b600080fd5b600080fd5b600080fd5b600080fd5b600080fd5b60008083601f840112610aa457610aa3610a7f565b5b8235905067ffffffffffffffff811115610ac157610ac0610a84565b5b602083019150836001820283011115610add57610adc610a89565b5b9250929050565b60008060208385031215610afb57610afa610a75565b5b600083013567ffffffffffffffff811115610b1957610b18610a7a565b5b610b2585828601610a8e565b92509250509250929050565b6000819050919050565b610b4481610b31565b8114610b4f57600080fd5b50565b600081359050610b6181610b3b565b92915050565b60008060408385031215610b7e57610b7d610a75565b5b6000610b8c85828601610b52565b9250506020610b9d85828601610b52565b9150509250929050565b60008115159050919050565b610bbc81610ba7565b82525050565b6000602082019050610bd76000830184610bb3565b92915050565b600060208284031215610bf357610bf2610a75565b5b6000610c0184828501610b52565b91505092915050565b610c1381610b31565b82525050565b6000604082019050610c2e6000830185610c0a565b610c3b6020830184610c0a565b9392505050565b600081519050919050565b600082825260208201905092915050565b60005b83811015610c7c578082015181840152602081019050610c61565b83811115610c8b576000848401525b50505050565b6000601f19601f8301169050919050565b6000610cad82610c42565b610cb78185610c4d565b9350610cc7818560208601610c5e565b610cd081610c91565b840191505092915050565b6000604082019050610cf06000830185610bb3565b8181036020830152610d028184610ca2565b90509392505050565b600073ffffffffffffffffffffffffffffffffffffffff82169050919050565b6000610d3682610d0b565b9050919050565b610d4681610d2b565b82525050565b6000602082019050610d616000830184610d3d565b92915050565b600082825260208201905092915050565b7f4f4e4c595f4f574e45525f57414c4c45545f414444524553535f4841535f414360008201527f434553532e000000000000000000000000000000000000000000000000000000602082015250565b6000610dd4602583610d67565b9150610ddf82610d78565b604082019050919050565b60006020820190508181036000830152610e0381610dc7565b9050919050565b7f4e4f5f45585049524154494f4e5f5945542e0000000000000000000000000000600082015250565b6000610e40601283610d67565b9150610e4b82610e0a565b602082019050919050565b60006020820190508181036000830152610e6f81610e33565b9050919050565b7f4e487b7100000000000000000000000000000000000000000000000000000000600052601160045260246000fd5b6000610eb082610b31565b91507fffffffffffffffffffffffffffffffffffffffffffffffffffffffffffffffff821415610ee357610ee2610e76565b5b600182019050919050565b7f4c45445f56414c5545535f5245445f305f424c55455f315f59454c4c4f575f3260008201527f5f475245454e5f335f505552504c455f345f4f52414e47455f355f50494e4b5f60208201527f365f57484954455f372e00000000000000000000000000000000000000000000604082015250565b6000610f70604a83610d67565b9150610f7b82610eee565b606082019050919050565b60006020820190508181036000830152610f9f81610f63565b9050919050565b7f4d53472e56414c55455f4d5553545f42455f315f5745495f54494d45535f4d4960008201527f4e555445535f414e445f4e4f545f42455f5a45524f2e00000000000000000000602082015250565b6000611002603683610d67565b915061100d82610fa6565b604082019050919050565b6000602082019050818103600083015261103181610ff5565b9050919050565b600061104382610b31565b915061104e83610b31565b9250817fffffffffffffffffffffffffffffffffffffffffffffffffffffffffffffffff048311821515161561108757611086610e76565b5b828202905092915050565b600061109d82610b31565b91506110a883610b31565b9250827fffffffffffffffffffffffffffffffffffffffffffffffffffffffffffffffff038211156110dd576110dc610e76565b5b828201905092915050565b7f564f4c544147455f4e4f545f4f4e2e0000000000000000000000000000000000600082015250565b600061111e600f83610d67565b9150611129826110e8565b602082019050919050565b6000602082019050818103600083015261114d81611111565b9050919050565b600061115f82610b31565b915061116a83610b31565b92508282101561117d5761117c610e76565b5b828203905092915050565b7f564f4c544147455f4e4f545f494e5f454d455247454e43595f4f46465f53544160008201527f54452e0000000000000000000000000000000000000000000000000000000000602082015250565b60006111e4602383610d67565b91506111ef82611188565b604082019050919050565b60006020820190508181036000830152611213816111d7565b905091905056fea26469706673582212201a94ea6784ef4dbdc27954c72549f536b5cab419c6f10ea888201b1ff618f59164736f6c634300080c0033",
          "opcodes": "PUSH1 0xA0 PUSH1 0x40 MSTORE CALLVALUE DUP1 ISZERO PUSH2 0x10 JUMPI PUSH1 0x0 DUP1 REVERT JUMPDEST POP CALLER PUSH20 0xFFFFFFFFFFFFFFFFFFFFFFFFFFFFFFFFFFFFFFFF AND PUSH1 0x80 DUP2 PUSH20 0xFFFFFFFFFFFFFFFFFFFFFFFFFFFFFFFFFFFFFFFF AND DUP2 MSTORE POP POP PUSH1 0x80 MLOAD PUSH2 0x1250 PUSH2 0x7C PUSH1 0x0 CODECOPY PUSH1 0x0 DUP2 DUP2 PUSH2 0x20D ADD MSTORE DUP2 DUP2 PUSH2 0x5DD ADD MSTORE DUP2 DUP2 PUSH2 0x6F7 ADD MSTORE DUP2 DUP2 PUSH2 0x8A5 ADD MSTORE PUSH2 0xA53 ADD MSTORE PUSH2 0x1250 PUSH1 0x0 RETURN INVALID PUSH1 0x80 PUSH1 0x40 MSTORE PUSH1 0x4 CALLDATASIZE LT PUSH2 0x86 JUMPI PUSH1 0x0 CALLDATALOAD PUSH1 0xE0 SHR DUP1 PUSH4 0x6BF93B66 GT PUSH2 0x59 JUMPI DUP1 PUSH4 0x6BF93B66 EQ PUSH2 0x112 JUMPI DUP1 PUSH4 0x6E04FF0D EQ PUSH2 0x150 JUMPI DUP1 PUSH4 0x979C22CE EQ PUSH2 0x18E JUMPI DUP1 PUSH4 0x9E476C29 EQ PUSH2 0x1B7 JUMPI DUP1 PUSH4 0xB4A99A4E EQ PUSH2 0x1E0 JUMPI PUSH2 0x86 JUMP JUMPDEST DUP1 PUSH4 0xE2E1FF3 EQ PUSH2 0x8B JUMPI DUP1 PUSH4 0x4585E33B EQ PUSH2 0xA2 JUMPI DUP1 PUSH4 0x494762F6 EQ PUSH2 0xCB JUMPI DUP1 PUSH4 0x571FCF0A EQ PUSH2 0xE7 JUMPI JUMPDEST PUSH1 0x0 DUP1 REVERT JUMPDEST CALLVALUE DUP1 ISZERO PUSH2 0x97 JUMPI PUSH1 0x0 DUP1 REVERT JUMPDEST POP PUSH2 0xA0 PUSH2 0x20B JUMP JUMPDEST STOP JUMPDEST CALLVALUE DUP1 ISZERO PUSH2 0xAE JUMPI PUSH1 0x0 DUP1 REVERT JUMPDEST POP PUSH2 0xC9 PUSH1 0x4 DUP1 CALLDATASIZE SUB DUP2 ADD SWAP1 PUSH2 0xC4 SWAP2 SWAP1 PUSH2 0xAE4 JUMP JUMPDEST PUSH2 0x3A3 JUMP JUMPDEST STOP JUMPDEST PUSH2 0xE5 PUSH1 0x4 DUP1 CALLDATASIZE SUB DUP2 ADD SWAP1 PUSH2 0xE0 SWAP2 SWAP1 PUSH2 0xB67 JUMP JUMPDEST PUSH2 0x468 JUMP JUMPDEST STOP JUMPDEST CALLVALUE DUP1 ISZERO PUSH2 0xF3 JUMPI PUSH1 0x0 DUP1 REVERT JUMPDEST POP PUSH2 0xFC PUSH2 0x647 JUMP JUMPDEST PUSH1 0x40 MLOAD PUSH2 0x109 SWAP2 SWAP1 PUSH2 0xBC2 JUMP JUMPDEST PUSH1 0x40 MLOAD DUP1 SWAP2 SUB SWAP1 RETURN JUMPDEST CALLVALUE DUP1 ISZERO PUSH2 0x11E JUMPI PUSH1 0x0 DUP1 REVERT JUMPDEST POP PUSH2 0x139 PUSH1 0x4 DUP1 CALLDATASIZE SUB DUP2 ADD SWAP1 PUSH2 0x134 SWAP2 SWAP1 PUSH2 0xBDD JUMP JUMPDEST PUSH2 0x6BC JUMP JUMPDEST PUSH1 0x40 MLOAD PUSH2 0x147 SWAP3 SWAP2 SWAP1 PUSH2 0xC19 JUMP JUMPDEST PUSH1 0x40 MLOAD DUP1 SWAP2 SUB SWAP1 RETURN JUMPDEST CALLVALUE DUP1 ISZERO PUSH2 0x15C JUMPI PUSH1 0x0 DUP1 REVERT JUMPDEST POP PUSH2 0x177 PUSH1 0x4 DUP1 CALLDATASIZE SUB DUP2 ADD SWAP1 PUSH2 0x172 SWAP2 SWAP1 PUSH2 0xAE4 JUMP JUMPDEST PUSH2 0x6E0 JUMP JUMPDEST PUSH1 0x40 MLOAD PUSH2 0x185 SWAP3 SWAP2 SWAP1 PUSH2 0xCDB JUMP JUMPDEST PUSH1 0x40 MLOAD DUP1 SWAP2 SUB SWAP1 RETURN JUMPDEST CALLVALUE DUP1 ISZERO PUSH2 0x19A JUMPI PUSH1 0x0 DUP1 REVERT JUMPDEST POP PUSH2 0x1B5 PUSH1 0x4 DUP1 CALLDATASIZE SUB DUP2 ADD SWAP1 PUSH2 0x1B0 SWAP2 SWAP1 PUSH2 0xBDD JUMP JUMPDEST PUSH2 0x6F5 JUMP JUMPDEST STOP JUMPDEST CALLVALUE DUP1 ISZERO PUSH2 0x1C3 JUMPI PUSH1 0x0 DUP1 REVERT JUMPDEST POP PUSH2 0x1DE PUSH1 0x4 DUP1 CALLDATASIZE SUB DUP2 ADD SWAP1 PUSH2 0x1D9 SWAP2 SWAP1 PUSH2 0xBDD JUMP JUMPDEST PUSH2 0x8A3 JUMP JUMPDEST STOP JUMPDEST CALLVALUE DUP1 ISZERO PUSH2 0x1EC JUMPI PUSH1 0x0 DUP1 REVERT JUMPDEST POP PUSH2 0x1F5 PUSH2 0xA51 JUMP JUMPDEST PUSH1 0x40 MLOAD PUSH2 0x202 SWAP2 SWAP1 PUSH2 0xD4C JUMP JUMPDEST PUSH1 0x40 MLOAD DUP1 SWAP2 SUB SWAP1 RETURN JUMPDEST PUSH32 0x0 PUSH20 0xFFFFFFFFFFFFFFFFFFFFFFFFFFFFFFFFFFFFFFFF AND CALLER PUSH20 0xFFFFFFFFFFFFFFFFFFFFFFFFFFFFFFFFFFFFFFFF AND EQ PUSH2 0x299 JUMPI PUSH1 0x40 MLOAD PUSH32 0x8C379A000000000000000000000000000000000000000000000000000000000 DUP2 MSTORE PUSH1 0x4 ADD PUSH2 0x290 SWAP1 PUSH2 0xDEA JUMP JUMPDEST PUSH1 0x40 MLOAD DUP1 SWAP2 SUB SWAP1 REVERT JUMPDEST PUSH2 0x2A1 PUSH2 0x647 JUMP JUMPDEST PUSH2 0x2E0 JUMPI PUSH1 0x40 MLOAD PUSH32 0x8C379A000000000000000000000000000000000000000000000000000000000 DUP2 MSTORE PUSH1 0x4 ADD PUSH2 0x2D7 SWAP1 PUSH2 0xE56 JUMP JUMPDEST PUSH1 0x40 MLOAD DUP1 SWAP2 SUB SWAP1 REVERT JUMPDEST PUSH1 0x0 JUMPDEST PUSH1 0x8 DUP2 LT ISZERO PUSH2 0x374 JUMPI PUSH1 0x1 PUSH1 0x0 DUP1 DUP4 DUP2 MSTORE PUSH1 0x20 ADD SWAP1 DUP2 MSTORE PUSH1 0x20 ADD PUSH1 0x0 KECCAK256 PUSH1 0x0 ADD SLOAD EQ DUP1 ISZERO PUSH2 0x325 JUMPI POP PUSH1 0x0 DUP1 DUP3 DUP2 MSTORE PUSH1 0x20 ADD SWAP1 DUP2 MSTORE PUSH1 0x20 ADD PUSH1 0x0 KECCAK256 PUSH1 0x1 ADD SLOAD TIMESTAMP GT JUMPDEST ISZERO PUSH2 0x361 JUMPI PUSH1 0x0 DUP1 PUSH1 0x0 DUP4 DUP2 MSTORE PUSH1 0x20 ADD SWAP1 DUP2 MSTORE PUSH1 0x20 ADD PUSH1 0x0 KECCAK256 PUSH1 0x0 ADD DUP2 SWAP1 SSTORE POP PUSH1 0x0 DUP1 PUSH1 0x0 DUP4 DUP2 MSTORE PUSH1 0x20 ADD SWAP1 DUP2 MSTORE PUSH1 0x20 ADD PUSH1 0x0 KECCAK256 PUSH1 0x1 ADD DUP2 SWAP1 SSTORE POP JUMPDEST DUP1 DUP1 PUSH2 0x36C SWAP1 PUSH2 0xEA5 JUMP JUMPDEST SWAP2 POP POP PUSH2 0x2E3 JUMP JUMPDEST POP PUSH32 0x72FDFD0F629C78D86D13A56EC6144A2C6A4904AD7DE41D8089E90B00FF65A94A PUSH1 0x40 MLOAD PUSH1 0x40 MLOAD DUP1 SWAP2 SUB SWAP1 LOG1 JUMP JUMPDEST PUSH1 0x0 JUMPDEST PUSH1 0x8 DUP2 LT ISZERO PUSH2 0x437 JUMPI PUSH1 0x1 PUSH1 0x0 DUP1 DUP4 DUP2 MSTORE PUSH1 0x20 ADD SWAP1 DUP2 MSTORE PUSH1 0x20 ADD PUSH1 0x0 KECCAK256 PUSH1 0x0 ADD SLOAD EQ DUP1 ISZERO PUSH2 0x3E8 JUMPI POP PUSH1 0x0 DUP1 DUP3 DUP2 MSTORE PUSH1 0x20 ADD SWAP1 DUP2 MSTORE PUSH1 0x20 ADD PUSH1 0x0 KECCAK256 PUSH1 0x1 ADD SLOAD TIMESTAMP GT JUMPDEST ISZERO PUSH2 0x424 JUMPI PUSH1 0x0 DUP1 PUSH1 0x0 DUP4 DUP2 MSTORE PUSH1 0x20 ADD SWAP1 DUP2 MSTORE PUSH1 0x20 ADD PUSH1 0x0 KECCAK256 PUSH1 0x0 ADD DUP2 SWAP1 SSTORE POP PUSH1 0x0 DUP1 PUSH1 0x0 DUP4 DUP2 MSTORE PUSH1 0x20 ADD SWAP1 DUP2 MSTORE PUSH1 0x20 ADD PUSH1 0x0 KECCAK256 PUSH1 0x1 ADD DUP2 SWAP1 SSTORE POP JUMPDEST DUP1 DUP1 PUSH2 0x42F SWAP1 PUSH2 0xEA5 JUMP JUMPDEST SWAP2 POP POP PUSH2 0x3A6 JUMP JUMPDEST POP PUSH32 0x72FDFD0F629C78D86D13A56EC6144A2C6A4904AD7DE41D8089E90B00FF65A94A PUSH1 0x40 MLOAD PUSH1 0x40 MLOAD DUP1 SWAP2 SUB SWAP1 LOG1 POP POP JUMP JUMPDEST DUP2 PUSH1 0x0 DUP2 LT ISZERO DUP1 ISZERO PUSH2 0x47A JUMPI POP PUSH1 0x8 DUP2 LT JUMPDEST PUSH2 0x4B9 JUMPI PUSH1 0x40 MLOAD PUSH32 0x8C379A000000000000000000000000000000000000000000000000000000000 DUP2 MSTORE PUSH1 0x4 ADD PUSH2 0x4B0 SWAP1 PUSH2 0xF86 JUMP JUMPDEST PUSH1 0x40 MLOAD DUP1 SWAP2 SUB SWAP1 REVERT JUMPDEST DUP2 CALLVALUE EQ DUP1 ISZERO PUSH2 0x4C8 JUMPI POP PUSH1 0x0 DUP3 GT JUMPDEST PUSH2 0x507 JUMPI PUSH1 0x40 MLOAD PUSH32 0x8C379A000000000000000000000000000000000000000000000000000000000 DUP2 MSTORE PUSH1 0x4 ADD PUSH2 0x4FE SWAP1 PUSH2 0x1018 JUMP JUMPDEST PUSH1 0x40 MLOAD DUP1 SWAP2 SUB SWAP1 REVERT JUMPDEST PUSH1 0x0 DUP1 PUSH1 0x0 DUP6 DUP2 MSTORE PUSH1 0x20 ADD SWAP1 DUP2 MSTORE PUSH1 0x20 ADD PUSH1 0x0 KECCAK256 PUSH1 0x0 ADD SLOAD EQ ISZERO PUSH2 0x576 JUMPI PUSH1 0x1 PUSH1 0x0 DUP1 DUP6 DUP2 MSTORE PUSH1 0x20 ADD SWAP1 DUP2 MSTORE PUSH1 0x20 ADD PUSH1 0x0 KECCAK256 PUSH1 0x0 ADD DUP2 SWAP1 SSTORE POP DUP2 PUSH1 0x3C PUSH2 0x54D SWAP2 SWAP1 PUSH2 0x1038 JUMP JUMPDEST TIMESTAMP PUSH2 0x558 SWAP2 SWAP1 PUSH2 0x1092 JUMP JUMPDEST PUSH1 0x0 DUP1 DUP6 DUP2 MSTORE PUSH1 0x20 ADD SWAP1 DUP2 MSTORE PUSH1 0x20 ADD PUSH1 0x0 KECCAK256 PUSH1 0x1 ADD DUP2 SWAP1 SSTORE POP PUSH2 0x5AF JUMP JUMPDEST DUP2 PUSH1 0x3C PUSH2 0x583 SWAP2 SWAP1 PUSH2 0x1038 JUMP JUMPDEST PUSH1 0x0 DUP1 DUP6 DUP2 MSTORE PUSH1 0x20 ADD SWAP1 DUP2 MSTORE PUSH1 0x20 ADD PUSH1 0x0 KECCAK256 PUSH1 0x1 ADD PUSH1 0x0 DUP3 DUP3 SLOAD PUSH2 0x5A7 SWAP2 SWAP1 PUSH2 0x1092 JUMP JUMPDEST SWAP3 POP POP DUP2 SWAP1 SSTORE POP JUMPDEST PUSH32 0x72FDFD0F629C78D86D13A56EC6144A2C6A4904AD7DE41D8089E90B00FF65A94A PUSH1 0x40 MLOAD PUSH1 0x40 MLOAD DUP1 SWAP2 SUB SWAP1 LOG1 PUSH32 0x0 PUSH20 0xFFFFFFFFFFFFFFFFFFFFFFFFFFFFFFFFFFFFFFFF AND PUSH2 0x8FC SELFBALANCE SWAP1 DUP2 ISZERO MUL SWAP1 PUSH1 0x40 MLOAD PUSH1 0x0 PUSH1 0x40 MLOAD DUP1 DUP4 SUB DUP2 DUP6 DUP9 DUP9 CALL SWAP4 POP POP POP POP ISZERO DUP1 ISZERO PUSH2 0x641 JUMPI RETURNDATASIZE PUSH1 0x0 DUP1 RETURNDATACOPY RETURNDATASIZE PUSH1 0x0 REVERT JUMPDEST POP POP POP POP JUMP JUMPDEST PUSH1 0x0 DUP1 PUSH1 0x0 SWAP1 POP JUMPDEST PUSH1 0x8 DUP2 LT ISZERO PUSH2 0x6B3 JUMPI PUSH1 0x1 PUSH1 0x0 DUP1 DUP4 DUP2 MSTORE PUSH1 0x20 ADD SWAP1 DUP2 MSTORE PUSH1 0x20 ADD PUSH1 0x0 KECCAK256 PUSH1 0x0 ADD SLOAD EQ DUP1 ISZERO PUSH2 0x691 JUMPI POP PUSH1 0x0 DUP1 DUP3 DUP2 MSTORE PUSH1 0x20 ADD SWAP1 DUP2 MSTORE PUSH1 0x20 ADD PUSH1 0x0 KECCAK256 PUSH1 0x1 ADD SLOAD TIMESTAMP GT JUMPDEST ISZERO PUSH2 0x6A0 JUMPI PUSH1 0x1 SWAP2 POP POP PUSH2 0x6B9 JUMP JUMPDEST DUP1 DUP1 PUSH2 0x6AB SWAP1 PUSH2 0xEA5 JUMP JUMPDEST SWAP2 POP POP PUSH2 0x64F JUMP JUMPDEST POP PUSH1 0x0 SWAP1 POP JUMPDEST SWAP1 JUMP JUMPDEST PUSH1 0x0 PUSH1 0x20 MSTORE DUP1 PUSH1 0x0 MSTORE PUSH1 0x40 PUSH1 0x0 KECCAK256 PUSH1 0x0 SWAP2 POP SWAP1 POP DUP1 PUSH1 0x0 ADD SLOAD SWAP1 DUP1 PUSH1 0x1 ADD SLOAD SWAP1 POP DUP3 JUMP JUMPDEST PUSH1 0x0 PUSH1 0x60 PUSH2 0x6EC PUSH2 0x647 JUMP JUMPDEST SWAP2 POP SWAP3 POP SWAP3 SWAP1 POP JUMP JUMPDEST PUSH32 0x0 PUSH20 0xFFFFFFFFFFFFFFFFFFFFFFFFFFFFFFFFFFFFFFFF AND CALLER PUSH20 0xFFFFFFFFFFFFFFFFFFFFFFFFFFFFFFFFFFFFFFFF AND EQ PUSH2 0x783 JUMPI PUSH1 0x40 MLOAD PUSH32 0x8C379A000000000000000000000000000000000000000000000000000000000 DUP2 MSTORE PUSH1 0x4 ADD PUSH2 0x77A SWAP1 PUSH2 0xDEA JUMP JUMPDEST PUSH1 0x40 MLOAD DUP1 SWAP2 SUB SWAP1 REVERT JUMPDEST DUP1 PUSH1 0x0 DUP2 LT ISZERO DUP1 ISZERO PUSH2 0x795 JUMPI POP PUSH1 0x8 DUP2 LT JUMPDEST PUSH2 0x7D4 JUMPI PUSH1 0x40 MLOAD PUSH32 0x8C379A000000000000000000000000000000000000000000000000000000000 DUP2 MSTORE PUSH1 0x4 ADD PUSH2 0x7CB SWAP1 PUSH2 0xF86 JUMP JUMPDEST PUSH1 0x40 MLOAD DUP1 SWAP2 SUB SWAP1 REVERT JUMPDEST PUSH1 0x1 PUSH1 0x0 DUP1 DUP5 DUP2 MSTORE PUSH1 0x20 ADD SWAP1 DUP2 MSTORE PUSH1 0x20 ADD PUSH1 0x0 KECCAK256 PUSH1 0x0 ADD SLOAD EQ PUSH2 0x82C JUMPI PUSH1 0x40 MLOAD PUSH32 0x8C379A000000000000000000000000000000000000000000000000000000000 DUP2 MSTORE PUSH1 0x4 ADD PUSH2 0x823 SWAP1 PUSH2 0x1134 JUMP JUMPDEST PUSH1 0x40 MLOAD DUP1 SWAP2 SUB SWAP1 REVERT JUMPDEST PUSH1 0x2 PUSH1 0x0 DUP1 DUP5 DUP2 MSTORE PUSH1 0x20 ADD SWAP1 DUP2 MSTORE PUSH1 0x20 ADD PUSH1 0x0 KECCAK256 PUSH1 0x0 ADD DUP2 SWAP1 SSTORE POP TIMESTAMP PUSH1 0x0 DUP1 DUP5 DUP2 MSTORE PUSH1 0x20 ADD SWAP1 DUP2 MSTORE PUSH1 0x20 ADD PUSH1 0x0 KECCAK256 PUSH1 0x1 ADD PUSH1 0x0 DUP3 DUP3 SLOAD PUSH2 0x86C SWAP2 SWAP1 PUSH2 0x1154 JUMP JUMPDEST SWAP3 POP POP DUP2 SWAP1 SSTORE POP PUSH32 0x72FDFD0F629C78D86D13A56EC6144A2C6A4904AD7DE41D8089E90B00FF65A94A PUSH1 0x40 MLOAD PUSH1 0x40 MLOAD DUP1 SWAP2 SUB SWAP1 LOG1 POP POP JUMP JUMPDEST PUSH32 0x0 PUSH20 0xFFFFFFFFFFFFFFFFFFFFFFFFFFFFFFFFFFFFFFFF AND CALLER PUSH20 0xFFFFFFFFFFFFFFFFFFFFFFFFFFFFFFFFFFFFFFFF AND EQ PUSH2 0x931 JUMPI PUSH1 0x40 MLOAD PUSH32 0x8C379A000000000000000000000000000000000000000000000000000000000 DUP2 MSTORE PUSH1 0x4 ADD PUSH2 0x928 SWAP1 PUSH2 0xDEA JUMP JUMPDEST PUSH1 0x40 MLOAD DUP1 SWAP2 SUB SWAP1 REVERT JUMPDEST DUP1 PUSH1 0x0 DUP2 LT ISZERO DUP1 ISZERO PUSH2 0x943 JUMPI POP PUSH1 0x8 DUP2 LT JUMPDEST PUSH2 0x982 JUMPI PUSH1 0x40 MLOAD PUSH32 0x8C379A000000000000000000000000000000000000000000000000000000000 DUP2 MSTORE PUSH1 0x4 ADD PUSH2 0x979 SWAP1 PUSH2 0xF86 JUMP JUMPDEST PUSH1 0x40 MLOAD DUP1 SWAP2 SUB SWAP1 REVERT JUMPDEST PUSH1 0x2 PUSH1 0x0 DUP1 DUP5 DUP2 MSTORE PUSH1 0x20 ADD SWAP1 DUP2 MSTORE PUSH1 0x20 ADD PUSH1 0x0 KECCAK256 PUSH1 0x0 ADD SLOAD EQ PUSH2 0x9DA JUMPI PUSH1 0x40 MLOAD PUSH32 0x8C379A000000000000000000000000000000000000000000000000000000000 DUP2 MSTORE PUSH1 0x4 ADD PUSH2 0x9D1 SWAP1 PUSH2 0x11FA JUMP JUMPDEST PUSH1 0x40 MLOAD DUP1 SWAP2 SUB SWAP1 REVERT JUMPDEST PUSH1 0x1 PUSH1 0x0 DUP1 DUP5 DUP2 MSTORE PUSH1 0x20 ADD SWAP1 DUP2 MSTORE PUSH1 0x20 ADD PUSH1 0x0 KECCAK256 PUSH1 0x0 ADD DUP2 SWAP1 SSTORE POP TIMESTAMP PUSH1 0x0 DUP1 DUP5 DUP2 MSTORE PUSH1 0x20 ADD SWAP1 DUP2 MSTORE PUSH1 0x20 ADD PUSH1 0x0 KECCAK256 PUSH1 0x1 ADD PUSH1 0x0 DUP3 DUP3 SLOAD PUSH2 0xA1A SWAP2 SWAP1 PUSH2 0x1092 JUMP JUMPDEST SWAP3 POP POP DUP2 SWAP1 SSTORE POP PUSH32 0x72FDFD0F629C78D86D13A56EC6144A2C6A4904AD7DE41D8089E90B00FF65A94A PUSH1 0x40 MLOAD PUSH1 0x40 MLOAD DUP1 SWAP2 SUB SWAP1 LOG1 POP POP JUMP JUMPDEST PUSH32 0x0 DUP2 JUMP JUMPDEST PUSH1 0x0 DUP1 REVERT JUMPDEST PUSH1 0x0 DUP1 REVERT JUMPDEST PUSH1 0x0 DUP1 REVERT JUMPDEST PUSH1 0x0 DUP1 REVERT JUMPDEST PUSH1 0x0 DUP1 REVERT JUMPDEST PUSH1 0x0 DUP1 DUP4 PUSH1 0x1F DUP5 ADD SLT PUSH2 0xAA4 JUMPI PUSH2 0xAA3 PUSH2 0xA7F JUMP JUMPDEST JUMPDEST DUP3 CALLDATALOAD SWAP1 POP PUSH8 0xFFFFFFFFFFFFFFFF DUP2 GT ISZERO PUSH2 0xAC1 JUMPI PUSH2 0xAC0 PUSH2 0xA84 JUMP JUMPDEST JUMPDEST PUSH1 0x20 DUP4 ADD SWAP2 POP DUP4 PUSH1 0x1 DUP3 MUL DUP4 ADD GT ISZERO PUSH2 0xADD JUMPI PUSH2 0xADC PUSH2 0xA89 JUMP JUMPDEST JUMPDEST SWAP3 POP SWAP3 SWAP1 POP JUMP JUMPDEST PUSH1 0x0 DUP1 PUSH1 0x20 DUP4 DUP6 SUB SLT ISZERO PUSH2 0xAFB JUMPI PUSH2 0xAFA PUSH2 0xA75 JUMP JUMPDEST JUMPDEST PUSH1 0x0 DUP4 ADD CALLDATALOAD PUSH8 0xFFFFFFFFFFFFFFFF DUP2 GT ISZERO PUSH2 0xB19 JUMPI PUSH2 0xB18 PUSH2 0xA7A JUMP JUMPDEST JUMPDEST PUSH2 0xB25 DUP6 DUP3 DUP7 ADD PUSH2 0xA8E JUMP JUMPDEST SWAP3 POP SWAP3 POP POP SWAP3 POP SWAP3 SWAP1 POP JUMP JUMPDEST PUSH1 0x0 DUP2 SWAP1 POP SWAP2 SWAP1 POP JUMP JUMPDEST PUSH2 0xB44 DUP2 PUSH2 0xB31 JUMP JUMPDEST DUP2 EQ PUSH2 0xB4F JUMPI PUSH1 0x0 DUP1 REVERT JUMPDEST POP JUMP JUMPDEST PUSH1 0x0 DUP2 CALLDATALOAD SWAP1 POP PUSH2 0xB61 DUP2 PUSH2 0xB3B JUMP JUMPDEST SWAP3 SWAP2 POP POP JUMP JUMPDEST PUSH1 0x0 DUP1 PUSH1 0x40 DUP4 DUP6 SUB SLT ISZERO PUSH2 0xB7E JUMPI PUSH2 0xB7D PUSH2 0xA75 JUMP JUMPDEST JUMPDEST PUSH1 0x0 PUSH2 0xB8C DUP6 DUP3 DUP7 ADD PUSH2 0xB52 JUMP JUMPDEST SWAP3 POP POP PUSH1 0x20 PUSH2 0xB9D DUP6 DUP3 DUP7 ADD PUSH2 0xB52 JUMP JUMPDEST SWAP2 POP POP SWAP3 POP SWAP3 SWAP1 POP JUMP JUMPDEST PUSH1 0x0 DUP2 ISZERO ISZERO SWAP1 POP SWAP2 SWAP1 POP JUMP JUMPDEST PUSH2 0xBBC DUP2 PUSH2 0xBA7 JUMP JUMPDEST DUP3 MSTORE POP POP JUMP JUMPDEST PUSH1 0x0 PUSH1 0x20 DUP3 ADD SWAP1 POP PUSH2 0xBD7 PUSH1 0x0 DUP4 ADD DUP5 PUSH2 0xBB3 JUMP JUMPDEST SWAP3 SWAP2 POP POP JUMP JUMPDEST PUSH1 0x0 PUSH1 0x20 DUP3 DUP5 SUB SLT ISZERO PUSH2 0xBF3 JUMPI PUSH2 0xBF2 PUSH2 0xA75 JUMP JUMPDEST JUMPDEST PUSH1 0x0 PUSH2 0xC01 DUP5 DUP3 DUP6 ADD PUSH2 0xB52 JUMP JUMPDEST SWAP2 POP POP SWAP3 SWAP2 POP POP JUMP JUMPDEST PUSH2 0xC13 DUP2 PUSH2 0xB31 JUMP JUMPDEST DUP3 MSTORE POP POP JUMP JUMPDEST PUSH1 0x0 PUSH1 0x40 DUP3 ADD SWAP1 POP PUSH2 0xC2E PUSH1 0x0 DUP4 ADD DUP6 PUSH2 0xC0A JUMP JUMPDEST PUSH2 0xC3B PUSH1 0x20 DUP4 ADD DUP5 PUSH2 0xC0A JUMP JUMPDEST SWAP4 SWAP3 POP POP POP JUMP JUMPDEST PUSH1 0x0 DUP2 MLOAD SWAP1 POP SWAP2 SWAP1 POP JUMP JUMPDEST PUSH1 0x0 DUP3 DUP3 MSTORE PUSH1 0x20 DUP3 ADD SWAP1 POP SWAP3 SWAP2 POP POP JUMP JUMPDEST PUSH1 0x0 JUMPDEST DUP4 DUP2 LT ISZERO PUSH2 0xC7C JUMPI DUP1 DUP3 ADD MLOAD DUP2 DUP5 ADD MSTORE PUSH1 0x20 DUP2 ADD SWAP1 POP PUSH2 0xC61 JUMP JUMPDEST DUP4 DUP2 GT ISZERO PUSH2 0xC8B JUMPI PUSH1 0x0 DUP5 DUP5 ADD MSTORE JUMPDEST POP POP POP POP JUMP JUMPDEST PUSH1 0x0 PUSH1 0x1F NOT PUSH1 0x1F DUP4 ADD AND SWAP1 POP SWAP2 SWAP1 POP JUMP JUMPDEST PUSH1 0x0 PUSH2 0xCAD DUP3 PUSH2 0xC42 JUMP JUMPDEST PUSH2 0xCB7 DUP2 DUP6 PUSH2 0xC4D JUMP JUMPDEST SWAP4 POP PUSH2 0xCC7 DUP2 DUP6 PUSH1 0x20 DUP7 ADD PUSH2 0xC5E JUMP JUMPDEST PUSH2 0xCD0 DUP2 PUSH2 0xC91 JUMP JUMPDEST DUP5 ADD SWAP2 POP POP SWAP3 SWAP2 POP POP JUMP JUMPDEST PUSH1 0x0 PUSH1 0x40 DUP3 ADD SWAP1 POP PUSH2 0xCF0 PUSH1 0x0 DUP4 ADD DUP6 PUSH2 0xBB3 JUMP JUMPDEST DUP2 DUP2 SUB PUSH1 0x20 DUP4 ADD MSTORE PUSH2 0xD02 DUP2 DUP5 PUSH2 0xCA2 JUMP JUMPDEST SWAP1 POP SWAP4 SWAP3 POP POP POP JUMP JUMPDEST PUSH1 0x0 PUSH20 0xFFFFFFFFFFFFFFFFFFFFFFFFFFFFFFFFFFFFFFFF DUP3 AND SWAP1 POP SWAP2 SWAP1 POP JUMP JUMPDEST PUSH1 0x0 PUSH2 0xD36 DUP3 PUSH2 0xD0B JUMP JUMPDEST SWAP1 POP SWAP2 SWAP1 POP JUMP JUMPDEST PUSH2 0xD46 DUP2 PUSH2 0xD2B JUMP JUMPDEST DUP3 MSTORE POP POP JUMP JUMPDEST PUSH1 0x0 PUSH1 0x20 DUP3 ADD SWAP1 POP PUSH2 0xD61 PUSH1 0x0 DUP4 ADD DUP5 PUSH2 0xD3D JUMP JUMPDEST SWAP3 SWAP2 POP POP JUMP JUMPDEST PUSH1 0x0 DUP3 DUP3 MSTORE PUSH1 0x20 DUP3 ADD SWAP1 POP SWAP3 SWAP2 POP POP JUMP JUMPDEST PUSH32 0x4F4E4C595F4F574E45525F57414C4C45545F414444524553535F4841535F4143 PUSH1 0x0 DUP3 ADD MSTORE PUSH32 0x434553532E000000000000000000000000000000000000000000000000000000 PUSH1 0x20 DUP3 ADD MSTORE POP JUMP JUMPDEST PUSH1 0x0 PUSH2 0xDD4 PUSH1 0x25 DUP4 PUSH2 0xD67 JUMP JUMPDEST SWAP2 POP PUSH2 0xDDF DUP3 PUSH2 0xD78 JUMP JUMPDEST PUSH1 0x40 DUP3 ADD SWAP1 POP SWAP2 SWAP1 POP JUMP JUMPDEST PUSH1 0x0 PUSH1 0x20 DUP3 ADD SWAP1 POP DUP2 DUP2 SUB PUSH1 0x0 DUP4 ADD MSTORE PUSH2 0xE03 DUP2 PUSH2 0xDC7 JUMP JUMPDEST SWAP1 POP SWAP2 SWAP1 POP JUMP JUMPDEST PUSH32 0x4E4F5F45585049524154494F4E5F5945542E0000000000000000000000000000 PUSH1 0x0 DUP3 ADD MSTORE POP JUMP JUMPDEST PUSH1 0x0 PUSH2 0xE40 PUSH1 0x12 DUP4 PUSH2 0xD67 JUMP JUMPDEST SWAP2 POP PUSH2 0xE4B DUP3 PUSH2 0xE0A JUMP JUMPDEST PUSH1 0x20 DUP3 ADD SWAP1 POP SWAP2 SWAP1 POP JUMP JUMPDEST PUSH1 0x0 PUSH1 0x20 DUP3 ADD SWAP1 POP DUP2 DUP2 SUB PUSH1 0x0 DUP4 ADD MSTORE PUSH2 0xE6F DUP2 PUSH2 0xE33 JUMP JUMPDEST SWAP1 POP SWAP2 SWAP1 POP JUMP JUMPDEST PUSH32 0x4E487B7100000000000000000000000000000000000000000000000000000000 PUSH1 0x0 MSTORE PUSH1 0x11 PUSH1 0x4 MSTORE PUSH1 0x24 PUSH1 0x0 REVERT JUMPDEST PUSH1 0x0 PUSH2 0xEB0 DUP3 PUSH2 0xB31 JUMP JUMPDEST SWAP2 POP PUSH32 0xFFFFFFFFFFFFFFFFFFFFFFFFFFFFFFFFFFFFFFFFFFFFFFFFFFFFFFFFFFFFFFFF DUP3 EQ ISZERO PUSH2 0xEE3 JUMPI PUSH2 0xEE2 PUSH2 0xE76 JUMP JUMPDEST JUMPDEST PUSH1 0x1 DUP3 ADD SWAP1 POP SWAP2 SWAP1 POP JUMP JUMPDEST PUSH32 0x4C45445F56414C5545535F5245445F305F424C55455F315F59454C4C4F575F32 PUSH1 0x0 DUP3 ADD MSTORE PUSH32 0x5F475245454E5F335F505552504C455F345F4F52414E47455F355F50494E4B5F PUSH1 0x20 DUP3 ADD MSTORE PUSH32 0x365F57484954455F372E00000000000000000000000000000000000000000000 PUSH1 0x40 DUP3 ADD MSTORE POP JUMP JUMPDEST PUSH1 0x0 PUSH2 0xF70 PUSH1 0x4A DUP4 PUSH2 0xD67 JUMP JUMPDEST SWAP2 POP PUSH2 0xF7B DUP3 PUSH2 0xEEE JUMP JUMPDEST PUSH1 0x60 DUP3 ADD SWAP1 POP SWAP2 SWAP1 POP JUMP JUMPDEST PUSH1 0x0 PUSH1 0x20 DUP3 ADD SWAP1 POP DUP2 DUP2 SUB PUSH1 0x0 DUP4 ADD MSTORE PUSH2 0xF9F DUP2 PUSH2 0xF63 JUMP JUMPDEST SWAP1 POP SWAP2 SWAP1 POP JUMP JUMPDEST PUSH32 0x4D53472E56414C55455F4D5553545F42455F315F5745495F54494D45535F4D49 PUSH1 0x0 DUP3 ADD MSTORE PUSH32 0x4E555445535F414E445F4E4F545F42455F5A45524F2E00000000000000000000 PUSH1 0x20 DUP3 ADD MSTORE POP JUMP JUMPDEST PUSH1 0x0 PUSH2 0x1002 PUSH1 0x36 DUP4 PUSH2 0xD67 JUMP JUMPDEST SWAP2 POP PUSH2 0x100D DUP3 PUSH2 0xFA6 JUMP JUMPDEST PUSH1 0x40 DUP3 ADD SWAP1 POP SWAP2 SWAP1 POP JUMP JUMPDEST PUSH1 0x0 PUSH1 0x20 DUP3 ADD SWAP1 POP DUP2 DUP2 SUB PUSH1 0x0 DUP4 ADD MSTORE PUSH2 0x1031 DUP2 PUSH2 0xFF5 JUMP JUMPDEST SWAP1 POP SWAP2 SWAP1 POP JUMP JUMPDEST PUSH1 0x0 PUSH2 0x1043 DUP3 PUSH2 0xB31 JUMP JUMPDEST SWAP2 POP PUSH2 0x104E DUP4 PUSH2 0xB31 JUMP JUMPDEST SWAP3 POP DUP2 PUSH32 0xFFFFFFFFFFFFFFFFFFFFFFFFFFFFFFFFFFFFFFFFFFFFFFFFFFFFFFFFFFFFFFFF DIV DUP4 GT DUP3 ISZERO ISZERO AND ISZERO PUSH2 0x1087 JUMPI PUSH2 0x1086 PUSH2 0xE76 JUMP JUMPDEST JUMPDEST DUP3 DUP3 MUL SWAP1 POP SWAP3 SWAP2 POP POP JUMP JUMPDEST PUSH1 0x0 PUSH2 0x109D DUP3 PUSH2 0xB31 JUMP JUMPDEST SWAP2 POP PUSH2 0x10A8 DUP4 PUSH2 0xB31 JUMP JUMPDEST SWAP3 POP DUP3 PUSH32 0xFFFFFFFFFFFFFFFFFFFFFFFFFFFFFFFFFFFFFFFFFFFFFFFFFFFFFFFFFFFFFFFF SUB DUP3 GT ISZERO PUSH2 0x10DD JUMPI PUSH2 0x10DC PUSH2 0xE76 JUMP JUMPDEST JUMPDEST DUP3 DUP3 ADD SWAP1 POP SWAP3 SWAP2 POP POP JUMP JUMPDEST PUSH32 0x564F4C544147455F4E4F545F4F4E2E0000000000000000000000000000000000 PUSH1 0x0 DUP3 ADD MSTORE POP JUMP JUMPDEST PUSH1 0x0 PUSH2 0x111E PUSH1 0xF DUP4 PUSH2 0xD67 JUMP JUMPDEST SWAP2 POP PUSH2 0x1129 DUP3 PUSH2 0x10E8 JUMP JUMPDEST PUSH1 0x20 DUP3 ADD SWAP1 POP SWAP2 SWAP1 POP JUMP JUMPDEST PUSH1 0x0 PUSH1 0x20 DUP3 ADD SWAP1 POP DUP2 DUP2 SUB PUSH1 0x0 DUP4 ADD MSTORE PUSH2 0x114D DUP2 PUSH2 0x1111 JUMP JUMPDEST SWAP1 POP SWAP2 SWAP1 POP JUMP JUMPDEST PUSH1 0x0 PUSH2 0x115F DUP3 PUSH2 0xB31 JUMP JUMPDEST SWAP2 POP PUSH2 0x116A DUP4 PUSH2 0xB31 JUMP JUMPDEST SWAP3 POP DUP3 DUP3 LT ISZERO PUSH2 0x117D JUMPI PUSH2 0x117C PUSH2 0xE76 JUMP JUMPDEST JUMPDEST DUP3 DUP3 SUB SWAP1 POP SWAP3 SWAP2 POP POP JUMP JUMPDEST PUSH32 0x564F4C544147455F4E4F545F494E5F454D455247454E43595F4F46465F535441 PUSH1 0x0 DUP3 ADD MSTORE PUSH32 0x54452E0000000000000000000000000000000000000000000000000000000000 PUSH1 0x20 DUP3 ADD MSTORE POP JUMP JUMPDEST PUSH1 0x0 PUSH2 0x11E4 PUSH1 0x23 DUP4 PUSH2 0xD67 JUMP JUMPDEST SWAP2 POP PUSH2 0x11EF DUP3 PUSH2 0x1188 JUMP JUMPDEST PUSH1 0x40 DUP3 ADD SWAP1 POP SWAP2 SWAP1 POP JUMP JUMPDEST PUSH1 0x0 PUSH1 0x20 DUP3 ADD SWAP1 POP DUP2 DUP2 SUB PUSH1 0x0 DUP4 ADD MSTORE PUSH2 0x1213 DUP2 PUSH2 0x11D7 JUMP JUMPDEST SWAP1 POP SWAP2 SWAP1 POP JUMP INVALID LOG2 PUSH5 0x6970667358 0x22 SLT KECCAK256 BYTE SWAP5 0xEA PUSH8 0x84EF4DBDC27954C7 0x25 0x49 CREATE2 CALLDATASIZE 0xB5 0xCA 0xB4 NOT 0xC6 CALL 0xE 0xA8 DUP9 KECCAK256 SHL 0x1F 0xF6 XOR CREATE2 SWAP2 PUSH5 0x736F6C6343 STOP ADDMOD 0xC STOP CALLER "
        },
        "methodIdentifiers": {
          "BuyElectricityTimeOn(uint256,uint256)": "494762f6",
          "LED(uint256)": "6bf93b66",
          "Owner()": "b4a99a4e",
          "OwnerEmergencyDangerOff(uint256)": "979c22ce",
          "OwnerEmergencySafeOn(uint256)": "9e476c29",
          "OwnerManualExpirationOff()": "0e2e1ff3",
          "checkUpkeep(bytes)": "6e04ff0d",
          "expirationOccured()": "571fcf0a",
          "performUpkeep(bytes)": "4585e33b"
        }
      }
    }
  }
}