{
  "contracts/ElectricKeeperMockV24.sol": {
    "BuyDemoEightMinutesMock": {
      "abi": [
        {
          "inputs": [
            {
              "internalType": "contract ElectricKeeperMock",
              "name": "electricKeeperAddress",
              "type": "address"
            }
          ],
          "stateMutability": "nonpayable",
          "type": "constructor"
        },
        {
          "inputs": [],
          "name": "BuyTestEightMinuteCountdown",
          "outputs": [],
          "stateMutability": "payable",
          "type": "function"
        }
      ],
      "evm": {
        "bytecode": {
          "linkReferences": {},
          "object": "608060405234801561001057600080fd5b5060405161085738038061085783398181016040528101906100329190610186565b6100647ff0622d300d61bfcc366e19f86f3d81c6d6eff0f2db8b11639b9a2d0daf47ae6b60001b61010e60201b60201c565b6100967ff275845a84b1d11adf4529b90808766d389bae3cf66b0d9d00cedfababf39fa160001b61010e60201b60201c565b6100c87f1b9f53287693453c60bd0e98895c0f54aafd0e6db80c350bc4618179af620c4c60001b61010e60201b60201c565b806000806101000a81548173ffffffffffffffffffffffffffffffffffffffff021916908373ffffffffffffffffffffffffffffffffffffffff160217905550506101b3565b50565b600080fd5b600073ffffffffffffffffffffffffffffffffffffffff82169050919050565b600061014182610116565b9050919050565b600061015382610136565b9050919050565b61016381610148565b811461016e57600080fd5b50565b6000815190506101808161015a565b92915050565b60006020828403121561019c5761019b610111565b5b60006101aa84828501610171565b91505092915050565b610695806101c26000396000f3fe60806040526004361061001e5760003560e01c8063eb4c968d14610023575b600080fd5b61002b61002d565b005b6100597fece90110bcf16f486df94aace76e27eab0bd9dddfc32ce62707167594482986d60001b6103f6565b6100857f986280a2bbff9dfd4fd00c572891f550346a5e0bac432ff2ea698974f0227f0360001b6103f6565b6100b17f1f849dee5f0bdc6b0c3588f7babb1943211a7e1f2822065095221abc4085ca7260001b6103f6565b6100dd7f6d4312bc30078a4a341e052464b63118f598c709c592e0f267aac056110f900b60001b6103f6565b60008054906101000a900473ffffffffffffffffffffffffffffffffffffffff1673ffffffffffffffffffffffffffffffffffffffff1663b9dbf3d160246040518263ffffffff1660e01b81526004016101379190610448565b602060405180830381865afa158015610154573d6000803e3d6000fd5b505050506040513d601f19601f820116820180604052508101906101789190610494565b34146101b9576040517f08c379a00000000000000000000000000000000000000000000000000000000081526004016101b09061051e565b60405180910390fd5b6101e57f960bd2359ef06470dc92f1b09f3538beb4a07a7bf60691631af9f8f49165714b60001b6103f6565b6102117fb807c173c810e693d1fe8447ec44ebe3835aa179e05bad05f49324c0748d42cc60001b6103f6565b61023d7feaf9d99b407950e99912bb11f7168b59fe02d2bca181779d6a98a559ac50f41d60001b6103f6565b60005b60088110156103f3576102757fdbed67217a4c54f05a342104eb8077c4e6f7e7b8b6782ca1c9e991965f92b25860001b6103f6565b6102a17f90d8a35dd74eaf2cc70c29e85eec7a6217ea76fb2db18dafd1bf32b2455f2e2360001b6103f6565b60008054906101000a900473ffffffffffffffffffffffffffffffffffffffff1673ffffffffffffffffffffffffffffffffffffffff1663494762f660008054906101000a900473ffffffffffffffffffffffffffffffffffffffff1673ffffffffffffffffffffffffffffffffffffffff1663b9dbf3d1600185610326919061056d565b6040518263ffffffff1660e01b815260040161034291906105d2565b602060405180830381865afa15801561035f573d6000803e3d6000fd5b505050506040513d601f19601f820116820180604052508101906103839190610494565b83600185610391919061056d565b6040518463ffffffff1660e01b81526004016103ae9291906105ed565b6000604051808303818588803b1580156103c757600080fd5b505af11580156103db573d6000803e3d6000fd5b505050505080806103eb90610616565b915050610240565b50565b50565b6000819050919050565b6000819050919050565b6000819050919050565b600061043261042d610428846103f9565b61040d565b610403565b9050919050565b61044281610417565b82525050565b600060208201905061045d6000830184610439565b92915050565b600080fd5b61047181610403565b811461047c57600080fd5b50565b60008151905061048e81610468565b92915050565b6000602082840312156104aa576104a9610463565b5b60006104b88482850161047f565b91505092915050565b600082825260208201905092915050565b7f4d5553545f484156455f4d53475f56414c55453d33362a4645452e0000000000600082015250565b6000610508601b836104c1565b9150610513826104d2565b602082019050919050565b60006020820190508181036000830152610537816104fb565b9050919050565b7f4e487b7100000000000000000000000000000000000000000000000000000000600052601160045260246000fd5b600061057882610403565b915061058383610403565b9250827fffffffffffffffffffffffffffffffffffffffffffffffffffffffffffffffff038211156105b8576105b761053e565b5b828201905092915050565b6105cc81610403565b82525050565b60006020820190506105e760008301846105c3565b92915050565b600060408201905061060260008301856105c3565b61060f60208301846105c3565b9392505050565b600061062182610403565b91507fffffffffffffffffffffffffffffffffffffffffffffffffffffffffffffffff8214156106545761065361053e565b5b60018201905091905056fea2646970667358221220359378c0584e4906bcb227f4b68ea270808b923f17dc76bf844904b7e8eb272864736f6c634300080c0033",
          "opcodes": "PUSH1 0x80 PUSH1 0x40 MSTORE CALLVALUE DUP1 ISZERO PUSH2 0x10 JUMPI PUSH1 0x0 DUP1 REVERT JUMPDEST POP PUSH1 0x40 MLOAD PUSH2 0x857 CODESIZE SUB DUP1 PUSH2 0x857 DUP4 CODECOPY DUP2 DUP2 ADD PUSH1 0x40 MSTORE DUP2 ADD SWAP1 PUSH2 0x32 SWAP2 SWAP1 PUSH2 0x186 JUMP JUMPDEST PUSH2 0x64 PUSH32 0xF0622D300D61BFCC366E19F86F3D81C6D6EFF0F2DB8B11639B9A2D0DAF47AE6B PUSH1 0x0 SHL PUSH2 0x10E PUSH1 0x20 SHL PUSH1 0x20 SHR JUMP JUMPDEST PUSH2 0x96 PUSH32 0xF275845A84B1D11ADF4529B90808766D389BAE3CF66B0D9D00CEDFABABF39FA1 PUSH1 0x0 SHL PUSH2 0x10E PUSH1 0x20 SHL PUSH1 0x20 SHR JUMP JUMPDEST PUSH2 0xC8 PUSH32 0x1B9F53287693453C60BD0E98895C0F54AAFD0E6DB80C350BC4618179AF620C4C PUSH1 0x0 SHL PUSH2 0x10E PUSH1 0x20 SHL PUSH1 0x20 SHR JUMP JUMPDEST DUP1 PUSH1 0x0 DUP1 PUSH2 0x100 EXP DUP2 SLOAD DUP2 PUSH20 0xFFFFFFFFFFFFFFFFFFFFFFFFFFFFFFFFFFFFFFFF MUL NOT AND SWAP1 DUP4 PUSH20 0xFFFFFFFFFFFFFFFFFFFFFFFFFFFFFFFFFFFFFFFF AND MUL OR SWAP1 SSTORE POP POP PUSH2 0x1B3 JUMP JUMPDEST POP JUMP JUMPDEST PUSH1 0x0 DUP1 REVERT JUMPDEST PUSH1 0x0 PUSH20 0xFFFFFFFFFFFFFFFFFFFFFFFFFFFFFFFFFFFFFFFF DUP3 AND SWAP1 POP SWAP2 SWAP1 POP JUMP JUMPDEST PUSH1 0x0 PUSH2 0x141 DUP3 PUSH2 0x116 JUMP JUMPDEST SWAP1 POP SWAP2 SWAP1 POP JUMP JUMPDEST PUSH1 0x0 PUSH2 0x153 DUP3 PUSH2 0x136 JUMP JUMPDEST SWAP1 POP SWAP2 SWAP1 POP JUMP JUMPDEST PUSH2 0x163 DUP2 PUSH2 0x148 JUMP JUMPDEST DUP2 EQ PUSH2 0x16E JUMPI PUSH1 0x0 DUP1 REVERT JUMPDEST POP JUMP JUMPDEST PUSH1 0x0 DUP2 MLOAD SWAP1 POP PUSH2 0x180 DUP2 PUSH2 0x15A JUMP JUMPDEST SWAP3 SWAP2 POP POP JUMP JUMPDEST PUSH1 0x0 PUSH1 0x20 DUP3 DUP5 SUB SLT ISZERO PUSH2 0x19C JUMPI PUSH2 0x19B PUSH2 0x111 JUMP JUMPDEST JUMPDEST PUSH1 0x0 PUSH2 0x1AA DUP5 DUP3 DUP6 ADD PUSH2 0x171 JUMP JUMPDEST SWAP2 POP POP SWAP3 SWAP2 POP POP JUMP JUMPDEST PUSH2 0x695 DUP1 PUSH2 0x1C2 PUSH1 0x0 CODECOPY PUSH1 0x0 RETURN INVALID PUSH1 0x80 PUSH1 0x40 MSTORE PUSH1 0x4 CALLDATASIZE LT PUSH2 0x1E JUMPI PUSH1 0x0 CALLDATALOAD PUSH1 0xE0 SHR DUP1 PUSH4 0xEB4C968D EQ PUSH2 0x23 JUMPI JUMPDEST PUSH1 0x0 DUP1 REVERT JUMPDEST PUSH2 0x2B PUSH2 0x2D JUMP JUMPDEST STOP JUMPDEST PUSH2 0x59 PUSH32 0xECE90110BCF16F486DF94AACE76E27EAB0BD9DDDFC32CE62707167594482986D PUSH1 0x0 SHL PUSH2 0x3F6 JUMP JUMPDEST PUSH2 0x85 PUSH32 0x986280A2BBFF9DFD4FD00C572891F550346A5E0BAC432FF2EA698974F0227F03 PUSH1 0x0 SHL PUSH2 0x3F6 JUMP JUMPDEST PUSH2 0xB1 PUSH32 0x1F849DEE5F0BDC6B0C3588F7BABB1943211A7E1F2822065095221ABC4085CA72 PUSH1 0x0 SHL PUSH2 0x3F6 JUMP JUMPDEST PUSH2 0xDD PUSH32 0x6D4312BC30078A4A341E052464B63118F598C709C592E0F267AAC056110F900B PUSH1 0x0 SHL PUSH2 0x3F6 JUMP JUMPDEST PUSH1 0x0 DUP1 SLOAD SWAP1 PUSH2 0x100 EXP SWAP1 DIV PUSH20 0xFFFFFFFFFFFFFFFFFFFFFFFFFFFFFFFFFFFFFFFF AND PUSH20 0xFFFFFFFFFFFFFFFFFFFFFFFFFFFFFFFFFFFFFFFF AND PUSH4 0xB9DBF3D1 PUSH1 0x24 PUSH1 0x40 MLOAD DUP3 PUSH4 0xFFFFFFFF AND PUSH1 0xE0 SHL DUP2 MSTORE PUSH1 0x4 ADD PUSH2 0x137 SWAP2 SWAP1 PUSH2 0x448 JUMP JUMPDEST PUSH1 0x20 PUSH1 0x40 MLOAD DUP1 DUP4 SUB DUP2 DUP7 GAS STATICCALL ISZERO DUP1 ISZERO PUSH2 0x154 JUMPI RETURNDATASIZE PUSH1 0x0 DUP1 RETURNDATACOPY RETURNDATASIZE PUSH1 0x0 REVERT JUMPDEST POP POP POP POP PUSH1 0x40 MLOAD RETURNDATASIZE PUSH1 0x1F NOT PUSH1 0x1F DUP3 ADD AND DUP3 ADD DUP1 PUSH1 0x40 MSTORE POP DUP2 ADD SWAP1 PUSH2 0x178 SWAP2 SWAP1 PUSH2 0x494 JUMP JUMPDEST CALLVALUE EQ PUSH2 0x1B9 JUMPI PUSH1 0x40 MLOAD PUSH32 0x8C379A000000000000000000000000000000000000000000000000000000000 DUP2 MSTORE PUSH1 0x4 ADD PUSH2 0x1B0 SWAP1 PUSH2 0x51E JUMP JUMPDEST PUSH1 0x40 MLOAD DUP1 SWAP2 SUB SWAP1 REVERT JUMPDEST PUSH2 0x1E5 PUSH32 0x960BD2359EF06470DC92F1B09F3538BEB4A07A7BF60691631AF9F8F49165714B PUSH1 0x0 SHL PUSH2 0x3F6 JUMP JUMPDEST PUSH2 0x211 PUSH32 0xB807C173C810E693D1FE8447EC44EBE3835AA179E05BAD05F49324C0748D42CC PUSH1 0x0 SHL PUSH2 0x3F6 JUMP JUMPDEST PUSH2 0x23D PUSH32 0xEAF9D99B407950E99912BB11F7168B59FE02D2BCA181779D6A98A559AC50F41D PUSH1 0x0 SHL PUSH2 0x3F6 JUMP JUMPDEST PUSH1 0x0 JUMPDEST PUSH1 0x8 DUP2 LT ISZERO PUSH2 0x3F3 JUMPI PUSH2 0x275 PUSH32 0xDBED67217A4C54F05A342104EB8077C4E6F7E7B8B6782CA1C9E991965F92B258 PUSH1 0x0 SHL PUSH2 0x3F6 JUMP JUMPDEST PUSH2 0x2A1 PUSH32 0x90D8A35DD74EAF2CC70C29E85EEC7A6217EA76FB2DB18DAFD1BF32B2455F2E23 PUSH1 0x0 SHL PUSH2 0x3F6 JUMP JUMPDEST PUSH1 0x0 DUP1 SLOAD SWAP1 PUSH2 0x100 EXP SWAP1 DIV PUSH20 0xFFFFFFFFFFFFFFFFFFFFFFFFFFFFFFFFFFFFFFFF AND PUSH20 0xFFFFFFFFFFFFFFFFFFFFFFFFFFFFFFFFFFFFFFFF AND PUSH4 0x494762F6 PUSH1 0x0 DUP1 SLOAD SWAP1 PUSH2 0x100 EXP SWAP1 DIV PUSH20 0xFFFFFFFFFFFFFFFFFFFFFFFFFFFFFFFFFFFFFFFF AND PUSH20 0xFFFFFFFFFFFFFFFFFFFFFFFFFFFFFFFFFFFFFFFF AND PUSH4 0xB9DBF3D1 PUSH1 0x1 DUP6 PUSH2 0x326 SWAP2 SWAP1 PUSH2 0x56D JUMP JUMPDEST PUSH1 0x40 MLOAD DUP3 PUSH4 0xFFFFFFFF AND PUSH1 0xE0 SHL DUP2 MSTORE PUSH1 0x4 ADD PUSH2 0x342 SWAP2 SWAP1 PUSH2 0x5D2 JUMP JUMPDEST PUSH1 0x20 PUSH1 0x40 MLOAD DUP1 DUP4 SUB DUP2 DUP7 GAS STATICCALL ISZERO DUP1 ISZERO PUSH2 0x35F JUMPI RETURNDATASIZE PUSH1 0x0 DUP1 RETURNDATACOPY RETURNDATASIZE PUSH1 0x0 REVERT JUMPDEST POP POP POP POP PUSH1 0x40 MLOAD RETURNDATASIZE PUSH1 0x1F NOT PUSH1 0x1F DUP3 ADD AND DUP3 ADD DUP1 PUSH1 0x40 MSTORE POP DUP2 ADD SWAP1 PUSH2 0x383 SWAP2 SWAP1 PUSH2 0x494 JUMP JUMPDEST DUP4 PUSH1 0x1 DUP6 PUSH2 0x391 SWAP2 SWAP1 PUSH2 0x56D JUMP JUMPDEST PUSH1 0x40 MLOAD DUP5 PUSH4 0xFFFFFFFF AND PUSH1 0xE0 SHL DUP2 MSTORE PUSH1 0x4 ADD PUSH2 0x3AE SWAP3 SWAP2 SWAP1 PUSH2 0x5ED JUMP JUMPDEST PUSH1 0x0 PUSH1 0x40 MLOAD DUP1 DUP4 SUB DUP2 DUP6 DUP9 DUP1 EXTCODESIZE ISZERO DUP1 ISZERO PUSH2 0x3C7 JUMPI PUSH1 0x0 DUP1 REVERT JUMPDEST POP GAS CALL ISZERO DUP1 ISZERO PUSH2 0x3DB JUMPI RETURNDATASIZE PUSH1 0x0 DUP1 RETURNDATACOPY RETURNDATASIZE PUSH1 0x0 REVERT JUMPDEST POP POP POP POP POP DUP1 DUP1 PUSH2 0x3EB SWAP1 PUSH2 0x616 JUMP JUMPDEST SWAP2 POP POP PUSH2 0x240 JUMP JUMPDEST POP JUMP JUMPDEST POP JUMP JUMPDEST PUSH1 0x0 DUP2 SWAP1 POP SWAP2 SWAP1 POP JUMP JUMPDEST PUSH1 0x0 DUP2 SWAP1 POP SWAP2 SWAP1 POP JUMP JUMPDEST PUSH1 0x0 DUP2 SWAP1 POP SWAP2 SWAP1 POP JUMP JUMPDEST PUSH1 0x0 PUSH2 0x432 PUSH2 0x42D PUSH2 0x428 DUP5 PUSH2 0x3F9 JUMP JUMPDEST PUSH2 0x40D JUMP JUMPDEST PUSH2 0x403 JUMP JUMPDEST SWAP1 POP SWAP2 SWAP1 POP JUMP JUMPDEST PUSH2 0x442 DUP2 PUSH2 0x417 JUMP JUMPDEST DUP3 MSTORE POP POP JUMP JUMPDEST PUSH1 0x0 PUSH1 0x20 DUP3 ADD SWAP1 POP PUSH2 0x45D PUSH1 0x0 DUP4 ADD DUP5 PUSH2 0x439 JUMP JUMPDEST SWAP3 SWAP2 POP POP JUMP JUMPDEST PUSH1 0x0 DUP1 REVERT JUMPDEST PUSH2 0x471 DUP2 PUSH2 0x403 JUMP JUMPDEST DUP2 EQ PUSH2 0x47C JUMPI PUSH1 0x0 DUP1 REVERT JUMPDEST POP JUMP JUMPDEST PUSH1 0x0 DUP2 MLOAD SWAP1 POP PUSH2 0x48E DUP2 PUSH2 0x468 JUMP JUMPDEST SWAP3 SWAP2 POP POP JUMP JUMPDEST PUSH1 0x0 PUSH1 0x20 DUP3 DUP5 SUB SLT ISZERO PUSH2 0x4AA JUMPI PUSH2 0x4A9 PUSH2 0x463 JUMP JUMPDEST JUMPDEST PUSH1 0x0 PUSH2 0x4B8 DUP5 DUP3 DUP6 ADD PUSH2 0x47F JUMP JUMPDEST SWAP2 POP POP SWAP3 SWAP2 POP POP JUMP JUMPDEST PUSH1 0x0 DUP3 DUP3 MSTORE PUSH1 0x20 DUP3 ADD SWAP1 POP SWAP3 SWAP2 POP POP JUMP JUMPDEST PUSH32 0x4D5553545F484156455F4D53475F56414C55453D33362A4645452E0000000000 PUSH1 0x0 DUP3 ADD MSTORE POP JUMP JUMPDEST PUSH1 0x0 PUSH2 0x508 PUSH1 0x1B DUP4 PUSH2 0x4C1 JUMP JUMPDEST SWAP2 POP PUSH2 0x513 DUP3 PUSH2 0x4D2 JUMP JUMPDEST PUSH1 0x20 DUP3 ADD SWAP1 POP SWAP2 SWAP1 POP JUMP JUMPDEST PUSH1 0x0 PUSH1 0x20 DUP3 ADD SWAP1 POP DUP2 DUP2 SUB PUSH1 0x0 DUP4 ADD MSTORE PUSH2 0x537 DUP2 PUSH2 0x4FB JUMP JUMPDEST SWAP1 POP SWAP2 SWAP1 POP JUMP JUMPDEST PUSH32 0x4E487B7100000000000000000000000000000000000000000000000000000000 PUSH1 0x0 MSTORE PUSH1 0x11 PUSH1 0x4 MSTORE PUSH1 0x24 PUSH1 0x0 REVERT JUMPDEST PUSH1 0x0 PUSH2 0x578 DUP3 PUSH2 0x403 JUMP JUMPDEST SWAP2 POP PUSH2 0x583 DUP4 PUSH2 0x403 JUMP JUMPDEST SWAP3 POP DUP3 PUSH32 0xFFFFFFFFFFFFFFFFFFFFFFFFFFFFFFFFFFFFFFFFFFFFFFFFFFFFFFFFFFFFFFFF SUB DUP3 GT ISZERO PUSH2 0x5B8 JUMPI PUSH2 0x5B7 PUSH2 0x53E JUMP JUMPDEST JUMPDEST DUP3 DUP3 ADD SWAP1 POP SWAP3 SWAP2 POP POP JUMP JUMPDEST PUSH2 0x5CC DUP2 PUSH2 0x403 JUMP JUMPDEST DUP3 MSTORE POP POP JUMP JUMPDEST PUSH1 0x0 PUSH1 0x20 DUP3 ADD SWAP1 POP PUSH2 0x5E7 PUSH1 0x0 DUP4 ADD DUP5 PUSH2 0x5C3 JUMP JUMPDEST SWAP3 SWAP2 POP POP JUMP JUMPDEST PUSH1 0x0 PUSH1 0x40 DUP3 ADD SWAP1 POP PUSH2 0x602 PUSH1 0x0 DUP4 ADD DUP6 PUSH2 0x5C3 JUMP JUMPDEST PUSH2 0x60F PUSH1 0x20 DUP4 ADD DUP5 PUSH2 0x5C3 JUMP JUMPDEST SWAP4 SWAP3 POP POP POP JUMP JUMPDEST PUSH1 0x0 PUSH2 0x621 DUP3 PUSH2 0x403 JUMP JUMPDEST SWAP2 POP PUSH32 0xFFFFFFFFFFFFFFFFFFFFFFFFFFFFFFFFFFFFFFFFFFFFFFFFFFFFFFFFFFFFFFFF DUP3 EQ ISZERO PUSH2 0x654 JUMPI PUSH2 0x653 PUSH2 0x53E JUMP JUMPDEST JUMPDEST PUSH1 0x1 DUP3 ADD SWAP1 POP SWAP2 SWAP1 POP JUMP INVALID LOG2 PUSH5 0x6970667358 0x22 SLT KECCAK256 CALLDATALOAD SWAP4 PUSH25 0xC0584E4906BCB227F4B68EA270808B923F17DC76BF844904B7 0xE8 0xEB 0x27 0x28 PUSH5 0x736F6C6343 STOP ADDMOD 0xC STOP CALLER "
        },
        "methodIdentifiers": {
          "BuyTestEightMinuteCountdown()": "eb4c968d"
        }
      }
    }
  }
}