{
  "contracts/ElectricKeeperMockV24.sol": {
    "ElectricKeeperMock": {
      "abi": [
        {
          "inputs": [],
          "stateMutability": "nonpayable",
          "type": "constructor"
        },
        {
          "anonymous": false,
          "inputs": [],
          "name": "VoltageChange",
          "type": "event"
        },
        {
          "inputs": [
            {
              "internalType": "uint256",
              "name": "ledValue",
              "type": "uint256"
            },
            {
              "internalType": "uint256",
              "name": "minutesToHaveOn",
              "type": "uint256"
            }
          ],
          "name": "BuyElectricityTimeOn",
          "outputs": [],
          "stateMutability": "payable",
          "type": "function"
        },
        {
          "inputs": [
            {
              "internalType": "uint256",
              "name": "",
              "type": "uint256"
            }
          ],
          "name": "LED",
          "outputs": [
            {
              "internalType": "uint256",
              "name": "Voltage",
              "type": "uint256"
            },
            {
              "internalType": "uint256",
              "name": "ExpirationTimeUNIX",
              "type": "uint256"
            }
          ],
          "stateMutability": "view",
          "type": "function"
        },
        {
          "inputs": [],
          "name": "Owner",
          "outputs": [
            {
              "internalType": "address",
              "name": "",
              "type": "address"
            }
          ],
          "stateMutability": "view",
          "type": "function"
        },
        {
          "inputs": [
            {
              "internalType": "uint256",
              "name": "ledValue",
              "type": "uint256"
            }
          ],
          "name": "OwnerEmergencyDangerOff",
          "outputs": [],
          "stateMutability": "nonpayable",
          "type": "function"
        },
        {
          "inputs": [
            {
              "internalType": "uint256",
              "name": "ledValue",
              "type": "uint256"
            }
          ],
          "name": "OwnerEmergencySafeOn",
          "outputs": [],
          "stateMutability": "nonpayable",
          "type": "function"
        },
        {
          "inputs": [],
          "name": "OwnerManualExpirationOff",
          "outputs": [],
          "stateMutability": "nonpayable",
          "type": "function"
        },
        {
          "inputs": [],
          "name": "expirationOccured",
          "outputs": [
            {
              "internalType": "bool",
              "name": "",
              "type": "bool"
            }
          ],
          "stateMutability": "view",
          "type": "function"
        },
        {
          "inputs": [
            {
              "internalType": "uint256",
              "name": "scaleMinutes",
              "type": "uint256"
            }
          ],
          "name": "onePennyUSDinMatic",
          "outputs": [
            {
              "internalType": "uint256",
              "name": "",
              "type": "uint256"
            }
          ],
          "stateMutability": "view",
          "type": "function"
        }
      ],
      "evm": {
        "bytecode": {
          "linkReferences": {},
          "object": "60a06040523480156200001157600080fd5b50620000467fc819f0038973bae78711fb7bb6c1aa1f5e0e991f36d2164ac8e6999a036f431a60001b620000e860201b60201c565b6200007a7f679087c5ae345cdce74148dc4bc0f34606b00956f2742f9ec384b1200d732e1360001b620000e860201b60201c565b620000ae7f5289c70b00763e2ddf69a0d670f1a720c79d6397523da37b827885775daec57260001b620000e860201b60201c565b3373ffffffffffffffffffffffffffffffffffffffff1660808173ffffffffffffffffffffffffffffffffffffffff1681525050620000eb565b50565b608051612295620001236000396000818161028801528181610d30015281816110c6015281816116680152611b5a01526122956000f3fe60806040526004361061007b5760003560e01c8063979c22ce1161004e578063979c22ce1461011c5780639e476c2914610145578063b4a99a4e1461016e578063b9dbf3d1146101995761007b565b80630e2e1ff314610080578063494762f614610097578063571fcf0a146100b35780636bf93b66146100de575b600080fd5b34801561008c57600080fd5b506100956101d6565b005b6100b160048036038101906100ac9190611c5a565b610767565b005b3480156100bf57600080fd5b506100c8610d9a565b6040516100d59190611cb5565b60405180910390f35b3480156100ea57600080fd5b5061010560048036038101906101009190611cd0565b610ff0565b604051610113929190611d0c565b60405180910390f35b34801561012857600080fd5b50610143600480360381019061013e9190611cd0565b611014565b005b34801561015157600080fd5b5061016c60048036038101906101679190611cd0565b6115b6565b005b34801561017a57600080fd5b50610183611b58565b6040516101909190611d76565b60405180910390f35b3480156101a557600080fd5b506101c060048036038101906101bb9190611cd0565b611b7c565b6040516101cd9190611d91565b60405180910390f35b6102027ffe4df4fbaf70697950e61b0956a03752b8ee8f24d5f23956ec189584effee8d460001b611c1c565b61022e7ff0e80b394a320ad70f56425337fd17038d430e4a84dc68fd460744e57575bc7260001b611c1c565b61025a7f99e37d79cd35ad7f95d15583b2b6082049dbdbd4ba2c92e3b54df9b0fe7a0b7560001b611c1c565b6102867fe37de6dc9afbb06ed539592ee41fbeaf33f6de5c82ee31d88f2a87550602f45d60001b611c1c565b7f000000000000000000000000000000000000000000000000000000000000000073ffffffffffffffffffffffffffffffffffffffff163373ffffffffffffffffffffffffffffffffffffffff1614610314576040517f08c379a000000000000000000000000000000000000000000000000000000000815260040161030b90611e2f565b60405180910390fd5b6103407f13f8ccc6d9cb012e915b93e0708f03ccdae564dcf87735582dde0770adf8544560001b611c1c565b61036c7fb2945b3e127cb2477a12e9eafa9417c20945866e7ac29d8c166d7a0f21aa1c9660001b611c1c565b6103987f8f9380edf986e7531e077b854c864d29ff3281d9d69a3de4b0ed804abf9e126a60001b611c1c565b6103c47f3861ee96d6cb54802d8d06451dd93e7c857f079b025c2d2db102dc2bb2617b1560001b611c1c565b6103f07fe3f9de4a92c43b302ed1ac53680d191ffae88ddb2557917b2355f1b6d4f5e6bc60001b611c1c565b61041c7f2519a46fcc8fbf7da6b00ba5fe21503fbd817ee8c912ded19a46e9b3c29847d360001b611c1c565b610424610d9a565b610463576040517f08c379a000000000000000000000000000000000000000000000000000000000815260040161045a90611e9b565b60405180910390fd5b61048f7fb40ab7ab8df1a7632ce2435bb820887376fafc0081df72fcc34df6437aeff56f60001b611c1c565b6104bb7f0d6131c7ab7ef3afa7e1f46d146ceeaa922c3c0508d4dac0bd75d4958c7acf1b60001b611c1c565b6104e77f33e55e59fa4e9004170c3c7e21c2cc82a021acf2f985baa0f2e8f5a93b67044960001b611c1c565b60005b60088110156106e05761051f7fced65a335286ef56f5f891cc34f697d768ae84403a630ca8aea29141e48de7ae60001b611c1c565b61054b7f583a256bc84ad85b6eefe5d6a20dbbc30043386453ea56dcac91e67f59495f4660001b611c1c565b60016000808381526020019081526020016000206000015414801561058457506000808281526020019081526020016000206001015442115b156106a0576105b57f752467db0558971704c080489782e734aa2acd44c85e76edd5fabcc746db00fe60001b611c1c565b6105e17fa9ebdd78bd5457cfc7733221d44051c90c097ff083d4a1bce24dc3422d2eb71b60001b611c1c565b61060d7f5cd67fe3f5fc87dc1112f097ccd76ef4efc607748675589b66999a6fa683917960001b611c1c565b6000806000838152602001908152602001600020600001819055506106547fa65c7a799de2a3c5415790223c1cf5e3b56ea2fe7a696e1c500ede8cad5000fa60001b611c1c565b6106807f5b4eaf88ebebc41915be25f2fa6d74e54eba96026c3680084ecddd566523512060001b611c1c565b6000806000838152602001908152602001600020600101819055506106cd565b6106cc7fcd6dba1331176c2e6c87590e8356822c19c56e4f059d9e70e33d1510efe677cc60001b611c1c565b5b80806106d890611eea565b9150506104ea565b5061070d7f8a384ea9dd204c5f6dbc82ccc99dcb9e86d7214070e812d19541fa614b67848060001b611c1c565b6107397f5b83b7496e8f85da5950bf97f760ba98a3fd8703aa518ff4a91316dfa93ce0eb60001b611c1c565b7f72fdfd0f629c78d86d13a56ec6144a2c6a4904ad7de41d8089e90b00ff65a94a60405160405180910390a1565b816107947f8301963dd4d922c7f0f49fff9fcc40cee9c4fd5f211e5d11f03383f6664cd8b960001b611c1c565b6107c07f737674995c2f7a269512865052a581ff247d70d049fe079a87f72629e127fb6f60001b611c1c565b6107ec7ffdd1f8374aa8c433b231e8ee24e67e87f27473f9957df30bd8477a3d6339d49660001b611c1c565b6108187f981685f79fd472c17688b8c94b6a5bb9f7d84844380bc28110dfe5af61929d6360001b611c1c565b600081101580156108295750600881105b610868576040517f08c379a000000000000000000000000000000000000000000000000000000000815260040161085f90611fcb565b60405180910390fd5b6108947f8f346dfb9cbc6e01fe4ed74c4abaf358edd227a0b05ce6c0e909ec65f10fb24260001b611c1c565b6108c07f2fd260f9fb008973c165c4709fa0afc8020c4018a985e483331bf59f8e34fc9960001b611c1c565b6108ec7fe7a0d6b7ec0fb53e35bd18a1532b6cce61ed777b36f322c4c3e2ba911a86881560001b611c1c565b6109187fe8826aa7231c3a994273847e8a7b2b01dad5ef645f994627c80130c9edd70b8260001b611c1c565b6109447f5e2427083efff55b488521b3c313eebe56e6b00f8f167089357ade6f48841f8660001b611c1c565b6109707fdc9c94a2d25313642493f17f3880d0b79a9b0eae855fd411436d43c7529eccb460001b611c1c565b600082118015610987575061098482611b7c565b34145b6109c6576040517f08c379a00000000000000000000000000000000000000000000000000000000081526004016109bd9061205d565b60405180910390fd5b6109f27ff39c6d3768f612dd12a1d559731f11701af4d46c399a6183e130c2afd61edcee60001b611c1c565b610a1e7fb215a52528f877a59689631421e9c6b180dfe53cf499ea930511661bbea0623c60001b611c1c565b610a4a7f1b8d7b13a99b028900518b0e6f02639e2fb58210f34215f8af575434f9b65fb060001b611c1c565b6000806000858152602001908152602001600020600001541415610b9557610a947fe8ca38686a913738f8c24b714efb02766fda60108255385c7c4bc68e9e789af960001b611c1c565b610ac07f8fe3b1e5a09d6f2796bef794c754c976c643748f7f0ce9138898779747349a6860001b611c1c565b610aec7f331aa7f29ce87e88b516c6e5b0daece879ac12626e0f23080924fffd8518e6ad60001b611c1c565b600160008085815260200190815260200160002060000181905550610b337f122f9107b23fcf8df1b0f6807596ecba46dcdbe45515c92a4f353dbbe3cab34760001b611c1c565b610b5f7fb82a69cc5a3eaecd820f473fe9369121027f35940ec1eddf2796b4045c207be360001b611c1c565b81603c610b6c919061207d565b42610b7791906120d7565b60008085815260200190815260200160002060010181905550610c52565b610bc17f53d01cc20598f7a2f19304ca7b933aff744a88bd24fa70aa71cfa6e40488996760001b611c1c565b610bed7f6d9e507dadc917c73cb1a0c7c85e0699ec9d1138a600130f8b34ac6ce0354dfd60001b611c1c565b610c197f2b6caf26838430d0ba85c263935f7bc476e6350c8268b7414f9dc447eff908d760001b611c1c565b81603c610c26919061207d565b6000808581526020019081526020016000206001016000828254610c4a91906120d7565b925050819055505b610c7e7ff5fcdecd315fff6c254b6cc38337436a563b4d6a22d131f5ede4ba6fcc59ff4260001b611c1c565b610caa7ff0ad06de410961c8985135aa998c99c72114ee38f9679d49a0c80b7bd189bf7c60001b611c1c565b7f72fdfd0f629c78d86d13a56ec6144a2c6a4904ad7de41d8089e90b00ff65a94a60405160405180910390a1610d027fc598befe186843a507755f35248251cc3c57270dabc880f8f42befe911d350f960001b611c1c565b610d2e7f851c262cf938f627a929b005f3f1a778b8e5f41ba057cd389134d9a9c6cb8ea160001b611c1c565b7f000000000000000000000000000000000000000000000000000000000000000073ffffffffffffffffffffffffffffffffffffffff166108fc479081150290604051600060405180830381858888f19350505050158015610d94573d6000803e3d6000fd5b50505050565b6000610dc87f1efd43f9fc4bf2a2d33de4c1ef2b1d47afad85105b79b6ea3a83689ae9f4670860001b611c1c565b610df47fd768651dfa8e6c2426c7ba0b9d06d9f03b7e49b17fc9b31e8e9ccc4f0799948660001b611c1c565b610e207f6f6e31b1759799cf0583fa84df55abfde18fa663afb9fdc93c59b66efad08aaa60001b611c1c565b60005b6008811015610f8f57610e587fc8f219aee68119c35414851f4b9476b4d5707f48c2825239d6cab570746721a760001b611c1c565b610e847f57fb09091ac5e0a1f9ae9410cfa1ba174d2fb23091d35de3b288df215d306ba560001b611c1c565b600160008083815260200190815260200160002060000154148015610ebd57506000808281526020019081526020016000206001015442115b15610f5057610eee7fcb4622a65da322c799264c69c7fc2da1a308a5d83fd886f55e7295eabe201c1b60001b611c1c565b610f1a7f1673f3f6c1cde9f227e5e1b5da291c2425df4c6326e222f5e1e7af7c34253a0b60001b611c1c565b610f467ffbf59be165eedd04f328c6f11ef78ca16e2c9cd8f9e551aec9b115f4e7ba965b60001b611c1c565b6001915050610fed565b610f7c7fefa986668917b2205d990b75f95ab9ed1b34a2d091a36dfb002694f4cbe79c7160001b611c1c565b8080610f8790611eea565b915050610e23565b50610fbc7f614192831b59a9fc31f71b0d4648691c27689f4dcf1c9054f4a3713af306e9fb60001b611c1c565b610fe87fde7996e3b26280942919bd1e2ad8c008fa3a3bda9c3b62ceadb1f60ac8b8bc2060001b611c1c565b600090505b90565b60006020528060005260406000206000915090508060000154908060010154905082565b6110407ffe4df4fbaf70697950e61b0956a03752b8ee8f24d5f23956ec189584effee8d460001b611c1c565b61106c7ff0e80b394a320ad70f56425337fd17038d430e4a84dc68fd460744e57575bc7260001b611c1c565b6110987f99e37d79cd35ad7f95d15583b2b6082049dbdbd4ba2c92e3b54df9b0fe7a0b7560001b611c1c565b6110c47fe37de6dc9afbb06ed539592ee41fbeaf33f6de5c82ee31d88f2a87550602f45d60001b611c1c565b7f000000000000000000000000000000000000000000000000000000000000000073ffffffffffffffffffffffffffffffffffffffff163373ffffffffffffffffffffffffffffffffffffffff1614611152576040517f08c379a000000000000000000000000000000000000000000000000000000000815260040161114990611e2f565b60405180910390fd5b61117e7f13f8ccc6d9cb012e915b93e0708f03ccdae564dcf87735582dde0770adf8544560001b611c1c565b6111aa7fb2945b3e127cb2477a12e9eafa9417c20945866e7ac29d8c166d7a0f21aa1c9660001b611c1c565b806111d77f8301963dd4d922c7f0f49fff9fcc40cee9c4fd5f211e5d11f03383f6664cd8b960001b611c1c565b6112037f737674995c2f7a269512865052a581ff247d70d049fe079a87f72629e127fb6f60001b611c1c565b61122f7ffdd1f8374aa8c433b231e8ee24e67e87f27473f9957df30bd8477a3d6339d49660001b611c1c565b61125b7f981685f79fd472c17688b8c94b6a5bb9f7d84844380bc28110dfe5af61929d6360001b611c1c565b6000811015801561126c5750600881105b6112ab576040517f08c379a00000000000000000000000000000000000000000000000000000000081526004016112a290611fcb565b60405180910390fd5b6112d77f8f346dfb9cbc6e01fe4ed74c4abaf358edd227a0b05ce6c0e909ec65f10fb24260001b611c1c565b6113037f2fd260f9fb008973c165c4709fa0afc8020c4018a985e483331bf59f8e34fc9960001b611c1c565b61132f7fc9ee29c1aa1bae3ac533e5351fb5a80eb5233d8de11add7f1ed48dd85f462cd560001b611c1c565b61135b7f7d464f5ebe84b1a7e49c182413fa4fca40e188302666c7165d2d3f1e1d4fa60f60001b611c1c565b6113877fed3db62f08f9f2c2ff91786e979cbf9fc5b04cc6998fbbf462565bf8b76efb0660001b611c1c565b6113b37f228c1c4c7c5133a07c1a9a517ecf05f0befbb3be6b1b4c584442b3ee3f48589760001b611c1c565b6001600080848152602001908152602001600020600001541461140b576040517f08c379a000000000000000000000000000000000000000000000000000000000815260040161140290612179565b60405180910390fd5b6114377fcd926bb88301cd8fb38f93b3d6ffa4e6d6bb258bbd1ce68bb25bc7f57a851c5e60001b611c1c565b6114637fe8aa451bac78be2070d1d6229a980da8fbf546734c053df54a39ad5e77e83bda60001b611c1c565b61148f7ff176de6e02d5bfed009226fb9796b69ea866eb59afb1d5f5b16e19027b51f49b60001b611c1c565b6002600080848152602001908152602001600020600001819055506114d67fff47c33e8b9b3445a847b58edc43d4f6996647fc2816075de9be949dda6a4f7860001b611c1c565b6115027fe44b67800e45ad0c40b97c04fccc49df8cc39ddc42ba3cf2d302daf716343f8360001b611c1c565b4260008084815260200190815260200160002060010160008282546115279190612199565b9250508190555061155a7f3890508c1f57df690057ef0e404700b4f5260e414701da5daddcbd7c6165666d60001b611c1c565b6115867fa549b8272c1a45016fd45744fa7f5ae61822bfc9a0e2c33a9ad3048a843c2b0060001b611c1c565b7f72fdfd0f629c78d86d13a56ec6144a2c6a4904ad7de41d8089e90b00ff65a94a60405160405180910390a15050565b6115e27ffe4df4fbaf70697950e61b0956a03752b8ee8f24d5f23956ec189584effee8d460001b611c1c565b61160e7ff0e80b394a320ad70f56425337fd17038d430e4a84dc68fd460744e57575bc7260001b611c1c565b61163a7f99e37d79cd35ad7f95d15583b2b6082049dbdbd4ba2c92e3b54df9b0fe7a0b7560001b611c1c565b6116667fe37de6dc9afbb06ed539592ee41fbeaf33f6de5c82ee31d88f2a87550602f45d60001b611c1c565b7f000000000000000000000000000000000000000000000000000000000000000073ffffffffffffffffffffffffffffffffffffffff163373ffffffffffffffffffffffffffffffffffffffff16146116f4576040517f08c379a00000000000000000000000000000000000000000000000000000000081526004016116eb90611e2f565b60405180910390fd5b6117207f13f8ccc6d9cb012e915b93e0708f03ccdae564dcf87735582dde0770adf8544560001b611c1c565b61174c7fb2945b3e127cb2477a12e9eafa9417c20945866e7ac29d8c166d7a0f21aa1c9660001b611c1c565b806117797f8301963dd4d922c7f0f49fff9fcc40cee9c4fd5f211e5d11f03383f6664cd8b960001b611c1c565b6117a57f737674995c2f7a269512865052a581ff247d70d049fe079a87f72629e127fb6f60001b611c1c565b6117d17ffdd1f8374aa8c433b231e8ee24e67e87f27473f9957df30bd8477a3d6339d49660001b611c1c565b6117fd7f981685f79fd472c17688b8c94b6a5bb9f7d84844380bc28110dfe5af61929d6360001b611c1c565b6000811015801561180e5750600881105b61184d576040517f08c379a000000000000000000000000000000000000000000000000000000000815260040161184490611fcb565b60405180910390fd5b6118797f8f346dfb9cbc6e01fe4ed74c4abaf358edd227a0b05ce6c0e909ec65f10fb24260001b611c1c565b6118a57f2fd260f9fb008973c165c4709fa0afc8020c4018a985e483331bf59f8e34fc9960001b611c1c565b6118d17fb3245ee4fb94e6e85d97ef2d516037b9a747ae9fa4d6bfc6bb0baa8131e3c7ac60001b611c1c565b6118fd7f69bacefb11496ce0ef84a9f1eabc0c9bb73bb1b7a33644d41cfc896f06e1c97160001b611c1c565b6119297f4b866208e87d3a0410e420ec0cef513e8a724b95211273bf95822e143dce166960001b611c1c565b6119557f0f41aa23395d230d8a518a83f8535cfb3617f16bd974bb0953b9aabe757ae60e60001b611c1c565b600260008084815260200190815260200160002060000154146119ad576040517f08c379a00000000000000000000000000000000000000000000000000000000081526004016119a49061223f565b60405180910390fd5b6119d97ffea88ddef8c620cc48420c50611f3d0f68d4141af4a18df252f4fe219bdd507860001b611c1c565b611a057fadf5ff9e941bc3191af6be69ce468355386c603e9e1d3575009ebfc989b4cfbf60001b611c1c565b611a317f6712241c3a3889292edffae538929a29c030ac8b70faa85359d6e6a29a63ae8260001b611c1c565b600160008084815260200190815260200160002060000181905550611a787f81f001ed9cdb1be8978e9bb569882d4afaf0368d122018b46fdca2335607741660001b611c1c565b611aa47f12f7f0ffe5bfe40a4b3a2c45c05f65f886a3fadb1fc9fb51a81dccaf4c28cc8760001b611c1c565b426000808481526020019081526020016000206001016000828254611ac991906120d7565b92505081905550611afc7f229f73aebb56bbcf6b5176787a4eadea7bb039a16e6fa5ce4a4ae90ff6a5f8d860001b611c1c565b611b287f99823dc3fd9fddf35ac00181ffaca31c84fb163a7d66bf6e9a3d2d31dbcdb5d460001b611c1c565b7f72fdfd0f629c78d86d13a56ec6144a2c6a4904ad7de41d8089e90b00ff65a94a60405160405180910390a15050565b7f000000000000000000000000000000000000000000000000000000000000000081565b6000611baa7f71304b1a33ff8abac4f4ff098bd73bb8ffb575b050df04475530a56010da503360001b611c1c565b611bd67fb46db4871e2e17c6e1417eedf86413c0b2ceb0335130c98e25d4418ae091fddf60001b611c1c565b611c027f4cf4345cc28d8880c212a1caee5859918af16dd1fb32105d5ebd0d067330d83e60001b611c1c565b6618de76816d800082611c15919061207d565b9050919050565b50565b600080fd5b6000819050919050565b611c3781611c24565b8114611c4257600080fd5b50565b600081359050611c5481611c2e565b92915050565b60008060408385031215611c7157611c70611c1f565b5b6000611c7f85828601611c45565b9250506020611c9085828601611c45565b9150509250929050565b60008115159050919050565b611caf81611c9a565b82525050565b6000602082019050611cca6000830184611ca6565b92915050565b600060208284031215611ce657611ce5611c1f565b5b6000611cf484828501611c45565b91505092915050565b611d0681611c24565b82525050565b6000604082019050611d216000830185611cfd565b611d2e6020830184611cfd565b9392505050565b600073ffffffffffffffffffffffffffffffffffffffff82169050919050565b6000611d6082611d35565b9050919050565b611d7081611d55565b82525050565b6000602082019050611d8b6000830184611d67565b92915050565b6000602082019050611da66000830184611cfd565b92915050565b600082825260208201905092915050565b7f4f4e4c595f4f574e45525f57414c4c45545f414444524553535f4841535f414360008201527f434553532e000000000000000000000000000000000000000000000000000000602082015250565b6000611e19602583611dac565b9150611e2482611dbd565b604082019050919050565b60006020820190508181036000830152611e4881611e0c565b9050919050565b7f4e4f5f45585049524154494f4e5f5945542e0000000000000000000000000000600082015250565b6000611e85601283611dac565b9150611e9082611e4f565b602082019050919050565b60006020820190508181036000830152611eb481611e78565b9050919050565b7f4e487b7100000000000000000000000000000000000000000000000000000000600052601160045260246000fd5b6000611ef582611c24565b91507fffffffffffffffffffffffffffffffffffffffffffffffffffffffffffffffff821415611f2857611f27611ebb565b5b600182019050919050565b7f4c45445f56414c5545535f5245445f305f424c55455f315f59454c4c4f575f3260008201527f5f475245454e5f335f505552504c455f345f4f52414e47455f355f50494e4b5f60208201527f365f57484954455f372e00000000000000000000000000000000000000000000604082015250565b6000611fb5604a83611dac565b9150611fc082611f33565b606082019050919050565b60006020820190508181036000830152611fe481611fa8565b9050919050565b7f4d5553545f484156455f4d494e555445535f475245415445525f5448414e5f3060008201527f5f414e445f4d53475f56414c55453d4d494e555445532a4645452e0000000000602082015250565b6000612047603b83611dac565b915061205282611feb565b604082019050919050565b600060208201905081810360008301526120768161203a565b9050919050565b600061208882611c24565b915061209383611c24565b9250817fffffffffffffffffffffffffffffffffffffffffffffffffffffffffffffffff04831182151516156120cc576120cb611ebb565b5b828202905092915050565b60006120e282611c24565b91506120ed83611c24565b9250827fffffffffffffffffffffffffffffffffffffffffffffffffffffffffffffffff0382111561212257612121611ebb565b5b828201905092915050565b7f564f4c544147455f4e4f545f4f4e2e0000000000000000000000000000000000600082015250565b6000612163600f83611dac565b915061216e8261212d565b602082019050919050565b6000602082019050818103600083015261219281612156565b9050919050565b60006121a482611c24565b91506121af83611c24565b9250828210156121c2576121c1611ebb565b5b828203905092915050565b7f564f4c544147455f4e4f545f494e5f454d455247454e43595f4f46465f53544160008201527f54452e0000000000000000000000000000000000000000000000000000000000602082015250565b6000612229602383611dac565b9150612234826121cd565b604082019050919050565b600060208201905081810360008301526122588161221c565b905091905056fea2646970667358221220b61aff23750158b7645d774ddaa104201c6902b0db5b9a6c0cde2e95a5df783764736f6c634300080c0033",
          "opcodes": "PUSH1 0xA0 PUSH1 0x40 MSTORE CALLVALUE DUP1 ISZERO PUSH3 0x11 JUMPI PUSH1 0x0 DUP1 REVERT JUMPDEST POP PUSH3 0x46 PUSH32 0xC819F0038973BAE78711FB7BB6C1AA1F5E0E991F36D2164AC8E6999A036F431A PUSH1 0x0 SHL PUSH3 0xE8 PUSH1 0x20 SHL PUSH1 0x20 SHR JUMP JUMPDEST PUSH3 0x7A PUSH32 0x679087C5AE345CDCE74148DC4BC0F34606B00956F2742F9EC384B1200D732E13 PUSH1 0x0 SHL PUSH3 0xE8 PUSH1 0x20 SHL PUSH1 0x20 SHR JUMP JUMPDEST PUSH3 0xAE PUSH32 0x5289C70B00763E2DDF69A0D670F1A720C79D6397523DA37B827885775DAEC572 PUSH1 0x0 SHL PUSH3 0xE8 PUSH1 0x20 SHL PUSH1 0x20 SHR JUMP JUMPDEST CALLER PUSH20 0xFFFFFFFFFFFFFFFFFFFFFFFFFFFFFFFFFFFFFFFF AND PUSH1 0x80 DUP2 PUSH20 0xFFFFFFFFFFFFFFFFFFFFFFFFFFFFFFFFFFFFFFFF AND DUP2 MSTORE POP POP PUSH3 0xEB JUMP JUMPDEST POP JUMP JUMPDEST PUSH1 0x80 MLOAD PUSH2 0x2295 PUSH3 0x123 PUSH1 0x0 CODECOPY PUSH1 0x0 DUP2 DUP2 PUSH2 0x288 ADD MSTORE DUP2 DUP2 PUSH2 0xD30 ADD MSTORE DUP2 DUP2 PUSH2 0x10C6 ADD MSTORE DUP2 DUP2 PUSH2 0x1668 ADD MSTORE PUSH2 0x1B5A ADD MSTORE PUSH2 0x2295 PUSH1 0x0 RETURN INVALID PUSH1 0x80 PUSH1 0x40 MSTORE PUSH1 0x4 CALLDATASIZE LT PUSH2 0x7B JUMPI PUSH1 0x0 CALLDATALOAD PUSH1 0xE0 SHR DUP1 PUSH4 0x979C22CE GT PUSH2 0x4E JUMPI DUP1 PUSH4 0x979C22CE EQ PUSH2 0x11C JUMPI DUP1 PUSH4 0x9E476C29 EQ PUSH2 0x145 JUMPI DUP1 PUSH4 0xB4A99A4E EQ PUSH2 0x16E JUMPI DUP1 PUSH4 0xB9DBF3D1 EQ PUSH2 0x199 JUMPI PUSH2 0x7B JUMP JUMPDEST DUP1 PUSH4 0xE2E1FF3 EQ PUSH2 0x80 JUMPI DUP1 PUSH4 0x494762F6 EQ PUSH2 0x97 JUMPI DUP1 PUSH4 0x571FCF0A EQ PUSH2 0xB3 JUMPI DUP1 PUSH4 0x6BF93B66 EQ PUSH2 0xDE JUMPI JUMPDEST PUSH1 0x0 DUP1 REVERT JUMPDEST CALLVALUE DUP1 ISZERO PUSH2 0x8C JUMPI PUSH1 0x0 DUP1 REVERT JUMPDEST POP PUSH2 0x95 PUSH2 0x1D6 JUMP JUMPDEST STOP JUMPDEST PUSH2 0xB1 PUSH1 0x4 DUP1 CALLDATASIZE SUB DUP2 ADD SWAP1 PUSH2 0xAC SWAP2 SWAP1 PUSH2 0x1C5A JUMP JUMPDEST PUSH2 0x767 JUMP JUMPDEST STOP JUMPDEST CALLVALUE DUP1 ISZERO PUSH2 0xBF JUMPI PUSH1 0x0 DUP1 REVERT JUMPDEST POP PUSH2 0xC8 PUSH2 0xD9A JUMP JUMPDEST PUSH1 0x40 MLOAD PUSH2 0xD5 SWAP2 SWAP1 PUSH2 0x1CB5 JUMP JUMPDEST PUSH1 0x40 MLOAD DUP1 SWAP2 SUB SWAP1 RETURN JUMPDEST CALLVALUE DUP1 ISZERO PUSH2 0xEA JUMPI PUSH1 0x0 DUP1 REVERT JUMPDEST POP PUSH2 0x105 PUSH1 0x4 DUP1 CALLDATASIZE SUB DUP2 ADD SWAP1 PUSH2 0x100 SWAP2 SWAP1 PUSH2 0x1CD0 JUMP JUMPDEST PUSH2 0xFF0 JUMP JUMPDEST PUSH1 0x40 MLOAD PUSH2 0x113 SWAP3 SWAP2 SWAP1 PUSH2 0x1D0C JUMP JUMPDEST PUSH1 0x40 MLOAD DUP1 SWAP2 SUB SWAP1 RETURN JUMPDEST CALLVALUE DUP1 ISZERO PUSH2 0x128 JUMPI PUSH1 0x0 DUP1 REVERT JUMPDEST POP PUSH2 0x143 PUSH1 0x4 DUP1 CALLDATASIZE SUB DUP2 ADD SWAP1 PUSH2 0x13E SWAP2 SWAP1 PUSH2 0x1CD0 JUMP JUMPDEST PUSH2 0x1014 JUMP JUMPDEST STOP JUMPDEST CALLVALUE DUP1 ISZERO PUSH2 0x151 JUMPI PUSH1 0x0 DUP1 REVERT JUMPDEST POP PUSH2 0x16C PUSH1 0x4 DUP1 CALLDATASIZE SUB DUP2 ADD SWAP1 PUSH2 0x167 SWAP2 SWAP1 PUSH2 0x1CD0 JUMP JUMPDEST PUSH2 0x15B6 JUMP JUMPDEST STOP JUMPDEST CALLVALUE DUP1 ISZERO PUSH2 0x17A JUMPI PUSH1 0x0 DUP1 REVERT JUMPDEST POP PUSH2 0x183 PUSH2 0x1B58 JUMP JUMPDEST PUSH1 0x40 MLOAD PUSH2 0x190 SWAP2 SWAP1 PUSH2 0x1D76 JUMP JUMPDEST PUSH1 0x40 MLOAD DUP1 SWAP2 SUB SWAP1 RETURN JUMPDEST CALLVALUE DUP1 ISZERO PUSH2 0x1A5 JUMPI PUSH1 0x0 DUP1 REVERT JUMPDEST POP PUSH2 0x1C0 PUSH1 0x4 DUP1 CALLDATASIZE SUB DUP2 ADD SWAP1 PUSH2 0x1BB SWAP2 SWAP1 PUSH2 0x1CD0 JUMP JUMPDEST PUSH2 0x1B7C JUMP JUMPDEST PUSH1 0x40 MLOAD PUSH2 0x1CD SWAP2 SWAP1 PUSH2 0x1D91 JUMP JUMPDEST PUSH1 0x40 MLOAD DUP1 SWAP2 SUB SWAP1 RETURN JUMPDEST PUSH2 0x202 PUSH32 0xFE4DF4FBAF70697950E61B0956A03752B8EE8F24D5F23956EC189584EFFEE8D4 PUSH1 0x0 SHL PUSH2 0x1C1C JUMP JUMPDEST PUSH2 0x22E PUSH32 0xF0E80B394A320AD70F56425337FD17038D430E4A84DC68FD460744E57575BC72 PUSH1 0x0 SHL PUSH2 0x1C1C JUMP JUMPDEST PUSH2 0x25A PUSH32 0x99E37D79CD35AD7F95D15583B2B6082049DBDBD4BA2C92E3B54DF9B0FE7A0B75 PUSH1 0x0 SHL PUSH2 0x1C1C JUMP JUMPDEST PUSH2 0x286 PUSH32 0xE37DE6DC9AFBB06ED539592EE41FBEAF33F6DE5C82EE31D88F2A87550602F45D PUSH1 0x0 SHL PUSH2 0x1C1C JUMP JUMPDEST PUSH32 0x0 PUSH20 0xFFFFFFFFFFFFFFFFFFFFFFFFFFFFFFFFFFFFFFFF AND CALLER PUSH20 0xFFFFFFFFFFFFFFFFFFFFFFFFFFFFFFFFFFFFFFFF AND EQ PUSH2 0x314 JUMPI PUSH1 0x40 MLOAD PUSH32 0x8C379A000000000000000000000000000000000000000000000000000000000 DUP2 MSTORE PUSH1 0x4 ADD PUSH2 0x30B SWAP1 PUSH2 0x1E2F JUMP JUMPDEST PUSH1 0x40 MLOAD DUP1 SWAP2 SUB SWAP1 REVERT JUMPDEST PUSH2 0x340 PUSH32 0x13F8CCC6D9CB012E915B93E0708F03CCDAE564DCF87735582DDE0770ADF85445 PUSH1 0x0 SHL PUSH2 0x1C1C JUMP JUMPDEST PUSH2 0x36C PUSH32 0xB2945B3E127CB2477A12E9EAFA9417C20945866E7AC29D8C166D7A0F21AA1C96 PUSH1 0x0 SHL PUSH2 0x1C1C JUMP JUMPDEST PUSH2 0x398 PUSH32 0x8F9380EDF986E7531E077B854C864D29FF3281D9D69A3DE4B0ED804ABF9E126A PUSH1 0x0 SHL PUSH2 0x1C1C JUMP JUMPDEST PUSH2 0x3C4 PUSH32 0x3861EE96D6CB54802D8D06451DD93E7C857F079B025C2D2DB102DC2BB2617B15 PUSH1 0x0 SHL PUSH2 0x1C1C JUMP JUMPDEST PUSH2 0x3F0 PUSH32 0xE3F9DE4A92C43B302ED1AC53680D191FFAE88DDB2557917B2355F1B6D4F5E6BC PUSH1 0x0 SHL PUSH2 0x1C1C JUMP JUMPDEST PUSH2 0x41C PUSH32 0x2519A46FCC8FBF7DA6B00BA5FE21503FBD817EE8C912DED19A46E9B3C29847D3 PUSH1 0x0 SHL PUSH2 0x1C1C JUMP JUMPDEST PUSH2 0x424 PUSH2 0xD9A JUMP JUMPDEST PUSH2 0x463 JUMPI PUSH1 0x40 MLOAD PUSH32 0x8C379A000000000000000000000000000000000000000000000000000000000 DUP2 MSTORE PUSH1 0x4 ADD PUSH2 0x45A SWAP1 PUSH2 0x1E9B JUMP JUMPDEST PUSH1 0x40 MLOAD DUP1 SWAP2 SUB SWAP1 REVERT JUMPDEST PUSH2 0x48F PUSH32 0xB40AB7AB8DF1A7632CE2435BB820887376FAFC0081DF72FCC34DF6437AEFF56F PUSH1 0x0 SHL PUSH2 0x1C1C JUMP JUMPDEST PUSH2 0x4BB PUSH32 0xD6131C7AB7EF3AFA7E1F46D146CEEAA922C3C0508D4DAC0BD75D4958C7ACF1B PUSH1 0x0 SHL PUSH2 0x1C1C JUMP JUMPDEST PUSH2 0x4E7 PUSH32 0x33E55E59FA4E9004170C3C7E21C2CC82A021ACF2F985BAA0F2E8F5A93B670449 PUSH1 0x0 SHL PUSH2 0x1C1C JUMP JUMPDEST PUSH1 0x0 JUMPDEST PUSH1 0x8 DUP2 LT ISZERO PUSH2 0x6E0 JUMPI PUSH2 0x51F PUSH32 0xCED65A335286EF56F5F891CC34F697D768AE84403A630CA8AEA29141E48DE7AE PUSH1 0x0 SHL PUSH2 0x1C1C JUMP JUMPDEST PUSH2 0x54B PUSH32 0x583A256BC84AD85B6EEFE5D6A20DBBC30043386453EA56DCAC91E67F59495F46 PUSH1 0x0 SHL PUSH2 0x1C1C JUMP JUMPDEST PUSH1 0x1 PUSH1 0x0 DUP1 DUP4 DUP2 MSTORE PUSH1 0x20 ADD SWAP1 DUP2 MSTORE PUSH1 0x20 ADD PUSH1 0x0 KECCAK256 PUSH1 0x0 ADD SLOAD EQ DUP1 ISZERO PUSH2 0x584 JUMPI POP PUSH1 0x0 DUP1 DUP3 DUP2 MSTORE PUSH1 0x20 ADD SWAP1 DUP2 MSTORE PUSH1 0x20 ADD PUSH1 0x0 KECCAK256 PUSH1 0x1 ADD SLOAD TIMESTAMP GT JUMPDEST ISZERO PUSH2 0x6A0 JUMPI PUSH2 0x5B5 PUSH32 0x752467DB0558971704C080489782E734AA2ACD44C85E76EDD5FABCC746DB00FE PUSH1 0x0 SHL PUSH2 0x1C1C JUMP JUMPDEST PUSH2 0x5E1 PUSH32 0xA9EBDD78BD5457CFC7733221D44051C90C097FF083D4A1BCE24DC3422D2EB71B PUSH1 0x0 SHL PUSH2 0x1C1C JUMP JUMPDEST PUSH2 0x60D PUSH32 0x5CD67FE3F5FC87DC1112F097CCD76EF4EFC607748675589B66999A6FA6839179 PUSH1 0x0 SHL PUSH2 0x1C1C JUMP JUMPDEST PUSH1 0x0 DUP1 PUSH1 0x0 DUP4 DUP2 MSTORE PUSH1 0x20 ADD SWAP1 DUP2 MSTORE PUSH1 0x20 ADD PUSH1 0x0 KECCAK256 PUSH1 0x0 ADD DUP2 SWAP1 SSTORE POP PUSH2 0x654 PUSH32 0xA65C7A799DE2A3C5415790223C1CF5E3B56EA2FE7A696E1C500EDE8CAD5000FA PUSH1 0x0 SHL PUSH2 0x1C1C JUMP JUMPDEST PUSH2 0x680 PUSH32 0x5B4EAF88EBEBC41915BE25F2FA6D74E54EBA96026C3680084ECDDD5665235120 PUSH1 0x0 SHL PUSH2 0x1C1C JUMP JUMPDEST PUSH1 0x0 DUP1 PUSH1 0x0 DUP4 DUP2 MSTORE PUSH1 0x20 ADD SWAP1 DUP2 MSTORE PUSH1 0x20 ADD PUSH1 0x0 KECCAK256 PUSH1 0x1 ADD DUP2 SWAP1 SSTORE POP PUSH2 0x6CD JUMP JUMPDEST PUSH2 0x6CC PUSH32 0xCD6DBA1331176C2E6C87590E8356822C19C56E4F059D9E70E33D1510EFE677CC PUSH1 0x0 SHL PUSH2 0x1C1C JUMP JUMPDEST JUMPDEST DUP1 DUP1 PUSH2 0x6D8 SWAP1 PUSH2 0x1EEA JUMP JUMPDEST SWAP2 POP POP PUSH2 0x4EA JUMP JUMPDEST POP PUSH2 0x70D PUSH32 0x8A384EA9DD204C5F6DBC82CCC99DCB9E86D7214070E812D19541FA614B678480 PUSH1 0x0 SHL PUSH2 0x1C1C JUMP JUMPDEST PUSH2 0x739 PUSH32 0x5B83B7496E8F85DA5950BF97F760BA98A3FD8703AA518FF4A91316DFA93CE0EB PUSH1 0x0 SHL PUSH2 0x1C1C JUMP JUMPDEST PUSH32 0x72FDFD0F629C78D86D13A56EC6144A2C6A4904AD7DE41D8089E90B00FF65A94A PUSH1 0x40 MLOAD PUSH1 0x40 MLOAD DUP1 SWAP2 SUB SWAP1 LOG1 JUMP JUMPDEST DUP2 PUSH2 0x794 PUSH32 0x8301963DD4D922C7F0F49FFF9FCC40CEE9C4FD5F211E5D11F03383F6664CD8B9 PUSH1 0x0 SHL PUSH2 0x1C1C JUMP JUMPDEST PUSH2 0x7C0 PUSH32 0x737674995C2F7A269512865052A581FF247D70D049FE079A87F72629E127FB6F PUSH1 0x0 SHL PUSH2 0x1C1C JUMP JUMPDEST PUSH2 0x7EC PUSH32 0xFDD1F8374AA8C433B231E8EE24E67E87F27473F9957DF30BD8477A3D6339D496 PUSH1 0x0 SHL PUSH2 0x1C1C JUMP JUMPDEST PUSH2 0x818 PUSH32 0x981685F79FD472C17688B8C94B6A5BB9F7D84844380BC28110DFE5AF61929D63 PUSH1 0x0 SHL PUSH2 0x1C1C JUMP JUMPDEST PUSH1 0x0 DUP2 LT ISZERO DUP1 ISZERO PUSH2 0x829 JUMPI POP PUSH1 0x8 DUP2 LT JUMPDEST PUSH2 0x868 JUMPI PUSH1 0x40 MLOAD PUSH32 0x8C379A000000000000000000000000000000000000000000000000000000000 DUP2 MSTORE PUSH1 0x4 ADD PUSH2 0x85F SWAP1 PUSH2 0x1FCB JUMP JUMPDEST PUSH1 0x40 MLOAD DUP1 SWAP2 SUB SWAP1 REVERT JUMPDEST PUSH2 0x894 PUSH32 0x8F346DFB9CBC6E01FE4ED74C4ABAF358EDD227A0B05CE6C0E909EC65F10FB242 PUSH1 0x0 SHL PUSH2 0x1C1C JUMP JUMPDEST PUSH2 0x8C0 PUSH32 0x2FD260F9FB008973C165C4709FA0AFC8020C4018A985E483331BF59F8E34FC99 PUSH1 0x0 SHL PUSH2 0x1C1C JUMP JUMPDEST PUSH2 0x8EC PUSH32 0xE7A0D6B7EC0FB53E35BD18A1532B6CCE61ED777B36F322C4C3E2BA911A868815 PUSH1 0x0 SHL PUSH2 0x1C1C JUMP JUMPDEST PUSH2 0x918 PUSH32 0xE8826AA7231C3A994273847E8A7B2B01DAD5EF645F994627C80130C9EDD70B82 PUSH1 0x0 SHL PUSH2 0x1C1C JUMP JUMPDEST PUSH2 0x944 PUSH32 0x5E2427083EFFF55B488521B3C313EEBE56E6B00F8F167089357ADE6F48841F86 PUSH1 0x0 SHL PUSH2 0x1C1C JUMP JUMPDEST PUSH2 0x970 PUSH32 0xDC9C94A2D25313642493F17F3880D0B79A9B0EAE855FD411436D43C7529ECCB4 PUSH1 0x0 SHL PUSH2 0x1C1C JUMP JUMPDEST PUSH1 0x0 DUP3 GT DUP1 ISZERO PUSH2 0x987 JUMPI POP PUSH2 0x984 DUP3 PUSH2 0x1B7C JUMP JUMPDEST CALLVALUE EQ JUMPDEST PUSH2 0x9C6 JUMPI PUSH1 0x40 MLOAD PUSH32 0x8C379A000000000000000000000000000000000000000000000000000000000 DUP2 MSTORE PUSH1 0x4 ADD PUSH2 0x9BD SWAP1 PUSH2 0x205D JUMP JUMPDEST PUSH1 0x40 MLOAD DUP1 SWAP2 SUB SWAP1 REVERT JUMPDEST PUSH2 0x9F2 PUSH32 0xF39C6D3768F612DD12A1D559731F11701AF4D46C399A6183E130C2AFD61EDCEE PUSH1 0x0 SHL PUSH2 0x1C1C JUMP JUMPDEST PUSH2 0xA1E PUSH32 0xB215A52528F877A59689631421E9C6B180DFE53CF499EA930511661BBEA0623C PUSH1 0x0 SHL PUSH2 0x1C1C JUMP JUMPDEST PUSH2 0xA4A PUSH32 0x1B8D7B13A99B028900518B0E6F02639E2FB58210F34215F8AF575434F9B65FB0 PUSH1 0x0 SHL PUSH2 0x1C1C JUMP JUMPDEST PUSH1 0x0 DUP1 PUSH1 0x0 DUP6 DUP2 MSTORE PUSH1 0x20 ADD SWAP1 DUP2 MSTORE PUSH1 0x20 ADD PUSH1 0x0 KECCAK256 PUSH1 0x0 ADD SLOAD EQ ISZERO PUSH2 0xB95 JUMPI PUSH2 0xA94 PUSH32 0xE8CA38686A913738F8C24B714EFB02766FDA60108255385C7C4BC68E9E789AF9 PUSH1 0x0 SHL PUSH2 0x1C1C JUMP JUMPDEST PUSH2 0xAC0 PUSH32 0x8FE3B1E5A09D6F2796BEF794C754C976C643748F7F0CE9138898779747349A68 PUSH1 0x0 SHL PUSH2 0x1C1C JUMP JUMPDEST PUSH2 0xAEC PUSH32 0x331AA7F29CE87E88B516C6E5B0DAECE879AC12626E0F23080924FFFD8518E6AD PUSH1 0x0 SHL PUSH2 0x1C1C JUMP JUMPDEST PUSH1 0x1 PUSH1 0x0 DUP1 DUP6 DUP2 MSTORE PUSH1 0x20 ADD SWAP1 DUP2 MSTORE PUSH1 0x20 ADD PUSH1 0x0 KECCAK256 PUSH1 0x0 ADD DUP2 SWAP1 SSTORE POP PUSH2 0xB33 PUSH32 0x122F9107B23FCF8DF1B0F6807596ECBA46DCDBE45515C92A4F353DBBE3CAB347 PUSH1 0x0 SHL PUSH2 0x1C1C JUMP JUMPDEST PUSH2 0xB5F PUSH32 0xB82A69CC5A3EAECD820F473FE9369121027F35940EC1EDDF2796B4045C207BE3 PUSH1 0x0 SHL PUSH2 0x1C1C JUMP JUMPDEST DUP2 PUSH1 0x3C PUSH2 0xB6C SWAP2 SWAP1 PUSH2 0x207D JUMP JUMPDEST TIMESTAMP PUSH2 0xB77 SWAP2 SWAP1 PUSH2 0x20D7 JUMP JUMPDEST PUSH1 0x0 DUP1 DUP6 DUP2 MSTORE PUSH1 0x20 ADD SWAP1 DUP2 MSTORE PUSH1 0x20 ADD PUSH1 0x0 KECCAK256 PUSH1 0x1 ADD DUP2 SWAP1 SSTORE POP PUSH2 0xC52 JUMP JUMPDEST PUSH2 0xBC1 PUSH32 0x53D01CC20598F7A2F19304CA7B933AFF744A88BD24FA70AA71CFA6E404889967 PUSH1 0x0 SHL PUSH2 0x1C1C JUMP JUMPDEST PUSH2 0xBED PUSH32 0x6D9E507DADC917C73CB1A0C7C85E0699EC9D1138A600130F8B34AC6CE0354DFD PUSH1 0x0 SHL PUSH2 0x1C1C JUMP JUMPDEST PUSH2 0xC19 PUSH32 0x2B6CAF26838430D0BA85C263935F7BC476E6350C8268B7414F9DC447EFF908D7 PUSH1 0x0 SHL PUSH2 0x1C1C JUMP JUMPDEST DUP2 PUSH1 0x3C PUSH2 0xC26 SWAP2 SWAP1 PUSH2 0x207D JUMP JUMPDEST PUSH1 0x0 DUP1 DUP6 DUP2 MSTORE PUSH1 0x20 ADD SWAP1 DUP2 MSTORE PUSH1 0x20 ADD PUSH1 0x0 KECCAK256 PUSH1 0x1 ADD PUSH1 0x0 DUP3 DUP3 SLOAD PUSH2 0xC4A SWAP2 SWAP1 PUSH2 0x20D7 JUMP JUMPDEST SWAP3 POP POP DUP2 SWAP1 SSTORE POP JUMPDEST PUSH2 0xC7E PUSH32 0xF5FCDECD315FFF6C254B6CC38337436A563B4D6A22D131F5EDE4BA6FCC59FF42 PUSH1 0x0 SHL PUSH2 0x1C1C JUMP JUMPDEST PUSH2 0xCAA PUSH32 0xF0AD06DE410961C8985135AA998C99C72114EE38F9679D49A0C80B7BD189BF7C PUSH1 0x0 SHL PUSH2 0x1C1C JUMP JUMPDEST PUSH32 0x72FDFD0F629C78D86D13A56EC6144A2C6A4904AD7DE41D8089E90B00FF65A94A PUSH1 0x40 MLOAD PUSH1 0x40 MLOAD DUP1 SWAP2 SUB SWAP1 LOG1 PUSH2 0xD02 PUSH32 0xC598BEFE186843A507755F35248251CC3C57270DABC880F8F42BEFE911D350F9 PUSH1 0x0 SHL PUSH2 0x1C1C JUMP JUMPDEST PUSH2 0xD2E PUSH32 0x851C262CF938F627A929B005F3F1A778B8E5F41BA057CD389134D9A9C6CB8EA1 PUSH1 0x0 SHL PUSH2 0x1C1C JUMP JUMPDEST PUSH32 0x0 PUSH20 0xFFFFFFFFFFFFFFFFFFFFFFFFFFFFFFFFFFFFFFFF AND PUSH2 0x8FC SELFBALANCE SWAP1 DUP2 ISZERO MUL SWAP1 PUSH1 0x40 MLOAD PUSH1 0x0 PUSH1 0x40 MLOAD DUP1 DUP4 SUB DUP2 DUP6 DUP9 DUP9 CALL SWAP4 POP POP POP POP ISZERO DUP1 ISZERO PUSH2 0xD94 JUMPI RETURNDATASIZE PUSH1 0x0 DUP1 RETURNDATACOPY RETURNDATASIZE PUSH1 0x0 REVERT JUMPDEST POP POP POP POP JUMP JUMPDEST PUSH1 0x0 PUSH2 0xDC8 PUSH32 0x1EFD43F9FC4BF2A2D33DE4C1EF2B1D47AFAD85105B79B6EA3A83689AE9F46708 PUSH1 0x0 SHL PUSH2 0x1C1C JUMP JUMPDEST PUSH2 0xDF4 PUSH32 0xD768651DFA8E6C2426C7BA0B9D06D9F03B7E49B17FC9B31E8E9CCC4F07999486 PUSH1 0x0 SHL PUSH2 0x1C1C JUMP JUMPDEST PUSH2 0xE20 PUSH32 0x6F6E31B1759799CF0583FA84DF55ABFDE18FA663AFB9FDC93C59B66EFAD08AAA PUSH1 0x0 SHL PUSH2 0x1C1C JUMP JUMPDEST PUSH1 0x0 JUMPDEST PUSH1 0x8 DUP2 LT ISZERO PUSH2 0xF8F JUMPI PUSH2 0xE58 PUSH32 0xC8F219AEE68119C35414851F4B9476B4D5707F48C2825239D6CAB570746721A7 PUSH1 0x0 SHL PUSH2 0x1C1C JUMP JUMPDEST PUSH2 0xE84 PUSH32 0x57FB09091AC5E0A1F9AE9410CFA1BA174D2FB23091D35DE3B288DF215D306BA5 PUSH1 0x0 SHL PUSH2 0x1C1C JUMP JUMPDEST PUSH1 0x1 PUSH1 0x0 DUP1 DUP4 DUP2 MSTORE PUSH1 0x20 ADD SWAP1 DUP2 MSTORE PUSH1 0x20 ADD PUSH1 0x0 KECCAK256 PUSH1 0x0 ADD SLOAD EQ DUP1 ISZERO PUSH2 0xEBD JUMPI POP PUSH1 0x0 DUP1 DUP3 DUP2 MSTORE PUSH1 0x20 ADD SWAP1 DUP2 MSTORE PUSH1 0x20 ADD PUSH1 0x0 KECCAK256 PUSH1 0x1 ADD SLOAD TIMESTAMP GT JUMPDEST ISZERO PUSH2 0xF50 JUMPI PUSH2 0xEEE PUSH32 0xCB4622A65DA322C799264C69C7FC2DA1A308A5D83FD886F55E7295EABE201C1B PUSH1 0x0 SHL PUSH2 0x1C1C JUMP JUMPDEST PUSH2 0xF1A PUSH32 0x1673F3F6C1CDE9F227E5E1B5DA291C2425DF4C6326E222F5E1E7AF7C34253A0B PUSH1 0x0 SHL PUSH2 0x1C1C JUMP JUMPDEST PUSH2 0xF46 PUSH32 0xFBF59BE165EEDD04F328C6F11EF78CA16E2C9CD8F9E551AEC9B115F4E7BA965B PUSH1 0x0 SHL PUSH2 0x1C1C JUMP JUMPDEST PUSH1 0x1 SWAP2 POP POP PUSH2 0xFED JUMP JUMPDEST PUSH2 0xF7C PUSH32 0xEFA986668917B2205D990B75F95AB9ED1B34A2D091A36DFB002694F4CBE79C71 PUSH1 0x0 SHL PUSH2 0x1C1C JUMP JUMPDEST DUP1 DUP1 PUSH2 0xF87 SWAP1 PUSH2 0x1EEA JUMP JUMPDEST SWAP2 POP POP PUSH2 0xE23 JUMP JUMPDEST POP PUSH2 0xFBC PUSH32 0x614192831B59A9FC31F71B0D4648691C27689F4DCF1C9054F4A3713AF306E9FB PUSH1 0x0 SHL PUSH2 0x1C1C JUMP JUMPDEST PUSH2 0xFE8 PUSH32 0xDE7996E3B26280942919BD1E2AD8C008FA3A3BDA9C3B62CEADB1F60AC8B8BC20 PUSH1 0x0 SHL PUSH2 0x1C1C JUMP JUMPDEST PUSH1 0x0 SWAP1 POP JUMPDEST SWAP1 JUMP JUMPDEST PUSH1 0x0 PUSH1 0x20 MSTORE DUP1 PUSH1 0x0 MSTORE PUSH1 0x40 PUSH1 0x0 KECCAK256 PUSH1 0x0 SWAP2 POP SWAP1 POP DUP1 PUSH1 0x0 ADD SLOAD SWAP1 DUP1 PUSH1 0x1 ADD SLOAD SWAP1 POP DUP3 JUMP JUMPDEST PUSH2 0x1040 PUSH32 0xFE4DF4FBAF70697950E61B0956A03752B8EE8F24D5F23956EC189584EFFEE8D4 PUSH1 0x0 SHL PUSH2 0x1C1C JUMP JUMPDEST PUSH2 0x106C PUSH32 0xF0E80B394A320AD70F56425337FD17038D430E4A84DC68FD460744E57575BC72 PUSH1 0x0 SHL PUSH2 0x1C1C JUMP JUMPDEST PUSH2 0x1098 PUSH32 0x99E37D79CD35AD7F95D15583B2B6082049DBDBD4BA2C92E3B54DF9B0FE7A0B75 PUSH1 0x0 SHL PUSH2 0x1C1C JUMP JUMPDEST PUSH2 0x10C4 PUSH32 0xE37DE6DC9AFBB06ED539592EE41FBEAF33F6DE5C82EE31D88F2A87550602F45D PUSH1 0x0 SHL PUSH2 0x1C1C JUMP JUMPDEST PUSH32 0x0 PUSH20 0xFFFFFFFFFFFFFFFFFFFFFFFFFFFFFFFFFFFFFFFF AND CALLER PUSH20 0xFFFFFFFFFFFFFFFFFFFFFFFFFFFFFFFFFFFFFFFF AND EQ PUSH2 0x1152 JUMPI PUSH1 0x40 MLOAD PUSH32 0x8C379A000000000000000000000000000000000000000000000000000000000 DUP2 MSTORE PUSH1 0x4 ADD PUSH2 0x1149 SWAP1 PUSH2 0x1E2F JUMP JUMPDEST PUSH1 0x40 MLOAD DUP1 SWAP2 SUB SWAP1 REVERT JUMPDEST PUSH2 0x117E PUSH32 0x13F8CCC6D9CB012E915B93E0708F03CCDAE564DCF87735582DDE0770ADF85445 PUSH1 0x0 SHL PUSH2 0x1C1C JUMP JUMPDEST PUSH2 0x11AA PUSH32 0xB2945B3E127CB2477A12E9EAFA9417C20945866E7AC29D8C166D7A0F21AA1C96 PUSH1 0x0 SHL PUSH2 0x1C1C JUMP JUMPDEST DUP1 PUSH2 0x11D7 PUSH32 0x8301963DD4D922C7F0F49FFF9FCC40CEE9C4FD5F211E5D11F03383F6664CD8B9 PUSH1 0x0 SHL PUSH2 0x1C1C JUMP JUMPDEST PUSH2 0x1203 PUSH32 0x737674995C2F7A269512865052A581FF247D70D049FE079A87F72629E127FB6F PUSH1 0x0 SHL PUSH2 0x1C1C JUMP JUMPDEST PUSH2 0x122F PUSH32 0xFDD1F8374AA8C433B231E8EE24E67E87F27473F9957DF30BD8477A3D6339D496 PUSH1 0x0 SHL PUSH2 0x1C1C JUMP JUMPDEST PUSH2 0x125B PUSH32 0x981685F79FD472C17688B8C94B6A5BB9F7D84844380BC28110DFE5AF61929D63 PUSH1 0x0 SHL PUSH2 0x1C1C JUMP JUMPDEST PUSH1 0x0 DUP2 LT ISZERO DUP1 ISZERO PUSH2 0x126C JUMPI POP PUSH1 0x8 DUP2 LT JUMPDEST PUSH2 0x12AB JUMPI PUSH1 0x40 MLOAD PUSH32 0x8C379A000000000000000000000000000000000000000000000000000000000 DUP2 MSTORE PUSH1 0x4 ADD PUSH2 0x12A2 SWAP1 PUSH2 0x1FCB JUMP JUMPDEST PUSH1 0x40 MLOAD DUP1 SWAP2 SUB SWAP1 REVERT JUMPDEST PUSH2 0x12D7 PUSH32 0x8F346DFB9CBC6E01FE4ED74C4ABAF358EDD227A0B05CE6C0E909EC65F10FB242 PUSH1 0x0 SHL PUSH2 0x1C1C JUMP JUMPDEST PUSH2 0x1303 PUSH32 0x2FD260F9FB008973C165C4709FA0AFC8020C4018A985E483331BF59F8E34FC99 PUSH1 0x0 SHL PUSH2 0x1C1C JUMP JUMPDEST PUSH2 0x132F PUSH32 0xC9EE29C1AA1BAE3AC533E5351FB5A80EB5233D8DE11ADD7F1ED48DD85F462CD5 PUSH1 0x0 SHL PUSH2 0x1C1C JUMP JUMPDEST PUSH2 0x135B PUSH32 0x7D464F5EBE84B1A7E49C182413FA4FCA40E188302666C7165D2D3F1E1D4FA60F PUSH1 0x0 SHL PUSH2 0x1C1C JUMP JUMPDEST PUSH2 0x1387 PUSH32 0xED3DB62F08F9F2C2FF91786E979CBF9FC5B04CC6998FBBF462565BF8B76EFB06 PUSH1 0x0 SHL PUSH2 0x1C1C JUMP JUMPDEST PUSH2 0x13B3 PUSH32 0x228C1C4C7C5133A07C1A9A517ECF05F0BEFBB3BE6B1B4C584442B3EE3F485897 PUSH1 0x0 SHL PUSH2 0x1C1C JUMP JUMPDEST PUSH1 0x1 PUSH1 0x0 DUP1 DUP5 DUP2 MSTORE PUSH1 0x20 ADD SWAP1 DUP2 MSTORE PUSH1 0x20 ADD PUSH1 0x0 KECCAK256 PUSH1 0x0 ADD SLOAD EQ PUSH2 0x140B JUMPI PUSH1 0x40 MLOAD PUSH32 0x8C379A000000000000000000000000000000000000000000000000000000000 DUP2 MSTORE PUSH1 0x4 ADD PUSH2 0x1402 SWAP1 PUSH2 0x2179 JUMP JUMPDEST PUSH1 0x40 MLOAD DUP1 SWAP2 SUB SWAP1 REVERT JUMPDEST PUSH2 0x1437 PUSH32 0xCD926BB88301CD8FB38F93B3D6FFA4E6D6BB258BBD1CE68BB25BC7F57A851C5E PUSH1 0x0 SHL PUSH2 0x1C1C JUMP JUMPDEST PUSH2 0x1463 PUSH32 0xE8AA451BAC78BE2070D1D6229A980DA8FBF546734C053DF54A39AD5E77E83BDA PUSH1 0x0 SHL PUSH2 0x1C1C JUMP JUMPDEST PUSH2 0x148F PUSH32 0xF176DE6E02D5BFED009226FB9796B69EA866EB59AFB1D5F5B16E19027B51F49B PUSH1 0x0 SHL PUSH2 0x1C1C JUMP JUMPDEST PUSH1 0x2 PUSH1 0x0 DUP1 DUP5 DUP2 MSTORE PUSH1 0x20 ADD SWAP1 DUP2 MSTORE PUSH1 0x20 ADD PUSH1 0x0 KECCAK256 PUSH1 0x0 ADD DUP2 SWAP1 SSTORE POP PUSH2 0x14D6 PUSH32 0xFF47C33E8B9B3445A847B58EDC43D4F6996647FC2816075DE9BE949DDA6A4F78 PUSH1 0x0 SHL PUSH2 0x1C1C JUMP JUMPDEST PUSH2 0x1502 PUSH32 0xE44B67800E45AD0C40B97C04FCCC49DF8CC39DDC42BA3CF2D302DAF716343F83 PUSH1 0x0 SHL PUSH2 0x1C1C JUMP JUMPDEST TIMESTAMP PUSH1 0x0 DUP1 DUP5 DUP2 MSTORE PUSH1 0x20 ADD SWAP1 DUP2 MSTORE PUSH1 0x20 ADD PUSH1 0x0 KECCAK256 PUSH1 0x1 ADD PUSH1 0x0 DUP3 DUP3 SLOAD PUSH2 0x1527 SWAP2 SWAP1 PUSH2 0x2199 JUMP JUMPDEST SWAP3 POP POP DUP2 SWAP1 SSTORE POP PUSH2 0x155A PUSH32 0x3890508C1F57DF690057EF0E404700B4F5260E414701DA5DADDCBD7C6165666D PUSH1 0x0 SHL PUSH2 0x1C1C JUMP JUMPDEST PUSH2 0x1586 PUSH32 0xA549B8272C1A45016FD45744FA7F5AE61822BFC9A0E2C33A9AD3048A843C2B00 PUSH1 0x0 SHL PUSH2 0x1C1C JUMP JUMPDEST PUSH32 0x72FDFD0F629C78D86D13A56EC6144A2C6A4904AD7DE41D8089E90B00FF65A94A PUSH1 0x40 MLOAD PUSH1 0x40 MLOAD DUP1 SWAP2 SUB SWAP1 LOG1 POP POP JUMP JUMPDEST PUSH2 0x15E2 PUSH32 0xFE4DF4FBAF70697950E61B0956A03752B8EE8F24D5F23956EC189584EFFEE8D4 PUSH1 0x0 SHL PUSH2 0x1C1C JUMP JUMPDEST PUSH2 0x160E PUSH32 0xF0E80B394A320AD70F56425337FD17038D430E4A84DC68FD460744E57575BC72 PUSH1 0x0 SHL PUSH2 0x1C1C JUMP JUMPDEST PUSH2 0x163A PUSH32 0x99E37D79CD35AD7F95D15583B2B6082049DBDBD4BA2C92E3B54DF9B0FE7A0B75 PUSH1 0x0 SHL PUSH2 0x1C1C JUMP JUMPDEST PUSH2 0x1666 PUSH32 0xE37DE6DC9AFBB06ED539592EE41FBEAF33F6DE5C82EE31D88F2A87550602F45D PUSH1 0x0 SHL PUSH2 0x1C1C JUMP JUMPDEST PUSH32 0x0 PUSH20 0xFFFFFFFFFFFFFFFFFFFFFFFFFFFFFFFFFFFFFFFF AND CALLER PUSH20 0xFFFFFFFFFFFFFFFFFFFFFFFFFFFFFFFFFFFFFFFF AND EQ PUSH2 0x16F4 JUMPI PUSH1 0x40 MLOAD PUSH32 0x8C379A000000000000000000000000000000000000000000000000000000000 DUP2 MSTORE PUSH1 0x4 ADD PUSH2 0x16EB SWAP1 PUSH2 0x1E2F JUMP JUMPDEST PUSH1 0x40 MLOAD DUP1 SWAP2 SUB SWAP1 REVERT JUMPDEST PUSH2 0x1720 PUSH32 0x13F8CCC6D9CB012E915B93E0708F03CCDAE564DCF87735582DDE0770ADF85445 PUSH1 0x0 SHL PUSH2 0x1C1C JUMP JUMPDEST PUSH2 0x174C PUSH32 0xB2945B3E127CB2477A12E9EAFA9417C20945866E7AC29D8C166D7A0F21AA1C96 PUSH1 0x0 SHL PUSH2 0x1C1C JUMP JUMPDEST DUP1 PUSH2 0x1779 PUSH32 0x8301963DD4D922C7F0F49FFF9FCC40CEE9C4FD5F211E5D11F03383F6664CD8B9 PUSH1 0x0 SHL PUSH2 0x1C1C JUMP JUMPDEST PUSH2 0x17A5 PUSH32 0x737674995C2F7A269512865052A581FF247D70D049FE079A87F72629E127FB6F PUSH1 0x0 SHL PUSH2 0x1C1C JUMP JUMPDEST PUSH2 0x17D1 PUSH32 0xFDD1F8374AA8C433B231E8EE24E67E87F27473F9957DF30BD8477A3D6339D496 PUSH1 0x0 SHL PUSH2 0x1C1C JUMP JUMPDEST PUSH2 0x17FD PUSH32 0x981685F79FD472C17688B8C94B6A5BB9F7D84844380BC28110DFE5AF61929D63 PUSH1 0x0 SHL PUSH2 0x1C1C JUMP JUMPDEST PUSH1 0x0 DUP2 LT ISZERO DUP1 ISZERO PUSH2 0x180E JUMPI POP PUSH1 0x8 DUP2 LT JUMPDEST PUSH2 0x184D JUMPI PUSH1 0x40 MLOAD PUSH32 0x8C379A000000000000000000000000000000000000000000000000000000000 DUP2 MSTORE PUSH1 0x4 ADD PUSH2 0x1844 SWAP1 PUSH2 0x1FCB JUMP JUMPDEST PUSH1 0x40 MLOAD DUP1 SWAP2 SUB SWAP1 REVERT JUMPDEST PUSH2 0x1879 PUSH32 0x8F346DFB9CBC6E01FE4ED74C4ABAF358EDD227A0B05CE6C0E909EC65F10FB242 PUSH1 0x0 SHL PUSH2 0x1C1C JUMP JUMPDEST PUSH2 0x18A5 PUSH32 0x2FD260F9FB008973C165C4709FA0AFC8020C4018A985E483331BF59F8E34FC99 PUSH1 0x0 SHL PUSH2 0x1C1C JUMP JUMPDEST PUSH2 0x18D1 PUSH32 0xB3245EE4FB94E6E85D97EF2D516037B9A747AE9FA4D6BFC6BB0BAA8131E3C7AC PUSH1 0x0 SHL PUSH2 0x1C1C JUMP JUMPDEST PUSH2 0x18FD PUSH32 0x69BACEFB11496CE0EF84A9F1EABC0C9BB73BB1B7A33644D41CFC896F06E1C971 PUSH1 0x0 SHL PUSH2 0x1C1C JUMP JUMPDEST PUSH2 0x1929 PUSH32 0x4B866208E87D3A0410E420EC0CEF513E8A724B95211273BF95822E143DCE1669 PUSH1 0x0 SHL PUSH2 0x1C1C JUMP JUMPDEST PUSH2 0x1955 PUSH32 0xF41AA23395D230D8A518A83F8535CFB3617F16BD974BB0953B9AABE757AE60E PUSH1 0x0 SHL PUSH2 0x1C1C JUMP JUMPDEST PUSH1 0x2 PUSH1 0x0 DUP1 DUP5 DUP2 MSTORE PUSH1 0x20 ADD SWAP1 DUP2 MSTORE PUSH1 0x20 ADD PUSH1 0x0 KECCAK256 PUSH1 0x0 ADD SLOAD EQ PUSH2 0x19AD JUMPI PUSH1 0x40 MLOAD PUSH32 0x8C379A000000000000000000000000000000000000000000000000000000000 DUP2 MSTORE PUSH1 0x4 ADD PUSH2 0x19A4 SWAP1 PUSH2 0x223F JUMP JUMPDEST PUSH1 0x40 MLOAD DUP1 SWAP2 SUB SWAP1 REVERT JUMPDEST PUSH2 0x19D9 PUSH32 0xFEA88DDEF8C620CC48420C50611F3D0F68D4141AF4A18DF252F4FE219BDD5078 PUSH1 0x0 SHL PUSH2 0x1C1C JUMP JUMPDEST PUSH2 0x1A05 PUSH32 0xADF5FF9E941BC3191AF6BE69CE468355386C603E9E1D3575009EBFC989B4CFBF PUSH1 0x0 SHL PUSH2 0x1C1C JUMP JUMPDEST PUSH2 0x1A31 PUSH32 0x6712241C3A3889292EDFFAE538929A29C030AC8B70FAA85359D6E6A29A63AE82 PUSH1 0x0 SHL PUSH2 0x1C1C JUMP JUMPDEST PUSH1 0x1 PUSH1 0x0 DUP1 DUP5 DUP2 MSTORE PUSH1 0x20 ADD SWAP1 DUP2 MSTORE PUSH1 0x20 ADD PUSH1 0x0 KECCAK256 PUSH1 0x0 ADD DUP2 SWAP1 SSTORE POP PUSH2 0x1A78 PUSH32 0x81F001ED9CDB1BE8978E9BB569882D4AFAF0368D122018B46FDCA23356077416 PUSH1 0x0 SHL PUSH2 0x1C1C JUMP JUMPDEST PUSH2 0x1AA4 PUSH32 0x12F7F0FFE5BFE40A4B3A2C45C05F65F886A3FADB1FC9FB51A81DCCAF4C28CC87 PUSH1 0x0 SHL PUSH2 0x1C1C JUMP JUMPDEST TIMESTAMP PUSH1 0x0 DUP1 DUP5 DUP2 MSTORE PUSH1 0x20 ADD SWAP1 DUP2 MSTORE PUSH1 0x20 ADD PUSH1 0x0 KECCAK256 PUSH1 0x1 ADD PUSH1 0x0 DUP3 DUP3 SLOAD PUSH2 0x1AC9 SWAP2 SWAP1 PUSH2 0x20D7 JUMP JUMPDEST SWAP3 POP POP DUP2 SWAP1 SSTORE POP PUSH2 0x1AFC PUSH32 0x229F73AEBB56BBCF6B5176787A4EADEA7BB039A16E6FA5CE4A4AE90FF6A5F8D8 PUSH1 0x0 SHL PUSH2 0x1C1C JUMP JUMPDEST PUSH2 0x1B28 PUSH32 0x99823DC3FD9FDDF35AC00181FFACA31C84FB163A7D66BF6E9A3D2D31DBCDB5D4 PUSH1 0x0 SHL PUSH2 0x1C1C JUMP JUMPDEST PUSH32 0x72FDFD0F629C78D86D13A56EC6144A2C6A4904AD7DE41D8089E90B00FF65A94A PUSH1 0x40 MLOAD PUSH1 0x40 MLOAD DUP1 SWAP2 SUB SWAP1 LOG1 POP POP JUMP JUMPDEST PUSH32 0x0 DUP2 JUMP JUMPDEST PUSH1 0x0 PUSH2 0x1BAA PUSH32 0x71304B1A33FF8ABAC4F4FF098BD73BB8FFB575B050DF04475530A56010DA5033 PUSH1 0x0 SHL PUSH2 0x1C1C JUMP JUMPDEST PUSH2 0x1BD6 PUSH32 0xB46DB4871E2E17C6E1417EEDF86413C0B2CEB0335130C98E25D4418AE091FDDF PUSH1 0x0 SHL PUSH2 0x1C1C JUMP JUMPDEST PUSH2 0x1C02 PUSH32 0x4CF4345CC28D8880C212A1CAEE5859918AF16DD1FB32105D5EBD0D067330D83E PUSH1 0x0 SHL PUSH2 0x1C1C JUMP JUMPDEST PUSH7 0x18DE76816D8000 DUP3 PUSH2 0x1C15 SWAP2 SWAP1 PUSH2 0x207D JUMP JUMPDEST SWAP1 POP SWAP2 SWAP1 POP JUMP JUMPDEST POP JUMP JUMPDEST PUSH1 0x0 DUP1 REVERT JUMPDEST PUSH1 0x0 DUP2 SWAP1 POP SWAP2 SWAP1 POP JUMP JUMPDEST PUSH2 0x1C37 DUP2 PUSH2 0x1C24 JUMP JUMPDEST DUP2 EQ PUSH2 0x1C42 JUMPI PUSH1 0x0 DUP1 REVERT JUMPDEST POP JUMP JUMPDEST PUSH1 0x0 DUP2 CALLDATALOAD SWAP1 POP PUSH2 0x1C54 DUP2 PUSH2 0x1C2E JUMP JUMPDEST SWAP3 SWAP2 POP POP JUMP JUMPDEST PUSH1 0x0 DUP1 PUSH1 0x40 DUP4 DUP6 SUB SLT ISZERO PUSH2 0x1C71 JUMPI PUSH2 0x1C70 PUSH2 0x1C1F JUMP JUMPDEST JUMPDEST PUSH1 0x0 PUSH2 0x1C7F DUP6 DUP3 DUP7 ADD PUSH2 0x1C45 JUMP JUMPDEST SWAP3 POP POP PUSH1 0x20 PUSH2 0x1C90 DUP6 DUP3 DUP7 ADD PUSH2 0x1C45 JUMP JUMPDEST SWAP2 POP POP SWAP3 POP SWAP3 SWAP1 POP JUMP JUMPDEST PUSH1 0x0 DUP2 ISZERO ISZERO SWAP1 POP SWAP2 SWAP1 POP JUMP JUMPDEST PUSH2 0x1CAF DUP2 PUSH2 0x1C9A JUMP JUMPDEST DUP3 MSTORE POP POP JUMP JUMPDEST PUSH1 0x0 PUSH1 0x20 DUP3 ADD SWAP1 POP PUSH2 0x1CCA PUSH1 0x0 DUP4 ADD DUP5 PUSH2 0x1CA6 JUMP JUMPDEST SWAP3 SWAP2 POP POP JUMP JUMPDEST PUSH1 0x0 PUSH1 0x20 DUP3 DUP5 SUB SLT ISZERO PUSH2 0x1CE6 JUMPI PUSH2 0x1CE5 PUSH2 0x1C1F JUMP JUMPDEST JUMPDEST PUSH1 0x0 PUSH2 0x1CF4 DUP5 DUP3 DUP6 ADD PUSH2 0x1C45 JUMP JUMPDEST SWAP2 POP POP SWAP3 SWAP2 POP POP JUMP JUMPDEST PUSH2 0x1D06 DUP2 PUSH2 0x1C24 JUMP JUMPDEST DUP3 MSTORE POP POP JUMP JUMPDEST PUSH1 0x0 PUSH1 0x40 DUP3 ADD SWAP1 POP PUSH2 0x1D21 PUSH1 0x0 DUP4 ADD DUP6 PUSH2 0x1CFD JUMP JUMPDEST PUSH2 0x1D2E PUSH1 0x20 DUP4 ADD DUP5 PUSH2 0x1CFD JUMP JUMPDEST SWAP4 SWAP3 POP POP POP JUMP JUMPDEST PUSH1 0x0 PUSH20 0xFFFFFFFFFFFFFFFFFFFFFFFFFFFFFFFFFFFFFFFF DUP3 AND SWAP1 POP SWAP2 SWAP1 POP JUMP JUMPDEST PUSH1 0x0 PUSH2 0x1D60 DUP3 PUSH2 0x1D35 JUMP JUMPDEST SWAP1 POP SWAP2 SWAP1 POP JUMP JUMPDEST PUSH2 0x1D70 DUP2 PUSH2 0x1D55 JUMP JUMPDEST DUP3 MSTORE POP POP JUMP JUMPDEST PUSH1 0x0 PUSH1 0x20 DUP3 ADD SWAP1 POP PUSH2 0x1D8B PUSH1 0x0 DUP4 ADD DUP5 PUSH2 0x1D67 JUMP JUMPDEST SWAP3 SWAP2 POP POP JUMP JUMPDEST PUSH1 0x0 PUSH1 0x20 DUP3 ADD SWAP1 POP PUSH2 0x1DA6 PUSH1 0x0 DUP4 ADD DUP5 PUSH2 0x1CFD JUMP JUMPDEST SWAP3 SWAP2 POP POP JUMP JUMPDEST PUSH1 0x0 DUP3 DUP3 MSTORE PUSH1 0x20 DUP3 ADD SWAP1 POP SWAP3 SWAP2 POP POP JUMP JUMPDEST PUSH32 0x4F4E4C595F4F574E45525F57414C4C45545F414444524553535F4841535F4143 PUSH1 0x0 DUP3 ADD MSTORE PUSH32 0x434553532E000000000000000000000000000000000000000000000000000000 PUSH1 0x20 DUP3 ADD MSTORE POP JUMP JUMPDEST PUSH1 0x0 PUSH2 0x1E19 PUSH1 0x25 DUP4 PUSH2 0x1DAC JUMP JUMPDEST SWAP2 POP PUSH2 0x1E24 DUP3 PUSH2 0x1DBD JUMP JUMPDEST PUSH1 0x40 DUP3 ADD SWAP1 POP SWAP2 SWAP1 POP JUMP JUMPDEST PUSH1 0x0 PUSH1 0x20 DUP3 ADD SWAP1 POP DUP2 DUP2 SUB PUSH1 0x0 DUP4 ADD MSTORE PUSH2 0x1E48 DUP2 PUSH2 0x1E0C JUMP JUMPDEST SWAP1 POP SWAP2 SWAP1 POP JUMP JUMPDEST PUSH32 0x4E4F5F45585049524154494F4E5F5945542E0000000000000000000000000000 PUSH1 0x0 DUP3 ADD MSTORE POP JUMP JUMPDEST PUSH1 0x0 PUSH2 0x1E85 PUSH1 0x12 DUP4 PUSH2 0x1DAC JUMP JUMPDEST SWAP2 POP PUSH2 0x1E90 DUP3 PUSH2 0x1E4F JUMP JUMPDEST PUSH1 0x20 DUP3 ADD SWAP1 POP SWAP2 SWAP1 POP JUMP JUMPDEST PUSH1 0x0 PUSH1 0x20 DUP3 ADD SWAP1 POP DUP2 DUP2 SUB PUSH1 0x0 DUP4 ADD MSTORE PUSH2 0x1EB4 DUP2 PUSH2 0x1E78 JUMP JUMPDEST SWAP1 POP SWAP2 SWAP1 POP JUMP JUMPDEST PUSH32 0x4E487B7100000000000000000000000000000000000000000000000000000000 PUSH1 0x0 MSTORE PUSH1 0x11 PUSH1 0x4 MSTORE PUSH1 0x24 PUSH1 0x0 REVERT JUMPDEST PUSH1 0x0 PUSH2 0x1EF5 DUP3 PUSH2 0x1C24 JUMP JUMPDEST SWAP2 POP PUSH32 0xFFFFFFFFFFFFFFFFFFFFFFFFFFFFFFFFFFFFFFFFFFFFFFFFFFFFFFFFFFFFFFFF DUP3 EQ ISZERO PUSH2 0x1F28 JUMPI PUSH2 0x1F27 PUSH2 0x1EBB JUMP JUMPDEST JUMPDEST PUSH1 0x1 DUP3 ADD SWAP1 POP SWAP2 SWAP1 POP JUMP JUMPDEST PUSH32 0x4C45445F56414C5545535F5245445F305F424C55455F315F59454C4C4F575F32 PUSH1 0x0 DUP3 ADD MSTORE PUSH32 0x5F475245454E5F335F505552504C455F345F4F52414E47455F355F50494E4B5F PUSH1 0x20 DUP3 ADD MSTORE PUSH32 0x365F57484954455F372E00000000000000000000000000000000000000000000 PUSH1 0x40 DUP3 ADD MSTORE POP JUMP JUMPDEST PUSH1 0x0 PUSH2 0x1FB5 PUSH1 0x4A DUP4 PUSH2 0x1DAC JUMP JUMPDEST SWAP2 POP PUSH2 0x1FC0 DUP3 PUSH2 0x1F33 JUMP JUMPDEST PUSH1 0x60 DUP3 ADD SWAP1 POP SWAP2 SWAP1 POP JUMP JUMPDEST PUSH1 0x0 PUSH1 0x20 DUP3 ADD SWAP1 POP DUP2 DUP2 SUB PUSH1 0x0 DUP4 ADD MSTORE PUSH2 0x1FE4 DUP2 PUSH2 0x1FA8 JUMP JUMPDEST SWAP1 POP SWAP2 SWAP1 POP JUMP JUMPDEST PUSH32 0x4D5553545F484156455F4D494E555445535F475245415445525F5448414E5F30 PUSH1 0x0 DUP3 ADD MSTORE PUSH32 0x5F414E445F4D53475F56414C55453D4D494E555445532A4645452E0000000000 PUSH1 0x20 DUP3 ADD MSTORE POP JUMP JUMPDEST PUSH1 0x0 PUSH2 0x2047 PUSH1 0x3B DUP4 PUSH2 0x1DAC JUMP JUMPDEST SWAP2 POP PUSH2 0x2052 DUP3 PUSH2 0x1FEB JUMP JUMPDEST PUSH1 0x40 DUP3 ADD SWAP1 POP SWAP2 SWAP1 POP JUMP JUMPDEST PUSH1 0x0 PUSH1 0x20 DUP3 ADD SWAP1 POP DUP2 DUP2 SUB PUSH1 0x0 DUP4 ADD MSTORE PUSH2 0x2076 DUP2 PUSH2 0x203A JUMP JUMPDEST SWAP1 POP SWAP2 SWAP1 POP JUMP JUMPDEST PUSH1 0x0 PUSH2 0x2088 DUP3 PUSH2 0x1C24 JUMP JUMPDEST SWAP2 POP PUSH2 0x2093 DUP4 PUSH2 0x1C24 JUMP JUMPDEST SWAP3 POP DUP2 PUSH32 0xFFFFFFFFFFFFFFFFFFFFFFFFFFFFFFFFFFFFFFFFFFFFFFFFFFFFFFFFFFFFFFFF DIV DUP4 GT DUP3 ISZERO ISZERO AND ISZERO PUSH2 0x20CC JUMPI PUSH2 0x20CB PUSH2 0x1EBB JUMP JUMPDEST JUMPDEST DUP3 DUP3 MUL SWAP1 POP SWAP3 SWAP2 POP POP JUMP JUMPDEST PUSH1 0x0 PUSH2 0x20E2 DUP3 PUSH2 0x1C24 JUMP JUMPDEST SWAP2 POP PUSH2 0x20ED DUP4 PUSH2 0x1C24 JUMP JUMPDEST SWAP3 POP DUP3 PUSH32 0xFFFFFFFFFFFFFFFFFFFFFFFFFFFFFFFFFFFFFFFFFFFFFFFFFFFFFFFFFFFFFFFF SUB DUP3 GT ISZERO PUSH2 0x2122 JUMPI PUSH2 0x2121 PUSH2 0x1EBB JUMP JUMPDEST JUMPDEST DUP3 DUP3 ADD SWAP1 POP SWAP3 SWAP2 POP POP JUMP JUMPDEST PUSH32 0x564F4C544147455F4E4F545F4F4E2E0000000000000000000000000000000000 PUSH1 0x0 DUP3 ADD MSTORE POP JUMP JUMPDEST PUSH1 0x0 PUSH2 0x2163 PUSH1 0xF DUP4 PUSH2 0x1DAC JUMP JUMPDEST SWAP2 POP PUSH2 0x216E DUP3 PUSH2 0x212D JUMP JUMPDEST PUSH1 0x20 DUP3 ADD SWAP1 POP SWAP2 SWAP1 POP JUMP JUMPDEST PUSH1 0x0 PUSH1 0x20 DUP3 ADD SWAP1 POP DUP2 DUP2 SUB PUSH1 0x0 DUP4 ADD MSTORE PUSH2 0x2192 DUP2 PUSH2 0x2156 JUMP JUMPDEST SWAP1 POP SWAP2 SWAP1 POP JUMP JUMPDEST PUSH1 0x0 PUSH2 0x21A4 DUP3 PUSH2 0x1C24 JUMP JUMPDEST SWAP2 POP PUSH2 0x21AF DUP4 PUSH2 0x1C24 JUMP JUMPDEST SWAP3 POP DUP3 DUP3 LT ISZERO PUSH2 0x21C2 JUMPI PUSH2 0x21C1 PUSH2 0x1EBB JUMP JUMPDEST JUMPDEST DUP3 DUP3 SUB SWAP1 POP SWAP3 SWAP2 POP POP JUMP JUMPDEST PUSH32 0x564F4C544147455F4E4F545F494E5F454D455247454E43595F4F46465F535441 PUSH1 0x0 DUP3 ADD MSTORE PUSH32 0x54452E0000000000000000000000000000000000000000000000000000000000 PUSH1 0x20 DUP3 ADD MSTORE POP JUMP JUMPDEST PUSH1 0x0 PUSH2 0x2229 PUSH1 0x23 DUP4 PUSH2 0x1DAC JUMP JUMPDEST SWAP2 POP PUSH2 0x2234 DUP3 PUSH2 0x21CD JUMP JUMPDEST PUSH1 0x40 DUP3 ADD SWAP1 POP SWAP2 SWAP1 POP JUMP JUMPDEST PUSH1 0x0 PUSH1 0x20 DUP3 ADD SWAP1 POP DUP2 DUP2 SUB PUSH1 0x0 DUP4 ADD MSTORE PUSH2 0x2258 DUP2 PUSH2 0x221C JUMP JUMPDEST SWAP1 POP SWAP2 SWAP1 POP JUMP INVALID LOG2 PUSH5 0x6970667358 0x22 SLT KECCAK256 0xB6 BYTE SELFDESTRUCT 0x23 PUSH22 0x158B7645D774DDAA104201C6902B0DB5B9A6C0CDE2E SWAP6 0xA5 0xDF PUSH25 0x3764736F6C634300080C003300000000000000000000000000 "
        },
        "methodIdentifiers": {
          "BuyElectricityTimeOn(uint256,uint256)": "494762f6",
          "LED(uint256)": "6bf93b66",
          "Owner()": "b4a99a4e",
          "OwnerEmergencyDangerOff(uint256)": "979c22ce",
          "OwnerEmergencySafeOn(uint256)": "9e476c29",
          "OwnerManualExpirationOff()": "0e2e1ff3",
          "expirationOccured()": "571fcf0a",
          "onePennyUSDinMatic(uint256)": "b9dbf3d1"
        }
      }
    }
  }
}