{
  "contracts/ElectricKeeperMockV24.sol": {
    "ElectricKeeperMock": {
      "abi": [
        {
          "inputs": [],
          "stateMutability": "nonpayable",
          "type": "constructor"
        },
        {
          "anonymous": false,
          "inputs": [],
          "name": "VoltageChange",
          "type": "event"
        },
        {
          "inputs": [
            {
              "internalType": "uint256",
              "name": "ledValue",
              "type": "uint256"
            },
            {
              "internalType": "uint256",
              "name": "minutesToHaveOn",
              "type": "uint256"
            }
          ],
          "name": "BuyElectricityTimeOn",
          "outputs": [],
          "stateMutability": "payable",
          "type": "function"
        },
        {
          "inputs": [
            {
              "internalType": "uint256",
              "name": "",
              "type": "uint256"
            }
          ],
          "name": "LED",
          "outputs": [
            {
              "internalType": "uint256",
              "name": "Voltage",
              "type": "uint256"
            },
            {
              "internalType": "uint256",
              "name": "ExpirationTimeUNIX",
              "type": "uint256"
            }
          ],
          "stateMutability": "view",
          "type": "function"
        },
        {
          "inputs": [],
          "name": "Owner",
          "outputs": [
            {
              "internalType": "address",
              "name": "",
              "type": "address"
            }
          ],
          "stateMutability": "view",
          "type": "function"
        },
        {
          "inputs": [
            {
              "internalType": "uint256",
              "name": "ledValue",
              "type": "uint256"
            }
          ],
          "name": "OwnerEmergencyDangerOff",
          "outputs": [],
          "stateMutability": "nonpayable",
          "type": "function"
        },
        {
          "inputs": [
            {
              "internalType": "uint256",
              "name": "ledValue",
              "type": "uint256"
            }
          ],
          "name": "OwnerEmergencySafeOn",
          "outputs": [],
          "stateMutability": "nonpayable",
          "type": "function"
        },
        {
          "inputs": [],
          "name": "OwnerManualExpirationOff",
          "outputs": [],
          "stateMutability": "nonpayable",
          "type": "function"
        },
        {
          "inputs": [],
          "name": "expirationOccured",
          "outputs": [
            {
              "internalType": "bool",
              "name": "",
              "type": "bool"
            }
          ],
          "stateMutability": "view",
          "type": "function"
        },
        {
          "inputs": [
            {
              "internalType": "uint256",
              "name": "scaleMinutes",
              "type": "uint256"
            }
          ],
          "name": "onePennyUSDinMatic",
          "outputs": [
            {
              "internalType": "uint256",
              "name": "",
              "type": "uint256"
            }
          ],
          "stateMutability": "view",
          "type": "function"
        }
      ],
      "evm": {
        "bytecode": {
          "linkReferences": {},
          "object": "60a06040523480156200001157600080fd5b50620000467f53eaba580dde665795ff4d8f9c2a6b1e4c6283b77f6d5b62876dacdb707f777860001b620000e860201b60201c565b6200007a7fe3b7d099539f4fe199878bd65f0183478ebd4de8316ce251e2b9c20e9cef89ef60001b620000e860201b60201c565b620000ae7f7332ae81d849007c8550b9d5d64749d7f688c1fcacec1567f735943a0ff1ad2860001b620000e860201b60201c565b3373ffffffffffffffffffffffffffffffffffffffff1660808173ffffffffffffffffffffffffffffffffffffffff1681525050620000eb565b50565b608051612295620001236000396000818161028801528181610d30015281816110c6015281816116680152611b5a01526122956000f3fe60806040526004361061007b5760003560e01c8063979c22ce1161004e578063979c22ce1461011c5780639e476c2914610145578063b4a99a4e1461016e578063b9dbf3d1146101995761007b565b80630e2e1ff314610080578063494762f614610097578063571fcf0a146100b35780636bf93b66146100de575b600080fd5b34801561008c57600080fd5b506100956101d6565b005b6100b160048036038101906100ac9190611c5a565b610767565b005b3480156100bf57600080fd5b506100c8610d9a565b6040516100d59190611cb5565b60405180910390f35b3480156100ea57600080fd5b5061010560048036038101906101009190611cd0565b610ff0565b604051610113929190611d0c565b60405180910390f35b34801561012857600080fd5b50610143600480360381019061013e9190611cd0565b611014565b005b34801561015157600080fd5b5061016c60048036038101906101679190611cd0565b6115b6565b005b34801561017a57600080fd5b50610183611b58565b6040516101909190611d76565b60405180910390f35b3480156101a557600080fd5b506101c060048036038101906101bb9190611cd0565b611b7c565b6040516101cd9190611d91565b60405180910390f35b6102027f364037cc00296d2b972a42ba9c45f019e5bca9d92e8f5cba2d901c282871ffd360001b611c1c565b61022e7f92740882563a5b94df822abc0f9721e482962a8fbb940032713218603f883de560001b611c1c565b61025a7f45480ae32c9f56c3122eb0c5da03d3827d1eba5bd1f196dfaf2f4dc17147cef860001b611c1c565b6102867fe4a5d666efb542c0d1c0035ba9c0ea2c419ceac30b56ec1fc2035c0498e6753460001b611c1c565b7f000000000000000000000000000000000000000000000000000000000000000073ffffffffffffffffffffffffffffffffffffffff163373ffffffffffffffffffffffffffffffffffffffff1614610314576040517f08c379a000000000000000000000000000000000000000000000000000000000815260040161030b90611e2f565b60405180910390fd5b6103407f3824004cf516116b0644517b87c770735ed6c329491fbeb8aa927442f72f9c4460001b611c1c565b61036c7fb8c5b8884134fd1805ea1df2fb50c61f344330ec83739b991e2b5d2a411a29f960001b611c1c565b6103987f59128cd467a177b316e247c804be6b7d3412d1f03887db4bbfad901699f313df60001b611c1c565b6103c47f9020bbd3e484135e07cf9e0b0bde0029b9469d21425034689f7ee6b12b980e1960001b611c1c565b6103f07f37086b3da62b6847f1002211775d876966b0c1dff763df0d9710b915466ca42860001b611c1c565b61041c7f2db70d70629c910943734de398c36789c4a0b1490f8a4f92b5df203b6f1be35f60001b611c1c565b610424610d9a565b610463576040517f08c379a000000000000000000000000000000000000000000000000000000000815260040161045a90611e9b565b60405180910390fd5b61048f7f44b75ffc37e02d6e8e26cfb89de614ffcb50a8cb86a8c32fa9a1e21293e10db560001b611c1c565b6104bb7f801e85d53ff2b07b3109b66e78d507cee78d9c8dfa87dbdba52c874f1b04e7d560001b611c1c565b6104e77f1dc5267d51a10db8f3d31f42a967f65451993f318edb599b9c68a55a6e0d214d60001b611c1c565b60005b60088110156106e05761051f7f5e518b326b70f57766b335b425f00a963d45531d7119e2fa06426d127d67755a60001b611c1c565b61054b7fc105a4e72657b18ed80d7d77749776871b9abf7b0466c1a291d755bb70d5746160001b611c1c565b60016000808381526020019081526020016000206000015414801561058457506000808281526020019081526020016000206001015442115b156106a0576105b57fde40e8dffc25873f0d3415655491a78f774b6b6a7530c5ccb95592e84ef2f8e360001b611c1c565b6105e17fd715aff2f12ff9e2e3c39f8b4b67cede5d7e5a5e9c5d704e0eab4344e5f51dd360001b611c1c565b61060d7f3ca756631ea62494709434adab6e90f9b28e366d83b99d1dc24d4836c7e2ab0060001b611c1c565b6000806000838152602001908152602001600020600001819055506106547f107ed2b72310ae36379f042035ae2f775ba6172eee1cb63682d5a52fdf43840e60001b611c1c565b6106807f95a7fc18792acfd8b61762362801f122bef149f41302f4d9ef14d637cbf2a81260001b611c1c565b6000806000838152602001908152602001600020600101819055506106cd565b6106cc7f8bb2894db6021ba8c1dae8f04ddfd349b5a2587a620fee4344941460daf6710960001b611c1c565b5b80806106d890611eea565b9150506104ea565b5061070d7fb2faf3937922f6dd3be66f0734e0bea43c465a7ef21308a792804ddca7836cd660001b611c1c565b6107397f452e8f04d99da3cfc935e17d84e10409c849d403cf2383caee43460573b9552c60001b611c1c565b7f72fdfd0f629c78d86d13a56ec6144a2c6a4904ad7de41d8089e90b00ff65a94a60405160405180910390a1565b816107947fd935ed6b084021b7489e8078daa41947165e2a5ab0ae3a2847a62c69a4a6898860001b611c1c565b6107c07fe420d0b1147e3caff302a7253601d20e2d66aad0a108910d0ba3ab521d6e960160001b611c1c565b6107ec7fdc37e1bdd721f744d6aeb2327f57aa000bbeb8fb50bed63377a99592176a23fa60001b611c1c565b6108187faddf6f789803c5462284c8e3861fd12f2e3f1ebc3d686749c092cd1119d1473b60001b611c1c565b600081101580156108295750600881105b610868576040517f08c379a000000000000000000000000000000000000000000000000000000000815260040161085f90611fcb565b60405180910390fd5b6108947f55f3d4e0d5cd45f603e139429eac166c3f98fceb40d305d9f3b8fe8296e7715f60001b611c1c565b6108c07fb7c85819ce72300f736b612c4e7b35a2c3d634c4004fbe677dc1a117f29355a860001b611c1c565b6108ec7fec748e3955c90569ca2832324886d82d3a59008dd46cd0371881b2165850a1c260001b611c1c565b6109187f79c81bc559d7e90b2bc54df7f6cd0e1a143bb92b01b6369c8a4d463b7c2e3c0860001b611c1c565b6109447fa225e861637444b5fab645b43ca711e903625cff1f496c4a6ef4f5d63b33b52060001b611c1c565b6109707f684ad210ee24cedb01d03038d872446528a95bf2bbb26e5b894552fd9fc2554b60001b611c1c565b600082118015610987575061098482611b7c565b34145b6109c6576040517f08c379a00000000000000000000000000000000000000000000000000000000081526004016109bd9061205d565b60405180910390fd5b6109f27f6623c456e20dcd96cb4939f555e643da840b32e21e2da6169b4bcb734b872a3c60001b611c1c565b610a1e7fd539ec54c1d7bb1fc3050c50bc19144604c2995d0af10136fd4659bc50825ecf60001b611c1c565b610a4a7f5341595d3fb4575a2bc537f355819e71912bb46180a5f172692b6d6cb026cca560001b611c1c565b6000806000858152602001908152602001600020600001541415610b9557610a947f5338b395db2d6dc3fe029796870953481b8ddb84ab149b0293a7d0cc98b6005860001b611c1c565b610ac07f465015fb9ff0542f0d4c084dee27b9564db43c94ef3a0ed69d9a5d01e2d2701060001b611c1c565b610aec7f7d3128c3e499804f17f6c60953b08bb64c965190b264d9d77d88b6e7036c54f860001b611c1c565b600160008085815260200190815260200160002060000181905550610b337f1d607d50ca157862596aa1abb140b26021ec1456be15b43858611357765b060860001b611c1c565b610b5f7ffc84570b83d7a6859ef6b898dfe5bd2657a7b4dca3b64028d5fc6b770570494a60001b611c1c565b81603c610b6c919061207d565b42610b7791906120d7565b60008085815260200190815260200160002060010181905550610c52565b610bc17fa5c3ece146cd707655278e3f88a36326b52e6ec5078915f76792c8ac2abe77b960001b611c1c565b610bed7f9134d0d4a6ce118a8a043c3633185445630241b125e00f3e472223568d4928d860001b611c1c565b610c197fca315eb06f318743b5bf8bb356d7c54307cc928d6c399b9c0c0d82a1fa4e281f60001b611c1c565b81603c610c26919061207d565b6000808581526020019081526020016000206001016000828254610c4a91906120d7565b925050819055505b610c7e7fa52499ee0a07902532b51b8a0eeabfaf5216b3b7e9122468a850cbbf48fb258860001b611c1c565b610caa7faa49c2b9d9d0c5fca3b47946c28182901bb180c17dcec96aced3fa1cf5a6e8a860001b611c1c565b7f72fdfd0f629c78d86d13a56ec6144a2c6a4904ad7de41d8089e90b00ff65a94a60405160405180910390a1610d027f1e508da0a225ad032b8e9c587077cc65d00a470e019d4df7732607a9e8c8758e60001b611c1c565b610d2e7fe6d10fbbb4e1636e25e4b6339d9e14674f84fd6d4f433ad5f18302f2e569d50660001b611c1c565b7f000000000000000000000000000000000000000000000000000000000000000073ffffffffffffffffffffffffffffffffffffffff166108fc479081150290604051600060405180830381858888f19350505050158015610d94573d6000803e3d6000fd5b50505050565b6000610dc87f3f3409b6c0c79a3b125d1cc53dc9d5fed9d69fc9b7c9f481c3c2b3131f84287160001b611c1c565b610df47ff2a8c88aec1af80b7c1576f1c123696ee1a2d0a80726cce2b966a5040610d0c660001b611c1c565b610e207f37c54f0a001af97b72b1f1538891ec6ce8e2d362fa8182055d3b67ab30afeaea60001b611c1c565b60005b6008811015610f8f57610e587fa1bb7a938fe13ccf84bdc15ce1f5146baa2db28acaab134f4478b3a917fadbeb60001b611c1c565b610e847ff3566d9c0aa63dd263f00a1450187c7862aa04fb2ae1f282c72ffe9dcb17267360001b611c1c565b600160008083815260200190815260200160002060000154148015610ebd57506000808281526020019081526020016000206001015442115b15610f5057610eee7fc590439e508fe4edcda2dcfba886cb86bd945cfc827e646fc8e4454dfb495c2c60001b611c1c565b610f1a7f5da7d87460a338776fc0c736955a49b6ae7b47d5fdccd63ecc04a29d2472bf3c60001b611c1c565b610f467fb50efe452249bae87ed71c5b78bbcc28853ef98706f0c0ec803d586594b32a0760001b611c1c565b6001915050610fed565b610f7c7fbaf94439383c61391078b3699688a67f2705264700c0a1d9e39c32832678cfe060001b611c1c565b8080610f8790611eea565b915050610e23565b50610fbc7f1bbe6494e3cb7be318b56dd6ef9ec595cddc6aeb6510fa8bf49c29ae8e73cc7a60001b611c1c565b610fe87f17f8d490d4e38ef7c6c2073f35e8ab4fd9b1799993e9b2f6fbdc214bcc91b39960001b611c1c565b600090505b90565b60006020528060005260406000206000915090508060000154908060010154905082565b6110407f364037cc00296d2b972a42ba9c45f019e5bca9d92e8f5cba2d901c282871ffd360001b611c1c565b61106c7f92740882563a5b94df822abc0f9721e482962a8fbb940032713218603f883de560001b611c1c565b6110987f45480ae32c9f56c3122eb0c5da03d3827d1eba5bd1f196dfaf2f4dc17147cef860001b611c1c565b6110c47fe4a5d666efb542c0d1c0035ba9c0ea2c419ceac30b56ec1fc2035c0498e6753460001b611c1c565b7f000000000000000000000000000000000000000000000000000000000000000073ffffffffffffffffffffffffffffffffffffffff163373ffffffffffffffffffffffffffffffffffffffff1614611152576040517f08c379a000000000000000000000000000000000000000000000000000000000815260040161114990611e2f565b60405180910390fd5b61117e7f3824004cf516116b0644517b87c770735ed6c329491fbeb8aa927442f72f9c4460001b611c1c565b6111aa7fb8c5b8884134fd1805ea1df2fb50c61f344330ec83739b991e2b5d2a411a29f960001b611c1c565b806111d77fd935ed6b084021b7489e8078daa41947165e2a5ab0ae3a2847a62c69a4a6898860001b611c1c565b6112037fe420d0b1147e3caff302a7253601d20e2d66aad0a108910d0ba3ab521d6e960160001b611c1c565b61122f7fdc37e1bdd721f744d6aeb2327f57aa000bbeb8fb50bed63377a99592176a23fa60001b611c1c565b61125b7faddf6f789803c5462284c8e3861fd12f2e3f1ebc3d686749c092cd1119d1473b60001b611c1c565b6000811015801561126c5750600881105b6112ab576040517f08c379a00000000000000000000000000000000000000000000000000000000081526004016112a290611fcb565b60405180910390fd5b6112d77f55f3d4e0d5cd45f603e139429eac166c3f98fceb40d305d9f3b8fe8296e7715f60001b611c1c565b6113037fb7c85819ce72300f736b612c4e7b35a2c3d634c4004fbe677dc1a117f29355a860001b611c1c565b61132f7f28063ee4578834ac02eb374f1cb6f6af9ba7b45fada9b5d4c878c9e33fb65a8760001b611c1c565b61135b7f895af5a716eb2aff185481a55d9ebb71cb0d3e408bddc00f149b832998390ffd60001b611c1c565b6113877fd19d9c2c0aec9861101e03ba10100221bf0651e9b63b7f5c32b9aa86ea30403360001b611c1c565b6113b37f5287f6772b5b57158c1b36c7ac118f720eea1d0756b2c29a6c93383097c4e02260001b611c1c565b6001600080848152602001908152602001600020600001541461140b576040517f08c379a000000000000000000000000000000000000000000000000000000000815260040161140290612179565b60405180910390fd5b6114377f55fc616e4014e15288c8ec7f9e0c5aa55fd8d16a89ed608a979be3d6ca444f2260001b611c1c565b6114637f18ec831919fc91dde9fafa24d03c0a37c3dae2efc858ce11210bf427926de11260001b611c1c565b61148f7fa383f603ebbf8e79b41945d61037105fed20b7a86450d725e5a33d1daeffdfab60001b611c1c565b6002600080848152602001908152602001600020600001819055506114d67f4656bde92c66db4dac1d432c296d6e85b126bcaa507ed0ab2b64c44b659c6c0360001b611c1c565b6115027f851945c4cea7bbe8807023c8f19d1efa15bc80284d88b6486e496762a4adc94d60001b611c1c565b4260008084815260200190815260200160002060010160008282546115279190612199565b9250508190555061155a7f4473eedb6222c4baae94ad34f8ae8b6b945508ea0dd9211778609a180bb569a560001b611c1c565b6115867f02ba296463eff553635a869c95ed3e449def45bb5606f205a3dc64c7890eb76760001b611c1c565b7f72fdfd0f629c78d86d13a56ec6144a2c6a4904ad7de41d8089e90b00ff65a94a60405160405180910390a15050565b6115e27f364037cc00296d2b972a42ba9c45f019e5bca9d92e8f5cba2d901c282871ffd360001b611c1c565b61160e7f92740882563a5b94df822abc0f9721e482962a8fbb940032713218603f883de560001b611c1c565b61163a7f45480ae32c9f56c3122eb0c5da03d3827d1eba5bd1f196dfaf2f4dc17147cef860001b611c1c565b6116667fe4a5d666efb542c0d1c0035ba9c0ea2c419ceac30b56ec1fc2035c0498e6753460001b611c1c565b7f000000000000000000000000000000000000000000000000000000000000000073ffffffffffffffffffffffffffffffffffffffff163373ffffffffffffffffffffffffffffffffffffffff16146116f4576040517f08c379a00000000000000000000000000000000000000000000000000000000081526004016116eb90611e2f565b60405180910390fd5b6117207f3824004cf516116b0644517b87c770735ed6c329491fbeb8aa927442f72f9c4460001b611c1c565b61174c7fb8c5b8884134fd1805ea1df2fb50c61f344330ec83739b991e2b5d2a411a29f960001b611c1c565b806117797fd935ed6b084021b7489e8078daa41947165e2a5ab0ae3a2847a62c69a4a6898860001b611c1c565b6117a57fe420d0b1147e3caff302a7253601d20e2d66aad0a108910d0ba3ab521d6e960160001b611c1c565b6117d17fdc37e1bdd721f744d6aeb2327f57aa000bbeb8fb50bed63377a99592176a23fa60001b611c1c565b6117fd7faddf6f789803c5462284c8e3861fd12f2e3f1ebc3d686749c092cd1119d1473b60001b611c1c565b6000811015801561180e5750600881105b61184d576040517f08c379a000000000000000000000000000000000000000000000000000000000815260040161184490611fcb565b60405180910390fd5b6118797f55f3d4e0d5cd45f603e139429eac166c3f98fceb40d305d9f3b8fe8296e7715f60001b611c1c565b6118a57fb7c85819ce72300f736b612c4e7b35a2c3d634c4004fbe677dc1a117f29355a860001b611c1c565b6118d17f79a1186cc050c6fde44126e8d4ca34f04680ecaaaa0bc62f5ff5fbaee75e4f6760001b611c1c565b6118fd7f7196db510aefacbfccd67edee64272cd98549856e8d41595b8cb380218fde4c660001b611c1c565b6119297ff3e0703ed1787d2123f2babb2d974539c312c5123bfb1935610664d12ad17e8160001b611c1c565b6119557fb6b7f9eb378efdfb094abf2be9eb295d23e6da3929297ae5ac26d5829c9d963f60001b611c1c565b600260008084815260200190815260200160002060000154146119ad576040517f08c379a00000000000000000000000000000000000000000000000000000000081526004016119a49061223f565b60405180910390fd5b6119d97faada2c441ab2aac400d60b41bb29ddf08e3572a23ec549730855906fbd09223460001b611c1c565b611a057f42d433e7d05bd8eb0040807f5a689a2342fe612901e733d7498cacfb138b222560001b611c1c565b611a317f7dc325191a82eaebb75e993407873d283221b70e59eb9ec2239d6a24d6438b2960001b611c1c565b600160008084815260200190815260200160002060000181905550611a787f7341cc96c27b41fac7daaea06e4b5e28e31921be80e254c10759928975a6f94960001b611c1c565b611aa47fb716decb93cd9efdee7c3f13c675126caf78e555c2bae9755d31bb54a4a88af860001b611c1c565b426000808481526020019081526020016000206001016000828254611ac991906120d7565b92505081905550611afc7fa39112eb11a8cb297f65273a15e8ae847077d5164613ece29d6ede457c4e7bf160001b611c1c565b611b287f2139d2cb84787a92eb9c1d04c656bd03ea6e8a221baf29e88f6d470c4d18883460001b611c1c565b7f72fdfd0f629c78d86d13a56ec6144a2c6a4904ad7de41d8089e90b00ff65a94a60405160405180910390a15050565b7f000000000000000000000000000000000000000000000000000000000000000081565b6000611baa7f6d23013a57bd6e5291691566a1524aae2be6b7cd4b8111c948b8d3996e01ffa660001b611c1c565b611bd67f0dd94f7b3f1faf6f25f3d41bc999fb064caaa57b3488c9e7e9cd1c0b8abf8fc160001b611c1c565b611c027f22f58f036d5506939a6f0be9f5bb7e04a986511e3ec03393f87fdd391cadd01060001b611c1c565b6618de76816d800082611c15919061207d565b9050919050565b50565b600080fd5b6000819050919050565b611c3781611c24565b8114611c4257600080fd5b50565b600081359050611c5481611c2e565b92915050565b60008060408385031215611c7157611c70611c1f565b5b6000611c7f85828601611c45565b9250506020611c9085828601611c45565b9150509250929050565b60008115159050919050565b611caf81611c9a565b82525050565b6000602082019050611cca6000830184611ca6565b92915050565b600060208284031215611ce657611ce5611c1f565b5b6000611cf484828501611c45565b91505092915050565b611d0681611c24565b82525050565b6000604082019050611d216000830185611cfd565b611d2e6020830184611cfd565b9392505050565b600073ffffffffffffffffffffffffffffffffffffffff82169050919050565b6000611d6082611d35565b9050919050565b611d7081611d55565b82525050565b6000602082019050611d8b6000830184611d67565b92915050565b6000602082019050611da66000830184611cfd565b92915050565b600082825260208201905092915050565b7f4f4e4c595f4f574e45525f57414c4c45545f414444524553535f4841535f414360008201527f434553532e000000000000000000000000000000000000000000000000000000602082015250565b6000611e19602583611dac565b9150611e2482611dbd565b604082019050919050565b60006020820190508181036000830152611e4881611e0c565b9050919050565b7f4e4f5f45585049524154494f4e5f5945542e0000000000000000000000000000600082015250565b6000611e85601283611dac565b9150611e9082611e4f565b602082019050919050565b60006020820190508181036000830152611eb481611e78565b9050919050565b7f4e487b7100000000000000000000000000000000000000000000000000000000600052601160045260246000fd5b6000611ef582611c24565b91507fffffffffffffffffffffffffffffffffffffffffffffffffffffffffffffffff821415611f2857611f27611ebb565b5b600182019050919050565b7f4c45445f56414c5545535f5245445f305f424c55455f315f59454c4c4f575f3260008201527f5f475245454e5f335f505552504c455f345f4f52414e47455f355f50494e4b5f60208201527f365f57484954455f372e00000000000000000000000000000000000000000000604082015250565b6000611fb5604a83611dac565b9150611fc082611f33565b606082019050919050565b60006020820190508181036000830152611fe481611fa8565b9050919050565b7f4d5553545f484156455f4d494e555445535f475245415445525f5448414e5f3060008201527f5f414e445f4d53475f56414c55453d4d494e555445532a4645452e0000000000602082015250565b6000612047603b83611dac565b915061205282611feb565b604082019050919050565b600060208201905081810360008301526120768161203a565b9050919050565b600061208882611c24565b915061209383611c24565b9250817fffffffffffffffffffffffffffffffffffffffffffffffffffffffffffffffff04831182151516156120cc576120cb611ebb565b5b828202905092915050565b60006120e282611c24565b91506120ed83611c24565b9250827fffffffffffffffffffffffffffffffffffffffffffffffffffffffffffffffff0382111561212257612121611ebb565b5b828201905092915050565b7f564f4c544147455f4e4f545f4f4e2e0000000000000000000000000000000000600082015250565b6000612163600f83611dac565b915061216e8261212d565b602082019050919050565b6000602082019050818103600083015261219281612156565b9050919050565b60006121a482611c24565b91506121af83611c24565b9250828210156121c2576121c1611ebb565b5b828203905092915050565b7f564f4c544147455f4e4f545f494e5f454d455247454e43595f4f46465f53544160008201527f54452e0000000000000000000000000000000000000000000000000000000000602082015250565b6000612229602383611dac565b9150612234826121cd565b604082019050919050565b600060208201905081810360008301526122588161221c565b905091905056fea26469706673582212208bbb3bcb59dc5aeb4bb7414574fe0147e37446cdb501a05ca0103fa75fbec20764736f6c634300080c0033",
          "opcodes": "PUSH1 0xA0 PUSH1 0x40 MSTORE CALLVALUE DUP1 ISZERO PUSH3 0x11 JUMPI PUSH1 0x0 DUP1 REVERT JUMPDEST POP PUSH3 0x46 PUSH32 0x53EABA580DDE665795FF4D8F9C2A6B1E4C6283B77F6D5B62876DACDB707F7778 PUSH1 0x0 SHL PUSH3 0xE8 PUSH1 0x20 SHL PUSH1 0x20 SHR JUMP JUMPDEST PUSH3 0x7A PUSH32 0xE3B7D099539F4FE199878BD65F0183478EBD4DE8316CE251E2B9C20E9CEF89EF PUSH1 0x0 SHL PUSH3 0xE8 PUSH1 0x20 SHL PUSH1 0x20 SHR JUMP JUMPDEST PUSH3 0xAE PUSH32 0x7332AE81D849007C8550B9D5D64749D7F688C1FCACEC1567F735943A0FF1AD28 PUSH1 0x0 SHL PUSH3 0xE8 PUSH1 0x20 SHL PUSH1 0x20 SHR JUMP JUMPDEST CALLER PUSH20 0xFFFFFFFFFFFFFFFFFFFFFFFFFFFFFFFFFFFFFFFF AND PUSH1 0x80 DUP2 PUSH20 0xFFFFFFFFFFFFFFFFFFFFFFFFFFFFFFFFFFFFFFFF AND DUP2 MSTORE POP POP PUSH3 0xEB JUMP JUMPDEST POP JUMP JUMPDEST PUSH1 0x80 MLOAD PUSH2 0x2295 PUSH3 0x123 PUSH1 0x0 CODECOPY PUSH1 0x0 DUP2 DUP2 PUSH2 0x288 ADD MSTORE DUP2 DUP2 PUSH2 0xD30 ADD MSTORE DUP2 DUP2 PUSH2 0x10C6 ADD MSTORE DUP2 DUP2 PUSH2 0x1668 ADD MSTORE PUSH2 0x1B5A ADD MSTORE PUSH2 0x2295 PUSH1 0x0 RETURN INVALID PUSH1 0x80 PUSH1 0x40 MSTORE PUSH1 0x4 CALLDATASIZE LT PUSH2 0x7B JUMPI PUSH1 0x0 CALLDATALOAD PUSH1 0xE0 SHR DUP1 PUSH4 0x979C22CE GT PUSH2 0x4E JUMPI DUP1 PUSH4 0x979C22CE EQ PUSH2 0x11C JUMPI DUP1 PUSH4 0x9E476C29 EQ PUSH2 0x145 JUMPI DUP1 PUSH4 0xB4A99A4E EQ PUSH2 0x16E JUMPI DUP1 PUSH4 0xB9DBF3D1 EQ PUSH2 0x199 JUMPI PUSH2 0x7B JUMP JUMPDEST DUP1 PUSH4 0xE2E1FF3 EQ PUSH2 0x80 JUMPI DUP1 PUSH4 0x494762F6 EQ PUSH2 0x97 JUMPI DUP1 PUSH4 0x571FCF0A EQ PUSH2 0xB3 JUMPI DUP1 PUSH4 0x6BF93B66 EQ PUSH2 0xDE JUMPI JUMPDEST PUSH1 0x0 DUP1 REVERT JUMPDEST CALLVALUE DUP1 ISZERO PUSH2 0x8C JUMPI PUSH1 0x0 DUP1 REVERT JUMPDEST POP PUSH2 0x95 PUSH2 0x1D6 JUMP JUMPDEST STOP JUMPDEST PUSH2 0xB1 PUSH1 0x4 DUP1 CALLDATASIZE SUB DUP2 ADD SWAP1 PUSH2 0xAC SWAP2 SWAP1 PUSH2 0x1C5A JUMP JUMPDEST PUSH2 0x767 JUMP JUMPDEST STOP JUMPDEST CALLVALUE DUP1 ISZERO PUSH2 0xBF JUMPI PUSH1 0x0 DUP1 REVERT JUMPDEST POP PUSH2 0xC8 PUSH2 0xD9A JUMP JUMPDEST PUSH1 0x40 MLOAD PUSH2 0xD5 SWAP2 SWAP1 PUSH2 0x1CB5 JUMP JUMPDEST PUSH1 0x40 MLOAD DUP1 SWAP2 SUB SWAP1 RETURN JUMPDEST CALLVALUE DUP1 ISZERO PUSH2 0xEA JUMPI PUSH1 0x0 DUP1 REVERT JUMPDEST POP PUSH2 0x105 PUSH1 0x4 DUP1 CALLDATASIZE SUB DUP2 ADD SWAP1 PUSH2 0x100 SWAP2 SWAP1 PUSH2 0x1CD0 JUMP JUMPDEST PUSH2 0xFF0 JUMP JUMPDEST PUSH1 0x40 MLOAD PUSH2 0x113 SWAP3 SWAP2 SWAP1 PUSH2 0x1D0C JUMP JUMPDEST PUSH1 0x40 MLOAD DUP1 SWAP2 SUB SWAP1 RETURN JUMPDEST CALLVALUE DUP1 ISZERO PUSH2 0x128 JUMPI PUSH1 0x0 DUP1 REVERT JUMPDEST POP PUSH2 0x143 PUSH1 0x4 DUP1 CALLDATASIZE SUB DUP2 ADD SWAP1 PUSH2 0x13E SWAP2 SWAP1 PUSH2 0x1CD0 JUMP JUMPDEST PUSH2 0x1014 JUMP JUMPDEST STOP JUMPDEST CALLVALUE DUP1 ISZERO PUSH2 0x151 JUMPI PUSH1 0x0 DUP1 REVERT JUMPDEST POP PUSH2 0x16C PUSH1 0x4 DUP1 CALLDATASIZE SUB DUP2 ADD SWAP1 PUSH2 0x167 SWAP2 SWAP1 PUSH2 0x1CD0 JUMP JUMPDEST PUSH2 0x15B6 JUMP JUMPDEST STOP JUMPDEST CALLVALUE DUP1 ISZERO PUSH2 0x17A JUMPI PUSH1 0x0 DUP1 REVERT JUMPDEST POP PUSH2 0x183 PUSH2 0x1B58 JUMP JUMPDEST PUSH1 0x40 MLOAD PUSH2 0x190 SWAP2 SWAP1 PUSH2 0x1D76 JUMP JUMPDEST PUSH1 0x40 MLOAD DUP1 SWAP2 SUB SWAP1 RETURN JUMPDEST CALLVALUE DUP1 ISZERO PUSH2 0x1A5 JUMPI PUSH1 0x0 DUP1 REVERT JUMPDEST POP PUSH2 0x1C0 PUSH1 0x4 DUP1 CALLDATASIZE SUB DUP2 ADD SWAP1 PUSH2 0x1BB SWAP2 SWAP1 PUSH2 0x1CD0 JUMP JUMPDEST PUSH2 0x1B7C JUMP JUMPDEST PUSH1 0x40 MLOAD PUSH2 0x1CD SWAP2 SWAP1 PUSH2 0x1D91 JUMP JUMPDEST PUSH1 0x40 MLOAD DUP1 SWAP2 SUB SWAP1 RETURN JUMPDEST PUSH2 0x202 PUSH32 0x364037CC00296D2B972A42BA9C45F019E5BCA9D92E8F5CBA2D901C282871FFD3 PUSH1 0x0 SHL PUSH2 0x1C1C JUMP JUMPDEST PUSH2 0x22E PUSH32 0x92740882563A5B94DF822ABC0F9721E482962A8FBB940032713218603F883DE5 PUSH1 0x0 SHL PUSH2 0x1C1C JUMP JUMPDEST PUSH2 0x25A PUSH32 0x45480AE32C9F56C3122EB0C5DA03D3827D1EBA5BD1F196DFAF2F4DC17147CEF8 PUSH1 0x0 SHL PUSH2 0x1C1C JUMP JUMPDEST PUSH2 0x286 PUSH32 0xE4A5D666EFB542C0D1C0035BA9C0EA2C419CEAC30B56EC1FC2035C0498E67534 PUSH1 0x0 SHL PUSH2 0x1C1C JUMP JUMPDEST PUSH32 0x0 PUSH20 0xFFFFFFFFFFFFFFFFFFFFFFFFFFFFFFFFFFFFFFFF AND CALLER PUSH20 0xFFFFFFFFFFFFFFFFFFFFFFFFFFFFFFFFFFFFFFFF AND EQ PUSH2 0x314 JUMPI PUSH1 0x40 MLOAD PUSH32 0x8C379A000000000000000000000000000000000000000000000000000000000 DUP2 MSTORE PUSH1 0x4 ADD PUSH2 0x30B SWAP1 PUSH2 0x1E2F JUMP JUMPDEST PUSH1 0x40 MLOAD DUP1 SWAP2 SUB SWAP1 REVERT JUMPDEST PUSH2 0x340 PUSH32 0x3824004CF516116B0644517B87C770735ED6C329491FBEB8AA927442F72F9C44 PUSH1 0x0 SHL PUSH2 0x1C1C JUMP JUMPDEST PUSH2 0x36C PUSH32 0xB8C5B8884134FD1805EA1DF2FB50C61F344330EC83739B991E2B5D2A411A29F9 PUSH1 0x0 SHL PUSH2 0x1C1C JUMP JUMPDEST PUSH2 0x398 PUSH32 0x59128CD467A177B316E247C804BE6B7D3412D1F03887DB4BBFAD901699F313DF PUSH1 0x0 SHL PUSH2 0x1C1C JUMP JUMPDEST PUSH2 0x3C4 PUSH32 0x9020BBD3E484135E07CF9E0B0BDE0029B9469D21425034689F7EE6B12B980E19 PUSH1 0x0 SHL PUSH2 0x1C1C JUMP JUMPDEST PUSH2 0x3F0 PUSH32 0x37086B3DA62B6847F1002211775D876966B0C1DFF763DF0D9710B915466CA428 PUSH1 0x0 SHL PUSH2 0x1C1C JUMP JUMPDEST PUSH2 0x41C PUSH32 0x2DB70D70629C910943734DE398C36789C4A0B1490F8A4F92B5DF203B6F1BE35F PUSH1 0x0 SHL PUSH2 0x1C1C JUMP JUMPDEST PUSH2 0x424 PUSH2 0xD9A JUMP JUMPDEST PUSH2 0x463 JUMPI PUSH1 0x40 MLOAD PUSH32 0x8C379A000000000000000000000000000000000000000000000000000000000 DUP2 MSTORE PUSH1 0x4 ADD PUSH2 0x45A SWAP1 PUSH2 0x1E9B JUMP JUMPDEST PUSH1 0x40 MLOAD DUP1 SWAP2 SUB SWAP1 REVERT JUMPDEST PUSH2 0x48F PUSH32 0x44B75FFC37E02D6E8E26CFB89DE614FFCB50A8CB86A8C32FA9A1E21293E10DB5 PUSH1 0x0 SHL PUSH2 0x1C1C JUMP JUMPDEST PUSH2 0x4BB PUSH32 0x801E85D53FF2B07B3109B66E78D507CEE78D9C8DFA87DBDBA52C874F1B04E7D5 PUSH1 0x0 SHL PUSH2 0x1C1C JUMP JUMPDEST PUSH2 0x4E7 PUSH32 0x1DC5267D51A10DB8F3D31F42A967F65451993F318EDB599B9C68A55A6E0D214D PUSH1 0x0 SHL PUSH2 0x1C1C JUMP JUMPDEST PUSH1 0x0 JUMPDEST PUSH1 0x8 DUP2 LT ISZERO PUSH2 0x6E0 JUMPI PUSH2 0x51F PUSH32 0x5E518B326B70F57766B335B425F00A963D45531D7119E2FA06426D127D67755A PUSH1 0x0 SHL PUSH2 0x1C1C JUMP JUMPDEST PUSH2 0x54B PUSH32 0xC105A4E72657B18ED80D7D77749776871B9ABF7B0466C1A291D755BB70D57461 PUSH1 0x0 SHL PUSH2 0x1C1C JUMP JUMPDEST PUSH1 0x1 PUSH1 0x0 DUP1 DUP4 DUP2 MSTORE PUSH1 0x20 ADD SWAP1 DUP2 MSTORE PUSH1 0x20 ADD PUSH1 0x0 KECCAK256 PUSH1 0x0 ADD SLOAD EQ DUP1 ISZERO PUSH2 0x584 JUMPI POP PUSH1 0x0 DUP1 DUP3 DUP2 MSTORE PUSH1 0x20 ADD SWAP1 DUP2 MSTORE PUSH1 0x20 ADD PUSH1 0x0 KECCAK256 PUSH1 0x1 ADD SLOAD TIMESTAMP GT JUMPDEST ISZERO PUSH2 0x6A0 JUMPI PUSH2 0x5B5 PUSH32 0xDE40E8DFFC25873F0D3415655491A78F774B6B6A7530C5CCB95592E84EF2F8E3 PUSH1 0x0 SHL PUSH2 0x1C1C JUMP JUMPDEST PUSH2 0x5E1 PUSH32 0xD715AFF2F12FF9E2E3C39F8B4B67CEDE5D7E5A5E9C5D704E0EAB4344E5F51DD3 PUSH1 0x0 SHL PUSH2 0x1C1C JUMP JUMPDEST PUSH2 0x60D PUSH32 0x3CA756631EA62494709434ADAB6E90F9B28E366D83B99D1DC24D4836C7E2AB00 PUSH1 0x0 SHL PUSH2 0x1C1C JUMP JUMPDEST PUSH1 0x0 DUP1 PUSH1 0x0 DUP4 DUP2 MSTORE PUSH1 0x20 ADD SWAP1 DUP2 MSTORE PUSH1 0x20 ADD PUSH1 0x0 KECCAK256 PUSH1 0x0 ADD DUP2 SWAP1 SSTORE POP PUSH2 0x654 PUSH32 0x107ED2B72310AE36379F042035AE2F775BA6172EEE1CB63682D5A52FDF43840E PUSH1 0x0 SHL PUSH2 0x1C1C JUMP JUMPDEST PUSH2 0x680 PUSH32 0x95A7FC18792ACFD8B61762362801F122BEF149F41302F4D9EF14D637CBF2A812 PUSH1 0x0 SHL PUSH2 0x1C1C JUMP JUMPDEST PUSH1 0x0 DUP1 PUSH1 0x0 DUP4 DUP2 MSTORE PUSH1 0x20 ADD SWAP1 DUP2 MSTORE PUSH1 0x20 ADD PUSH1 0x0 KECCAK256 PUSH1 0x1 ADD DUP2 SWAP1 SSTORE POP PUSH2 0x6CD JUMP JUMPDEST PUSH2 0x6CC PUSH32 0x8BB2894DB6021BA8C1DAE8F04DDFD349B5A2587A620FEE4344941460DAF67109 PUSH1 0x0 SHL PUSH2 0x1C1C JUMP JUMPDEST JUMPDEST DUP1 DUP1 PUSH2 0x6D8 SWAP1 PUSH2 0x1EEA JUMP JUMPDEST SWAP2 POP POP PUSH2 0x4EA JUMP JUMPDEST POP PUSH2 0x70D PUSH32 0xB2FAF3937922F6DD3BE66F0734E0BEA43C465A7EF21308A792804DDCA7836CD6 PUSH1 0x0 SHL PUSH2 0x1C1C JUMP JUMPDEST PUSH2 0x739 PUSH32 0x452E8F04D99DA3CFC935E17D84E10409C849D403CF2383CAEE43460573B9552C PUSH1 0x0 SHL PUSH2 0x1C1C JUMP JUMPDEST PUSH32 0x72FDFD0F629C78D86D13A56EC6144A2C6A4904AD7DE41D8089E90B00FF65A94A PUSH1 0x40 MLOAD PUSH1 0x40 MLOAD DUP1 SWAP2 SUB SWAP1 LOG1 JUMP JUMPDEST DUP2 PUSH2 0x794 PUSH32 0xD935ED6B084021B7489E8078DAA41947165E2A5AB0AE3A2847A62C69A4A68988 PUSH1 0x0 SHL PUSH2 0x1C1C JUMP JUMPDEST PUSH2 0x7C0 PUSH32 0xE420D0B1147E3CAFF302A7253601D20E2D66AAD0A108910D0BA3AB521D6E9601 PUSH1 0x0 SHL PUSH2 0x1C1C JUMP JUMPDEST PUSH2 0x7EC PUSH32 0xDC37E1BDD721F744D6AEB2327F57AA000BBEB8FB50BED63377A99592176A23FA PUSH1 0x0 SHL PUSH2 0x1C1C JUMP JUMPDEST PUSH2 0x818 PUSH32 0xADDF6F789803C5462284C8E3861FD12F2E3F1EBC3D686749C092CD1119D1473B PUSH1 0x0 SHL PUSH2 0x1C1C JUMP JUMPDEST PUSH1 0x0 DUP2 LT ISZERO DUP1 ISZERO PUSH2 0x829 JUMPI POP PUSH1 0x8 DUP2 LT JUMPDEST PUSH2 0x868 JUMPI PUSH1 0x40 MLOAD PUSH32 0x8C379A000000000000000000000000000000000000000000000000000000000 DUP2 MSTORE PUSH1 0x4 ADD PUSH2 0x85F SWAP1 PUSH2 0x1FCB JUMP JUMPDEST PUSH1 0x40 MLOAD DUP1 SWAP2 SUB SWAP1 REVERT JUMPDEST PUSH2 0x894 PUSH32 0x55F3D4E0D5CD45F603E139429EAC166C3F98FCEB40D305D9F3B8FE8296E7715F PUSH1 0x0 SHL PUSH2 0x1C1C JUMP JUMPDEST PUSH2 0x8C0 PUSH32 0xB7C85819CE72300F736B612C4E7B35A2C3D634C4004FBE677DC1A117F29355A8 PUSH1 0x0 SHL PUSH2 0x1C1C JUMP JUMPDEST PUSH2 0x8EC PUSH32 0xEC748E3955C90569CA2832324886D82D3A59008DD46CD0371881B2165850A1C2 PUSH1 0x0 SHL PUSH2 0x1C1C JUMP JUMPDEST PUSH2 0x918 PUSH32 0x79C81BC559D7E90B2BC54DF7F6CD0E1A143BB92B01B6369C8A4D463B7C2E3C08 PUSH1 0x0 SHL PUSH2 0x1C1C JUMP JUMPDEST PUSH2 0x944 PUSH32 0xA225E861637444B5FAB645B43CA711E903625CFF1F496C4A6EF4F5D63B33B520 PUSH1 0x0 SHL PUSH2 0x1C1C JUMP JUMPDEST PUSH2 0x970 PUSH32 0x684AD210EE24CEDB01D03038D872446528A95BF2BBB26E5B894552FD9FC2554B PUSH1 0x0 SHL PUSH2 0x1C1C JUMP JUMPDEST PUSH1 0x0 DUP3 GT DUP1 ISZERO PUSH2 0x987 JUMPI POP PUSH2 0x984 DUP3 PUSH2 0x1B7C JUMP JUMPDEST CALLVALUE EQ JUMPDEST PUSH2 0x9C6 JUMPI PUSH1 0x40 MLOAD PUSH32 0x8C379A000000000000000000000000000000000000000000000000000000000 DUP2 MSTORE PUSH1 0x4 ADD PUSH2 0x9BD SWAP1 PUSH2 0x205D JUMP JUMPDEST PUSH1 0x40 MLOAD DUP1 SWAP2 SUB SWAP1 REVERT JUMPDEST PUSH2 0x9F2 PUSH32 0x6623C456E20DCD96CB4939F555E643DA840B32E21E2DA6169B4BCB734B872A3C PUSH1 0x0 SHL PUSH2 0x1C1C JUMP JUMPDEST PUSH2 0xA1E PUSH32 0xD539EC54C1D7BB1FC3050C50BC19144604C2995D0AF10136FD4659BC50825ECF PUSH1 0x0 SHL PUSH2 0x1C1C JUMP JUMPDEST PUSH2 0xA4A PUSH32 0x5341595D3FB4575A2BC537F355819E71912BB46180A5F172692B6D6CB026CCA5 PUSH1 0x0 SHL PUSH2 0x1C1C JUMP JUMPDEST PUSH1 0x0 DUP1 PUSH1 0x0 DUP6 DUP2 MSTORE PUSH1 0x20 ADD SWAP1 DUP2 MSTORE PUSH1 0x20 ADD PUSH1 0x0 KECCAK256 PUSH1 0x0 ADD SLOAD EQ ISZERO PUSH2 0xB95 JUMPI PUSH2 0xA94 PUSH32 0x5338B395DB2D6DC3FE029796870953481B8DDB84AB149B0293A7D0CC98B60058 PUSH1 0x0 SHL PUSH2 0x1C1C JUMP JUMPDEST PUSH2 0xAC0 PUSH32 0x465015FB9FF0542F0D4C084DEE27B9564DB43C94EF3A0ED69D9A5D01E2D27010 PUSH1 0x0 SHL PUSH2 0x1C1C JUMP JUMPDEST PUSH2 0xAEC PUSH32 0x7D3128C3E499804F17F6C60953B08BB64C965190B264D9D77D88B6E7036C54F8 PUSH1 0x0 SHL PUSH2 0x1C1C JUMP JUMPDEST PUSH1 0x1 PUSH1 0x0 DUP1 DUP6 DUP2 MSTORE PUSH1 0x20 ADD SWAP1 DUP2 MSTORE PUSH1 0x20 ADD PUSH1 0x0 KECCAK256 PUSH1 0x0 ADD DUP2 SWAP1 SSTORE POP PUSH2 0xB33 PUSH32 0x1D607D50CA157862596AA1ABB140B26021EC1456BE15B43858611357765B0608 PUSH1 0x0 SHL PUSH2 0x1C1C JUMP JUMPDEST PUSH2 0xB5F PUSH32 0xFC84570B83D7A6859EF6B898DFE5BD2657A7B4DCA3B64028D5FC6B770570494A PUSH1 0x0 SHL PUSH2 0x1C1C JUMP JUMPDEST DUP2 PUSH1 0x3C PUSH2 0xB6C SWAP2 SWAP1 PUSH2 0x207D JUMP JUMPDEST TIMESTAMP PUSH2 0xB77 SWAP2 SWAP1 PUSH2 0x20D7 JUMP JUMPDEST PUSH1 0x0 DUP1 DUP6 DUP2 MSTORE PUSH1 0x20 ADD SWAP1 DUP2 MSTORE PUSH1 0x20 ADD PUSH1 0x0 KECCAK256 PUSH1 0x1 ADD DUP2 SWAP1 SSTORE POP PUSH2 0xC52 JUMP JUMPDEST PUSH2 0xBC1 PUSH32 0xA5C3ECE146CD707655278E3F88A36326B52E6EC5078915F76792C8AC2ABE77B9 PUSH1 0x0 SHL PUSH2 0x1C1C JUMP JUMPDEST PUSH2 0xBED PUSH32 0x9134D0D4A6CE118A8A043C3633185445630241B125E00F3E472223568D4928D8 PUSH1 0x0 SHL PUSH2 0x1C1C JUMP JUMPDEST PUSH2 0xC19 PUSH32 0xCA315EB06F318743B5BF8BB356D7C54307CC928D6C399B9C0C0D82A1FA4E281F PUSH1 0x0 SHL PUSH2 0x1C1C JUMP JUMPDEST DUP2 PUSH1 0x3C PUSH2 0xC26 SWAP2 SWAP1 PUSH2 0x207D JUMP JUMPDEST PUSH1 0x0 DUP1 DUP6 DUP2 MSTORE PUSH1 0x20 ADD SWAP1 DUP2 MSTORE PUSH1 0x20 ADD PUSH1 0x0 KECCAK256 PUSH1 0x1 ADD PUSH1 0x0 DUP3 DUP3 SLOAD PUSH2 0xC4A SWAP2 SWAP1 PUSH2 0x20D7 JUMP JUMPDEST SWAP3 POP POP DUP2 SWAP1 SSTORE POP JUMPDEST PUSH2 0xC7E PUSH32 0xA52499EE0A07902532B51B8A0EEABFAF5216B3B7E9122468A850CBBF48FB2588 PUSH1 0x0 SHL PUSH2 0x1C1C JUMP JUMPDEST PUSH2 0xCAA PUSH32 0xAA49C2B9D9D0C5FCA3B47946C28182901BB180C17DCEC96ACED3FA1CF5A6E8A8 PUSH1 0x0 SHL PUSH2 0x1C1C JUMP JUMPDEST PUSH32 0x72FDFD0F629C78D86D13A56EC6144A2C6A4904AD7DE41D8089E90B00FF65A94A PUSH1 0x40 MLOAD PUSH1 0x40 MLOAD DUP1 SWAP2 SUB SWAP1 LOG1 PUSH2 0xD02 PUSH32 0x1E508DA0A225AD032B8E9C587077CC65D00A470E019D4DF7732607A9E8C8758E PUSH1 0x0 SHL PUSH2 0x1C1C JUMP JUMPDEST PUSH2 0xD2E PUSH32 0xE6D10FBBB4E1636E25E4B6339D9E14674F84FD6D4F433AD5F18302F2E569D506 PUSH1 0x0 SHL PUSH2 0x1C1C JUMP JUMPDEST PUSH32 0x0 PUSH20 0xFFFFFFFFFFFFFFFFFFFFFFFFFFFFFFFFFFFFFFFF AND PUSH2 0x8FC SELFBALANCE SWAP1 DUP2 ISZERO MUL SWAP1 PUSH1 0x40 MLOAD PUSH1 0x0 PUSH1 0x40 MLOAD DUP1 DUP4 SUB DUP2 DUP6 DUP9 DUP9 CALL SWAP4 POP POP POP POP ISZERO DUP1 ISZERO PUSH2 0xD94 JUMPI RETURNDATASIZE PUSH1 0x0 DUP1 RETURNDATACOPY RETURNDATASIZE PUSH1 0x0 REVERT JUMPDEST POP POP POP POP JUMP JUMPDEST PUSH1 0x0 PUSH2 0xDC8 PUSH32 0x3F3409B6C0C79A3B125D1CC53DC9D5FED9D69FC9B7C9F481C3C2B3131F842871 PUSH1 0x0 SHL PUSH2 0x1C1C JUMP JUMPDEST PUSH2 0xDF4 PUSH32 0xF2A8C88AEC1AF80B7C1576F1C123696EE1A2D0A80726CCE2B966A5040610D0C6 PUSH1 0x0 SHL PUSH2 0x1C1C JUMP JUMPDEST PUSH2 0xE20 PUSH32 0x37C54F0A001AF97B72B1F1538891EC6CE8E2D362FA8182055D3B67AB30AFEAEA PUSH1 0x0 SHL PUSH2 0x1C1C JUMP JUMPDEST PUSH1 0x0 JUMPDEST PUSH1 0x8 DUP2 LT ISZERO PUSH2 0xF8F JUMPI PUSH2 0xE58 PUSH32 0xA1BB7A938FE13CCF84BDC15CE1F5146BAA2DB28ACAAB134F4478B3A917FADBEB PUSH1 0x0 SHL PUSH2 0x1C1C JUMP JUMPDEST PUSH2 0xE84 PUSH32 0xF3566D9C0AA63DD263F00A1450187C7862AA04FB2AE1F282C72FFE9DCB172673 PUSH1 0x0 SHL PUSH2 0x1C1C JUMP JUMPDEST PUSH1 0x1 PUSH1 0x0 DUP1 DUP4 DUP2 MSTORE PUSH1 0x20 ADD SWAP1 DUP2 MSTORE PUSH1 0x20 ADD PUSH1 0x0 KECCAK256 PUSH1 0x0 ADD SLOAD EQ DUP1 ISZERO PUSH2 0xEBD JUMPI POP PUSH1 0x0 DUP1 DUP3 DUP2 MSTORE PUSH1 0x20 ADD SWAP1 DUP2 MSTORE PUSH1 0x20 ADD PUSH1 0x0 KECCAK256 PUSH1 0x1 ADD SLOAD TIMESTAMP GT JUMPDEST ISZERO PUSH2 0xF50 JUMPI PUSH2 0xEEE PUSH32 0xC590439E508FE4EDCDA2DCFBA886CB86BD945CFC827E646FC8E4454DFB495C2C PUSH1 0x0 SHL PUSH2 0x1C1C JUMP JUMPDEST PUSH2 0xF1A PUSH32 0x5DA7D87460A338776FC0C736955A49B6AE7B47D5FDCCD63ECC04A29D2472BF3C PUSH1 0x0 SHL PUSH2 0x1C1C JUMP JUMPDEST PUSH2 0xF46 PUSH32 0xB50EFE452249BAE87ED71C5B78BBCC28853EF98706F0C0EC803D586594B32A07 PUSH1 0x0 SHL PUSH2 0x1C1C JUMP JUMPDEST PUSH1 0x1 SWAP2 POP POP PUSH2 0xFED JUMP JUMPDEST PUSH2 0xF7C PUSH32 0xBAF94439383C61391078B3699688A67F2705264700C0A1D9E39C32832678CFE0 PUSH1 0x0 SHL PUSH2 0x1C1C JUMP JUMPDEST DUP1 DUP1 PUSH2 0xF87 SWAP1 PUSH2 0x1EEA JUMP JUMPDEST SWAP2 POP POP PUSH2 0xE23 JUMP JUMPDEST POP PUSH2 0xFBC PUSH32 0x1BBE6494E3CB7BE318B56DD6EF9EC595CDDC6AEB6510FA8BF49C29AE8E73CC7A PUSH1 0x0 SHL PUSH2 0x1C1C JUMP JUMPDEST PUSH2 0xFE8 PUSH32 0x17F8D490D4E38EF7C6C2073F35E8AB4FD9B1799993E9B2F6FBDC214BCC91B399 PUSH1 0x0 SHL PUSH2 0x1C1C JUMP JUMPDEST PUSH1 0x0 SWAP1 POP JUMPDEST SWAP1 JUMP JUMPDEST PUSH1 0x0 PUSH1 0x20 MSTORE DUP1 PUSH1 0x0 MSTORE PUSH1 0x40 PUSH1 0x0 KECCAK256 PUSH1 0x0 SWAP2 POP SWAP1 POP DUP1 PUSH1 0x0 ADD SLOAD SWAP1 DUP1 PUSH1 0x1 ADD SLOAD SWAP1 POP DUP3 JUMP JUMPDEST PUSH2 0x1040 PUSH32 0x364037CC00296D2B972A42BA9C45F019E5BCA9D92E8F5CBA2D901C282871FFD3 PUSH1 0x0 SHL PUSH2 0x1C1C JUMP JUMPDEST PUSH2 0x106C PUSH32 0x92740882563A5B94DF822ABC0F9721E482962A8FBB940032713218603F883DE5 PUSH1 0x0 SHL PUSH2 0x1C1C JUMP JUMPDEST PUSH2 0x1098 PUSH32 0x45480AE32C9F56C3122EB0C5DA03D3827D1EBA5BD1F196DFAF2F4DC17147CEF8 PUSH1 0x0 SHL PUSH2 0x1C1C JUMP JUMPDEST PUSH2 0x10C4 PUSH32 0xE4A5D666EFB542C0D1C0035BA9C0EA2C419CEAC30B56EC1FC2035C0498E67534 PUSH1 0x0 SHL PUSH2 0x1C1C JUMP JUMPDEST PUSH32 0x0 PUSH20 0xFFFFFFFFFFFFFFFFFFFFFFFFFFFFFFFFFFFFFFFF AND CALLER PUSH20 0xFFFFFFFFFFFFFFFFFFFFFFFFFFFFFFFFFFFFFFFF AND EQ PUSH2 0x1152 JUMPI PUSH1 0x40 MLOAD PUSH32 0x8C379A000000000000000000000000000000000000000000000000000000000 DUP2 MSTORE PUSH1 0x4 ADD PUSH2 0x1149 SWAP1 PUSH2 0x1E2F JUMP JUMPDEST PUSH1 0x40 MLOAD DUP1 SWAP2 SUB SWAP1 REVERT JUMPDEST PUSH2 0x117E PUSH32 0x3824004CF516116B0644517B87C770735ED6C329491FBEB8AA927442F72F9C44 PUSH1 0x0 SHL PUSH2 0x1C1C JUMP JUMPDEST PUSH2 0x11AA PUSH32 0xB8C5B8884134FD1805EA1DF2FB50C61F344330EC83739B991E2B5D2A411A29F9 PUSH1 0x0 SHL PUSH2 0x1C1C JUMP JUMPDEST DUP1 PUSH2 0x11D7 PUSH32 0xD935ED6B084021B7489E8078DAA41947165E2A5AB0AE3A2847A62C69A4A68988 PUSH1 0x0 SHL PUSH2 0x1C1C JUMP JUMPDEST PUSH2 0x1203 PUSH32 0xE420D0B1147E3CAFF302A7253601D20E2D66AAD0A108910D0BA3AB521D6E9601 PUSH1 0x0 SHL PUSH2 0x1C1C JUMP JUMPDEST PUSH2 0x122F PUSH32 0xDC37E1BDD721F744D6AEB2327F57AA000BBEB8FB50BED63377A99592176A23FA PUSH1 0x0 SHL PUSH2 0x1C1C JUMP JUMPDEST PUSH2 0x125B PUSH32 0xADDF6F789803C5462284C8E3861FD12F2E3F1EBC3D686749C092CD1119D1473B PUSH1 0x0 SHL PUSH2 0x1C1C JUMP JUMPDEST PUSH1 0x0 DUP2 LT ISZERO DUP1 ISZERO PUSH2 0x126C JUMPI POP PUSH1 0x8 DUP2 LT JUMPDEST PUSH2 0x12AB JUMPI PUSH1 0x40 MLOAD PUSH32 0x8C379A000000000000000000000000000000000000000000000000000000000 DUP2 MSTORE PUSH1 0x4 ADD PUSH2 0x12A2 SWAP1 PUSH2 0x1FCB JUMP JUMPDEST PUSH1 0x40 MLOAD DUP1 SWAP2 SUB SWAP1 REVERT JUMPDEST PUSH2 0x12D7 PUSH32 0x55F3D4E0D5CD45F603E139429EAC166C3F98FCEB40D305D9F3B8FE8296E7715F PUSH1 0x0 SHL PUSH2 0x1C1C JUMP JUMPDEST PUSH2 0x1303 PUSH32 0xB7C85819CE72300F736B612C4E7B35A2C3D634C4004FBE677DC1A117F29355A8 PUSH1 0x0 SHL PUSH2 0x1C1C JUMP JUMPDEST PUSH2 0x132F PUSH32 0x28063EE4578834AC02EB374F1CB6F6AF9BA7B45FADA9B5D4C878C9E33FB65A87 PUSH1 0x0 SHL PUSH2 0x1C1C JUMP JUMPDEST PUSH2 0x135B PUSH32 0x895AF5A716EB2AFF185481A55D9EBB71CB0D3E408BDDC00F149B832998390FFD PUSH1 0x0 SHL PUSH2 0x1C1C JUMP JUMPDEST PUSH2 0x1387 PUSH32 0xD19D9C2C0AEC9861101E03BA10100221BF0651E9B63B7F5C32B9AA86EA304033 PUSH1 0x0 SHL PUSH2 0x1C1C JUMP JUMPDEST PUSH2 0x13B3 PUSH32 0x5287F6772B5B57158C1B36C7AC118F720EEA1D0756B2C29A6C93383097C4E022 PUSH1 0x0 SHL PUSH2 0x1C1C JUMP JUMPDEST PUSH1 0x1 PUSH1 0x0 DUP1 DUP5 DUP2 MSTORE PUSH1 0x20 ADD SWAP1 DUP2 MSTORE PUSH1 0x20 ADD PUSH1 0x0 KECCAK256 PUSH1 0x0 ADD SLOAD EQ PUSH2 0x140B JUMPI PUSH1 0x40 MLOAD PUSH32 0x8C379A000000000000000000000000000000000000000000000000000000000 DUP2 MSTORE PUSH1 0x4 ADD PUSH2 0x1402 SWAP1 PUSH2 0x2179 JUMP JUMPDEST PUSH1 0x40 MLOAD DUP1 SWAP2 SUB SWAP1 REVERT JUMPDEST PUSH2 0x1437 PUSH32 0x55FC616E4014E15288C8EC7F9E0C5AA55FD8D16A89ED608A979BE3D6CA444F22 PUSH1 0x0 SHL PUSH2 0x1C1C JUMP JUMPDEST PUSH2 0x1463 PUSH32 0x18EC831919FC91DDE9FAFA24D03C0A37C3DAE2EFC858CE11210BF427926DE112 PUSH1 0x0 SHL PUSH2 0x1C1C JUMP JUMPDEST PUSH2 0x148F PUSH32 0xA383F603EBBF8E79B41945D61037105FED20B7A86450D725E5A33D1DAEFFDFAB PUSH1 0x0 SHL PUSH2 0x1C1C JUMP JUMPDEST PUSH1 0x2 PUSH1 0x0 DUP1 DUP5 DUP2 MSTORE PUSH1 0x20 ADD SWAP1 DUP2 MSTORE PUSH1 0x20 ADD PUSH1 0x0 KECCAK256 PUSH1 0x0 ADD DUP2 SWAP1 SSTORE POP PUSH2 0x14D6 PUSH32 0x4656BDE92C66DB4DAC1D432C296D6E85B126BCAA507ED0AB2B64C44B659C6C03 PUSH1 0x0 SHL PUSH2 0x1C1C JUMP JUMPDEST PUSH2 0x1502 PUSH32 0x851945C4CEA7BBE8807023C8F19D1EFA15BC80284D88B6486E496762A4ADC94D PUSH1 0x0 SHL PUSH2 0x1C1C JUMP JUMPDEST TIMESTAMP PUSH1 0x0 DUP1 DUP5 DUP2 MSTORE PUSH1 0x20 ADD SWAP1 DUP2 MSTORE PUSH1 0x20 ADD PUSH1 0x0 KECCAK256 PUSH1 0x1 ADD PUSH1 0x0 DUP3 DUP3 SLOAD PUSH2 0x1527 SWAP2 SWAP1 PUSH2 0x2199 JUMP JUMPDEST SWAP3 POP POP DUP2 SWAP1 SSTORE POP PUSH2 0x155A PUSH32 0x4473EEDB6222C4BAAE94AD34F8AE8B6B945508EA0DD9211778609A180BB569A5 PUSH1 0x0 SHL PUSH2 0x1C1C JUMP JUMPDEST PUSH2 0x1586 PUSH32 0x2BA296463EFF553635A869C95ED3E449DEF45BB5606F205A3DC64C7890EB767 PUSH1 0x0 SHL PUSH2 0x1C1C JUMP JUMPDEST PUSH32 0x72FDFD0F629C78D86D13A56EC6144A2C6A4904AD7DE41D8089E90B00FF65A94A PUSH1 0x40 MLOAD PUSH1 0x40 MLOAD DUP1 SWAP2 SUB SWAP1 LOG1 POP POP JUMP JUMPDEST PUSH2 0x15E2 PUSH32 0x364037CC00296D2B972A42BA9C45F019E5BCA9D92E8F5CBA2D901C282871FFD3 PUSH1 0x0 SHL PUSH2 0x1C1C JUMP JUMPDEST PUSH2 0x160E PUSH32 0x92740882563A5B94DF822ABC0F9721E482962A8FBB940032713218603F883DE5 PUSH1 0x0 SHL PUSH2 0x1C1C JUMP JUMPDEST PUSH2 0x163A PUSH32 0x45480AE32C9F56C3122EB0C5DA03D3827D1EBA5BD1F196DFAF2F4DC17147CEF8 PUSH1 0x0 SHL PUSH2 0x1C1C JUMP JUMPDEST PUSH2 0x1666 PUSH32 0xE4A5D666EFB542C0D1C0035BA9C0EA2C419CEAC30B56EC1FC2035C0498E67534 PUSH1 0x0 SHL PUSH2 0x1C1C JUMP JUMPDEST PUSH32 0x0 PUSH20 0xFFFFFFFFFFFFFFFFFFFFFFFFFFFFFFFFFFFFFFFF AND CALLER PUSH20 0xFFFFFFFFFFFFFFFFFFFFFFFFFFFFFFFFFFFFFFFF AND EQ PUSH2 0x16F4 JUMPI PUSH1 0x40 MLOAD PUSH32 0x8C379A000000000000000000000000000000000000000000000000000000000 DUP2 MSTORE PUSH1 0x4 ADD PUSH2 0x16EB SWAP1 PUSH2 0x1E2F JUMP JUMPDEST PUSH1 0x40 MLOAD DUP1 SWAP2 SUB SWAP1 REVERT JUMPDEST PUSH2 0x1720 PUSH32 0x3824004CF516116B0644517B87C770735ED6C329491FBEB8AA927442F72F9C44 PUSH1 0x0 SHL PUSH2 0x1C1C JUMP JUMPDEST PUSH2 0x174C PUSH32 0xB8C5B8884134FD1805EA1DF2FB50C61F344330EC83739B991E2B5D2A411A29F9 PUSH1 0x0 SHL PUSH2 0x1C1C JUMP JUMPDEST DUP1 PUSH2 0x1779 PUSH32 0xD935ED6B084021B7489E8078DAA41947165E2A5AB0AE3A2847A62C69A4A68988 PUSH1 0x0 SHL PUSH2 0x1C1C JUMP JUMPDEST PUSH2 0x17A5 PUSH32 0xE420D0B1147E3CAFF302A7253601D20E2D66AAD0A108910D0BA3AB521D6E9601 PUSH1 0x0 SHL PUSH2 0x1C1C JUMP JUMPDEST PUSH2 0x17D1 PUSH32 0xDC37E1BDD721F744D6AEB2327F57AA000BBEB8FB50BED63377A99592176A23FA PUSH1 0x0 SHL PUSH2 0x1C1C JUMP JUMPDEST PUSH2 0x17FD PUSH32 0xADDF6F789803C5462284C8E3861FD12F2E3F1EBC3D686749C092CD1119D1473B PUSH1 0x0 SHL PUSH2 0x1C1C JUMP JUMPDEST PUSH1 0x0 DUP2 LT ISZERO DUP1 ISZERO PUSH2 0x180E JUMPI POP PUSH1 0x8 DUP2 LT JUMPDEST PUSH2 0x184D JUMPI PUSH1 0x40 MLOAD PUSH32 0x8C379A000000000000000000000000000000000000000000000000000000000 DUP2 MSTORE PUSH1 0x4 ADD PUSH2 0x1844 SWAP1 PUSH2 0x1FCB JUMP JUMPDEST PUSH1 0x40 MLOAD DUP1 SWAP2 SUB SWAP1 REVERT JUMPDEST PUSH2 0x1879 PUSH32 0x55F3D4E0D5CD45F603E139429EAC166C3F98FCEB40D305D9F3B8FE8296E7715F PUSH1 0x0 SHL PUSH2 0x1C1C JUMP JUMPDEST PUSH2 0x18A5 PUSH32 0xB7C85819CE72300F736B612C4E7B35A2C3D634C4004FBE677DC1A117F29355A8 PUSH1 0x0 SHL PUSH2 0x1C1C JUMP JUMPDEST PUSH2 0x18D1 PUSH32 0x79A1186CC050C6FDE44126E8D4CA34F04680ECAAAA0BC62F5FF5FBAEE75E4F67 PUSH1 0x0 SHL PUSH2 0x1C1C JUMP JUMPDEST PUSH2 0x18FD PUSH32 0x7196DB510AEFACBFCCD67EDEE64272CD98549856E8D41595B8CB380218FDE4C6 PUSH1 0x0 SHL PUSH2 0x1C1C JUMP JUMPDEST PUSH2 0x1929 PUSH32 0xF3E0703ED1787D2123F2BABB2D974539C312C5123BFB1935610664D12AD17E81 PUSH1 0x0 SHL PUSH2 0x1C1C JUMP JUMPDEST PUSH2 0x1955 PUSH32 0xB6B7F9EB378EFDFB094ABF2BE9EB295D23E6DA3929297AE5AC26D5829C9D963F PUSH1 0x0 SHL PUSH2 0x1C1C JUMP JUMPDEST PUSH1 0x2 PUSH1 0x0 DUP1 DUP5 DUP2 MSTORE PUSH1 0x20 ADD SWAP1 DUP2 MSTORE PUSH1 0x20 ADD PUSH1 0x0 KECCAK256 PUSH1 0x0 ADD SLOAD EQ PUSH2 0x19AD JUMPI PUSH1 0x40 MLOAD PUSH32 0x8C379A000000000000000000000000000000000000000000000000000000000 DUP2 MSTORE PUSH1 0x4 ADD PUSH2 0x19A4 SWAP1 PUSH2 0x223F JUMP JUMPDEST PUSH1 0x40 MLOAD DUP1 SWAP2 SUB SWAP1 REVERT JUMPDEST PUSH2 0x19D9 PUSH32 0xAADA2C441AB2AAC400D60B41BB29DDF08E3572A23EC549730855906FBD092234 PUSH1 0x0 SHL PUSH2 0x1C1C JUMP JUMPDEST PUSH2 0x1A05 PUSH32 0x42D433E7D05BD8EB0040807F5A689A2342FE612901E733D7498CACFB138B2225 PUSH1 0x0 SHL PUSH2 0x1C1C JUMP JUMPDEST PUSH2 0x1A31 PUSH32 0x7DC325191A82EAEBB75E993407873D283221B70E59EB9EC2239D6A24D6438B29 PUSH1 0x0 SHL PUSH2 0x1C1C JUMP JUMPDEST PUSH1 0x1 PUSH1 0x0 DUP1 DUP5 DUP2 MSTORE PUSH1 0x20 ADD SWAP1 DUP2 MSTORE PUSH1 0x20 ADD PUSH1 0x0 KECCAK256 PUSH1 0x0 ADD DUP2 SWAP1 SSTORE POP PUSH2 0x1A78 PUSH32 0x7341CC96C27B41FAC7DAAEA06E4B5E28E31921BE80E254C10759928975A6F949 PUSH1 0x0 SHL PUSH2 0x1C1C JUMP JUMPDEST PUSH2 0x1AA4 PUSH32 0xB716DECB93CD9EFDEE7C3F13C675126CAF78E555C2BAE9755D31BB54A4A88AF8 PUSH1 0x0 SHL PUSH2 0x1C1C JUMP JUMPDEST TIMESTAMP PUSH1 0x0 DUP1 DUP5 DUP2 MSTORE PUSH1 0x20 ADD SWAP1 DUP2 MSTORE PUSH1 0x20 ADD PUSH1 0x0 KECCAK256 PUSH1 0x1 ADD PUSH1 0x0 DUP3 DUP3 SLOAD PUSH2 0x1AC9 SWAP2 SWAP1 PUSH2 0x20D7 JUMP JUMPDEST SWAP3 POP POP DUP2 SWAP1 SSTORE POP PUSH2 0x1AFC PUSH32 0xA39112EB11A8CB297F65273A15E8AE847077D5164613ECE29D6EDE457C4E7BF1 PUSH1 0x0 SHL PUSH2 0x1C1C JUMP JUMPDEST PUSH2 0x1B28 PUSH32 0x2139D2CB84787A92EB9C1D04C656BD03EA6E8A221BAF29E88F6D470C4D188834 PUSH1 0x0 SHL PUSH2 0x1C1C JUMP JUMPDEST PUSH32 0x72FDFD0F629C78D86D13A56EC6144A2C6A4904AD7DE41D8089E90B00FF65A94A PUSH1 0x40 MLOAD PUSH1 0x40 MLOAD DUP1 SWAP2 SUB SWAP1 LOG1 POP POP JUMP JUMPDEST PUSH32 0x0 DUP2 JUMP JUMPDEST PUSH1 0x0 PUSH2 0x1BAA PUSH32 0x6D23013A57BD6E5291691566A1524AAE2BE6B7CD4B8111C948B8D3996E01FFA6 PUSH1 0x0 SHL PUSH2 0x1C1C JUMP JUMPDEST PUSH2 0x1BD6 PUSH32 0xDD94F7B3F1FAF6F25F3D41BC999FB064CAAA57B3488C9E7E9CD1C0B8ABF8FC1 PUSH1 0x0 SHL PUSH2 0x1C1C JUMP JUMPDEST PUSH2 0x1C02 PUSH32 0x22F58F036D5506939A6F0BE9F5BB7E04A986511E3EC03393F87FDD391CADD010 PUSH1 0x0 SHL PUSH2 0x1C1C JUMP JUMPDEST PUSH7 0x18DE76816D8000 DUP3 PUSH2 0x1C15 SWAP2 SWAP1 PUSH2 0x207D JUMP JUMPDEST SWAP1 POP SWAP2 SWAP1 POP JUMP JUMPDEST POP JUMP JUMPDEST PUSH1 0x0 DUP1 REVERT JUMPDEST PUSH1 0x0 DUP2 SWAP1 POP SWAP2 SWAP1 POP JUMP JUMPDEST PUSH2 0x1C37 DUP2 PUSH2 0x1C24 JUMP JUMPDEST DUP2 EQ PUSH2 0x1C42 JUMPI PUSH1 0x0 DUP1 REVERT JUMPDEST POP JUMP JUMPDEST PUSH1 0x0 DUP2 CALLDATALOAD SWAP1 POP PUSH2 0x1C54 DUP2 PUSH2 0x1C2E JUMP JUMPDEST SWAP3 SWAP2 POP POP JUMP JUMPDEST PUSH1 0x0 DUP1 PUSH1 0x40 DUP4 DUP6 SUB SLT ISZERO PUSH2 0x1C71 JUMPI PUSH2 0x1C70 PUSH2 0x1C1F JUMP JUMPDEST JUMPDEST PUSH1 0x0 PUSH2 0x1C7F DUP6 DUP3 DUP7 ADD PUSH2 0x1C45 JUMP JUMPDEST SWAP3 POP POP PUSH1 0x20 PUSH2 0x1C90 DUP6 DUP3 DUP7 ADD PUSH2 0x1C45 JUMP JUMPDEST SWAP2 POP POP SWAP3 POP SWAP3 SWAP1 POP JUMP JUMPDEST PUSH1 0x0 DUP2 ISZERO ISZERO SWAP1 POP SWAP2 SWAP1 POP JUMP JUMPDEST PUSH2 0x1CAF DUP2 PUSH2 0x1C9A JUMP JUMPDEST DUP3 MSTORE POP POP JUMP JUMPDEST PUSH1 0x0 PUSH1 0x20 DUP3 ADD SWAP1 POP PUSH2 0x1CCA PUSH1 0x0 DUP4 ADD DUP5 PUSH2 0x1CA6 JUMP JUMPDEST SWAP3 SWAP2 POP POP JUMP JUMPDEST PUSH1 0x0 PUSH1 0x20 DUP3 DUP5 SUB SLT ISZERO PUSH2 0x1CE6 JUMPI PUSH2 0x1CE5 PUSH2 0x1C1F JUMP JUMPDEST JUMPDEST PUSH1 0x0 PUSH2 0x1CF4 DUP5 DUP3 DUP6 ADD PUSH2 0x1C45 JUMP JUMPDEST SWAP2 POP POP SWAP3 SWAP2 POP POP JUMP JUMPDEST PUSH2 0x1D06 DUP2 PUSH2 0x1C24 JUMP JUMPDEST DUP3 MSTORE POP POP JUMP JUMPDEST PUSH1 0x0 PUSH1 0x40 DUP3 ADD SWAP1 POP PUSH2 0x1D21 PUSH1 0x0 DUP4 ADD DUP6 PUSH2 0x1CFD JUMP JUMPDEST PUSH2 0x1D2E PUSH1 0x20 DUP4 ADD DUP5 PUSH2 0x1CFD JUMP JUMPDEST SWAP4 SWAP3 POP POP POP JUMP JUMPDEST PUSH1 0x0 PUSH20 0xFFFFFFFFFFFFFFFFFFFFFFFFFFFFFFFFFFFFFFFF DUP3 AND SWAP1 POP SWAP2 SWAP1 POP JUMP JUMPDEST PUSH1 0x0 PUSH2 0x1D60 DUP3 PUSH2 0x1D35 JUMP JUMPDEST SWAP1 POP SWAP2 SWAP1 POP JUMP JUMPDEST PUSH2 0x1D70 DUP2 PUSH2 0x1D55 JUMP JUMPDEST DUP3 MSTORE POP POP JUMP JUMPDEST PUSH1 0x0 PUSH1 0x20 DUP3 ADD SWAP1 POP PUSH2 0x1D8B PUSH1 0x0 DUP4 ADD DUP5 PUSH2 0x1D67 JUMP JUMPDEST SWAP3 SWAP2 POP POP JUMP JUMPDEST PUSH1 0x0 PUSH1 0x20 DUP3 ADD SWAP1 POP PUSH2 0x1DA6 PUSH1 0x0 DUP4 ADD DUP5 PUSH2 0x1CFD JUMP JUMPDEST SWAP3 SWAP2 POP POP JUMP JUMPDEST PUSH1 0x0 DUP3 DUP3 MSTORE PUSH1 0x20 DUP3 ADD SWAP1 POP SWAP3 SWAP2 POP POP JUMP JUMPDEST PUSH32 0x4F4E4C595F4F574E45525F57414C4C45545F414444524553535F4841535F4143 PUSH1 0x0 DUP3 ADD MSTORE PUSH32 0x434553532E000000000000000000000000000000000000000000000000000000 PUSH1 0x20 DUP3 ADD MSTORE POP JUMP JUMPDEST PUSH1 0x0 PUSH2 0x1E19 PUSH1 0x25 DUP4 PUSH2 0x1DAC JUMP JUMPDEST SWAP2 POP PUSH2 0x1E24 DUP3 PUSH2 0x1DBD JUMP JUMPDEST PUSH1 0x40 DUP3 ADD SWAP1 POP SWAP2 SWAP1 POP JUMP JUMPDEST PUSH1 0x0 PUSH1 0x20 DUP3 ADD SWAP1 POP DUP2 DUP2 SUB PUSH1 0x0 DUP4 ADD MSTORE PUSH2 0x1E48 DUP2 PUSH2 0x1E0C JUMP JUMPDEST SWAP1 POP SWAP2 SWAP1 POP JUMP JUMPDEST PUSH32 0x4E4F5F45585049524154494F4E5F5945542E0000000000000000000000000000 PUSH1 0x0 DUP3 ADD MSTORE POP JUMP JUMPDEST PUSH1 0x0 PUSH2 0x1E85 PUSH1 0x12 DUP4 PUSH2 0x1DAC JUMP JUMPDEST SWAP2 POP PUSH2 0x1E90 DUP3 PUSH2 0x1E4F JUMP JUMPDEST PUSH1 0x20 DUP3 ADD SWAP1 POP SWAP2 SWAP1 POP JUMP JUMPDEST PUSH1 0x0 PUSH1 0x20 DUP3 ADD SWAP1 POP DUP2 DUP2 SUB PUSH1 0x0 DUP4 ADD MSTORE PUSH2 0x1EB4 DUP2 PUSH2 0x1E78 JUMP JUMPDEST SWAP1 POP SWAP2 SWAP1 POP JUMP JUMPDEST PUSH32 0x4E487B7100000000000000000000000000000000000000000000000000000000 PUSH1 0x0 MSTORE PUSH1 0x11 PUSH1 0x4 MSTORE PUSH1 0x24 PUSH1 0x0 REVERT JUMPDEST PUSH1 0x0 PUSH2 0x1EF5 DUP3 PUSH2 0x1C24 JUMP JUMPDEST SWAP2 POP PUSH32 0xFFFFFFFFFFFFFFFFFFFFFFFFFFFFFFFFFFFFFFFFFFFFFFFFFFFFFFFFFFFFFFFF DUP3 EQ ISZERO PUSH2 0x1F28 JUMPI PUSH2 0x1F27 PUSH2 0x1EBB JUMP JUMPDEST JUMPDEST PUSH1 0x1 DUP3 ADD SWAP1 POP SWAP2 SWAP1 POP JUMP JUMPDEST PUSH32 0x4C45445F56414C5545535F5245445F305F424C55455F315F59454C4C4F575F32 PUSH1 0x0 DUP3 ADD MSTORE PUSH32 0x5F475245454E5F335F505552504C455F345F4F52414E47455F355F50494E4B5F PUSH1 0x20 DUP3 ADD MSTORE PUSH32 0x365F57484954455F372E00000000000000000000000000000000000000000000 PUSH1 0x40 DUP3 ADD MSTORE POP JUMP JUMPDEST PUSH1 0x0 PUSH2 0x1FB5 PUSH1 0x4A DUP4 PUSH2 0x1DAC JUMP JUMPDEST SWAP2 POP PUSH2 0x1FC0 DUP3 PUSH2 0x1F33 JUMP JUMPDEST PUSH1 0x60 DUP3 ADD SWAP1 POP SWAP2 SWAP1 POP JUMP JUMPDEST PUSH1 0x0 PUSH1 0x20 DUP3 ADD SWAP1 POP DUP2 DUP2 SUB PUSH1 0x0 DUP4 ADD MSTORE PUSH2 0x1FE4 DUP2 PUSH2 0x1FA8 JUMP JUMPDEST SWAP1 POP SWAP2 SWAP1 POP JUMP JUMPDEST PUSH32 0x4D5553545F484156455F4D494E555445535F475245415445525F5448414E5F30 PUSH1 0x0 DUP3 ADD MSTORE PUSH32 0x5F414E445F4D53475F56414C55453D4D494E555445532A4645452E0000000000 PUSH1 0x20 DUP3 ADD MSTORE POP JUMP JUMPDEST PUSH1 0x0 PUSH2 0x2047 PUSH1 0x3B DUP4 PUSH2 0x1DAC JUMP JUMPDEST SWAP2 POP PUSH2 0x2052 DUP3 PUSH2 0x1FEB JUMP JUMPDEST PUSH1 0x40 DUP3 ADD SWAP1 POP SWAP2 SWAP1 POP JUMP JUMPDEST PUSH1 0x0 PUSH1 0x20 DUP3 ADD SWAP1 POP DUP2 DUP2 SUB PUSH1 0x0 DUP4 ADD MSTORE PUSH2 0x2076 DUP2 PUSH2 0x203A JUMP JUMPDEST SWAP1 POP SWAP2 SWAP1 POP JUMP JUMPDEST PUSH1 0x0 PUSH2 0x2088 DUP3 PUSH2 0x1C24 JUMP JUMPDEST SWAP2 POP PUSH2 0x2093 DUP4 PUSH2 0x1C24 JUMP JUMPDEST SWAP3 POP DUP2 PUSH32 0xFFFFFFFFFFFFFFFFFFFFFFFFFFFFFFFFFFFFFFFFFFFFFFFFFFFFFFFFFFFFFFFF DIV DUP4 GT DUP3 ISZERO ISZERO AND ISZERO PUSH2 0x20CC JUMPI PUSH2 0x20CB PUSH2 0x1EBB JUMP JUMPDEST JUMPDEST DUP3 DUP3 MUL SWAP1 POP SWAP3 SWAP2 POP POP JUMP JUMPDEST PUSH1 0x0 PUSH2 0x20E2 DUP3 PUSH2 0x1C24 JUMP JUMPDEST SWAP2 POP PUSH2 0x20ED DUP4 PUSH2 0x1C24 JUMP JUMPDEST SWAP3 POP DUP3 PUSH32 0xFFFFFFFFFFFFFFFFFFFFFFFFFFFFFFFFFFFFFFFFFFFFFFFFFFFFFFFFFFFFFFFF SUB DUP3 GT ISZERO PUSH2 0x2122 JUMPI PUSH2 0x2121 PUSH2 0x1EBB JUMP JUMPDEST JUMPDEST DUP3 DUP3 ADD SWAP1 POP SWAP3 SWAP2 POP POP JUMP JUMPDEST PUSH32 0x564F4C544147455F4E4F545F4F4E2E0000000000000000000000000000000000 PUSH1 0x0 DUP3 ADD MSTORE POP JUMP JUMPDEST PUSH1 0x0 PUSH2 0x2163 PUSH1 0xF DUP4 PUSH2 0x1DAC JUMP JUMPDEST SWAP2 POP PUSH2 0x216E DUP3 PUSH2 0x212D JUMP JUMPDEST PUSH1 0x20 DUP3 ADD SWAP1 POP SWAP2 SWAP1 POP JUMP JUMPDEST PUSH1 0x0 PUSH1 0x20 DUP3 ADD SWAP1 POP DUP2 DUP2 SUB PUSH1 0x0 DUP4 ADD MSTORE PUSH2 0x2192 DUP2 PUSH2 0x2156 JUMP JUMPDEST SWAP1 POP SWAP2 SWAP1 POP JUMP JUMPDEST PUSH1 0x0 PUSH2 0x21A4 DUP3 PUSH2 0x1C24 JUMP JUMPDEST SWAP2 POP PUSH2 0x21AF DUP4 PUSH2 0x1C24 JUMP JUMPDEST SWAP3 POP DUP3 DUP3 LT ISZERO PUSH2 0x21C2 JUMPI PUSH2 0x21C1 PUSH2 0x1EBB JUMP JUMPDEST JUMPDEST DUP3 DUP3 SUB SWAP1 POP SWAP3 SWAP2 POP POP JUMP JUMPDEST PUSH32 0x564F4C544147455F4E4F545F494E5F454D455247454E43595F4F46465F535441 PUSH1 0x0 DUP3 ADD MSTORE PUSH32 0x54452E0000000000000000000000000000000000000000000000000000000000 PUSH1 0x20 DUP3 ADD MSTORE POP JUMP JUMPDEST PUSH1 0x0 PUSH2 0x2229 PUSH1 0x23 DUP4 PUSH2 0x1DAC JUMP JUMPDEST SWAP2 POP PUSH2 0x2234 DUP3 PUSH2 0x21CD JUMP JUMPDEST PUSH1 0x40 DUP3 ADD SWAP1 POP SWAP2 SWAP1 POP JUMP JUMPDEST PUSH1 0x0 PUSH1 0x20 DUP3 ADD SWAP1 POP DUP2 DUP2 SUB PUSH1 0x0 DUP4 ADD MSTORE PUSH2 0x2258 DUP2 PUSH2 0x221C JUMP JUMPDEST SWAP1 POP SWAP2 SWAP1 POP JUMP INVALID LOG2 PUSH5 0x6970667358 0x22 SLT KECCAK256 DUP12 0xBB EXTCODESIZE 0xCB MSIZE 0xDC GAS 0xEB 0x4B 0xB7 COINBASE GASLIMIT PUSH21 0xFE0147E37446CDB501A05CA0103FA75FBEC2076473 PUSH16 0x6C634300080C00330000000000000000 "
        },
        "methodIdentifiers": {
          "BuyElectricityTimeOn(uint256,uint256)": "494762f6",
          "LED(uint256)": "6bf93b66",
          "Owner()": "b4a99a4e",
          "OwnerEmergencyDangerOff(uint256)": "979c22ce",
          "OwnerEmergencySafeOn(uint256)": "9e476c29",
          "OwnerManualExpirationOff()": "0e2e1ff3",
          "expirationOccured()": "571fcf0a",
          "onePennyUSDinMatic(uint256)": "b9dbf3d1"
        }
      }
    }
  }
}