{
  "_format": "hh-sol-artifact-1",
  "contractName": "OnePennyUSDinMatic",
  "sourceName": "contract/OnePennyUSDinMaticPriceFeed.sol",
  "abi": [
    {
      "inputs": [],
      "stateMutability": "nonpayable",
      "type": "constructor"
    },
    {
      "inputs": [],
      "name": "getLatestPrice",
      "outputs": [
        {
          "internalType": "uint256",
          "name": "",
          "type": "uint256"
        }
      ],
      "stateMutability": "view",
      "type": "function"
    },
    {
      "inputs": [],
      "name": "payPenny",
      "outputs": [],
      "stateMutability": "payable",
      "type": "function"
    }
  ],
  "bytecode": "0x608060405234801561001057600080fd5b5033600160006101000a81548173ffffffffffffffffffffffffffffffffffffffff021916908373ffffffffffffffffffffffffffffffffffffffff16021790555073d0d5e3db44de05e9f294bb0a3beeaf030de24ada6000806101000a81548173ffffffffffffffffffffffffffffffffffffffff021916908373ffffffffffffffffffffffffffffffffffffffff1602179055506105f5806100b56000396000f3fe6080604052600436106100295760003560e01c80631728c5261461002e5780638e15f47314610038575b600080fd5b610036610063565b005b34801561004457600080fd5b5061004d610117565b60405161005a91906101fe565b60405180910390f35b61006b610117565b34146100ac576040517f08c379a00000000000000000000000000000000000000000000000000000000081526004016100a39061029c565b60405180910390fd5b600160009054906101000a900473ffffffffffffffffffffffffffffffffffffffff1673ffffffffffffffffffffffffffffffffffffffff166108fc479081150290604051600060405180830381858888f19350505050158015610114573d6000803e3d6000fd5b50565b60008060008060008060008054906101000a900473ffffffffffffffffffffffffffffffffffffffff1673ffffffffffffffffffffffffffffffffffffffff1663feaf968c6040518163ffffffff1660e01b815260040160a060405180830381865afa15801561018b573d6000803e3d6000fd5b505050506040513d601f19601f820116820180604052508101906101af9190610365565b94509450945094509450620f424084670de0b6b3a76400006101d1919061043e565b6101db91906104a8565b9550505050505090565b6000819050919050565b6101f8816101e5565b82525050565b600060208201905061021360008301846101ef565b92915050565b600082825260208201905092915050565b7f4d53475f56414c55455f444f45535f4e4f545f4d415443485f5052494345464560008201527f45445f434f4e56455253494f4e2e000000000000000000000000000000000000602082015250565b6000610286602e83610219565b91506102918261022a565b604082019050919050565b600060208201905081810360008301526102b581610279565b9050919050565b600080fd5b600069ffffffffffffffffffff82169050919050565b6102e0816102c1565b81146102eb57600080fd5b50565b6000815190506102fd816102d7565b92915050565b6000819050919050565b61031681610303565b811461032157600080fd5b50565b6000815190506103338161030d565b92915050565b610342816101e5565b811461034d57600080fd5b50565b60008151905061035f81610339565b92915050565b600080600080600060a08688031215610381576103806102bc565b5b600061038f888289016102ee565b95505060206103a088828901610324565b94505060406103b188828901610350565b93505060606103c288828901610350565b92505060806103d3888289016102ee565b9150509295509295909350565b7f4e487b7100000000000000000000000000000000000000000000000000000000600052601260045260246000fd5b7f4e487b7100000000000000000000000000000000000000000000000000000000600052601160045260246000fd5b600061044982610303565b915061045483610303565b925082610464576104636103e0565b5b600160000383147f80000000000000000000000000000000000000000000000000000000000000008314161561049d5761049c61040f565b5b828205905092915050565b60006104b382610303565b91506104be83610303565b9250827f7fffffffffffffffffffffffffffffffffffffffffffffffffffffffffffffff04821160008413600084131616156104fd576104fc61040f565b5b817f8000000000000000000000000000000000000000000000000000000000000000058312600084126000841316161561053a5761053961040f565b5b827f800000000000000000000000000000000000000000000000000000000000000005821260008413600084121616156105775761057661040f565b5b827f7fffffffffffffffffffffffffffffffffffffffffffffffffffffffffffffff05821260008412600084121616156105b4576105b361040f565b5b82820290509291505056fea2646970667358221220297ad24daaa38458d14bde109a83c2070ff4e61d25c0cc4a6a50fd74d518433964736f6c634300080c0033",
  "linkReferences": {},
  "deployedLinkReferences": {}
}