{
  "_format": "hh-sol-artifact-1",
  "contractName": "VRFv2LightShow",
  "sourceName": "contracts/LightShowVRFv2V3.sol",
  "abi": [
    {
      "inputs": [],
      "stateMutability": "nonpayable",
      "type": "constructor"
    },
    {
      "inputs": [
        {
          "internalType": "address",
          "name": "have",
          "type": "address"
        },
        {
          "internalType": "address",
          "name": "want",
          "type": "address"
        }
      ],
      "name": "OnlyCoordinatorCanFulfill",
      "type": "error"
    },
    {
      "anonymous": false,
      "inputs": [],
      "name": "lightShowUpdate",
      "type": "event"
    },
    {
      "inputs": [
        {
          "internalType": "uint256",
          "name": "requestId",
          "type": "uint256"
        },
        {
          "internalType": "uint256[]",
          "name": "randomWords",
          "type": "uint256[]"
        }
      ],
      "name": "rawFulfillRandomWords",
      "outputs": [],
      "stateMutability": "nonpayable",
      "type": "function"
    },
    {
      "inputs": [],
      "name": "requestRandomWords",
      "outputs": [],
      "stateMutability": "nonpayable",
      "type": "function"
    },
    {
      "inputs": [
        {
          "internalType": "uint256",
          "name": "",
          "type": "uint256"
        }
      ],
      "name": "twoRandomWords",
      "outputs": [
        {
          "internalType": "uint256",
          "name": "",
          "type": "uint256"
        }
      ],
      "stateMutability": "view",
      "type": "function"
    }
  ],
  "bytecode": "0x60a060405234801561001057600080fd5b50736168499c0cffcacd319c818142124b7a15e857ab8073ffffffffffffffffffffffffffffffffffffffff1660808173ffffffffffffffffffffffffffffffffffffffff168152505050736168499c0cffcacd319c818142124b7a15e857ab6000806101000a81548173ffffffffffffffffffffffffffffffffffffffff021916908373ffffffffffffffffffffffffffffffffffffffff1602179055507301be23585060835e02b77ef475b0cc51aa1e0709600160006101000a81548173ffffffffffffffffffffffffffffffffffffffff021916908373ffffffffffffffffffffffffffffffffffffffff16021790555060805161080961012460003960008181609e015260f201526108096000f3fe608060405234801561001057600080fd5b50600436106100415760003560e01c80631fe543e314610046578063bb5ddca714610062578063e0c8628914610092575b600080fd5b610060600480360381019061005b91906104a7565b61009c565b005b61007c60048036038101906100779190610503565b61015c565b604051610089919061053f565b60405180910390f35b61009a610180565b005b7f000000000000000000000000000000000000000000000000000000000000000073ffffffffffffffffffffffffffffffffffffffff163373ffffffffffffffffffffffffffffffffffffffff161461014e57337f00000000000000000000000000000000000000000000000000000000000000006040517f1cf993f400000000000000000000000000000000000000000000000000000000815260040161014592919061059b565b60405180910390fd5b6101588282610253565b5050565b6002818154811061016c57600080fd5b906000526020600020016000915090505481565b60008054906101000a900473ffffffffffffffffffffffffffffffffffffffff1673ffffffffffffffffffffffffffffffffffffffff16635d3b1d307fd89b2bf150e3b9e13446986e571fb9cab24b13cea0a43ea20a6049a85cc807cc6102116003620186a060026040518663ffffffff1660e01b815260040161020895949392919061073e565b6020604051808303816000875af1158015610227573d6000803e3d6000fd5b505050506040513d601f19601f8201168201806040525081019061024b91906107a6565b600381905550565b806002908051906020019061026992919061029a565b507f42bdd79a13a9dc28b4ca71b2cc2ff79ba5c6aa1c56afc8a4a1e28107866c2e2d60405160405180910390a15050565b8280548282559060005260206000209081019282156102d6579160200282015b828111156102d55782518255916020019190600101906102ba565b5b5090506102e391906102e7565b5090565b5b808211156103005760008160009055506001016102e8565b5090565b6000604051905090565b600080fd5b600080fd5b6000819050919050565b61032b81610318565b811461033657600080fd5b50565b60008135905061034881610322565b92915050565b600080fd5b6000601f19601f8301169050919050565b7f4e487b7100000000000000000000000000000000000000000000000000000000600052604160045260246000fd5b61039c82610353565b810181811067ffffffffffffffff821117156103bb576103ba610364565b5b80604052505050565b60006103ce610304565b90506103da8282610393565b919050565b600067ffffffffffffffff8211156103fa576103f9610364565b5b602082029050602081019050919050565b600080fd5b600061042361041e846103df565b6103c4565b905080838252602082019050602084028301858111156104465761044561040b565b5b835b8181101561046f578061045b8882610339565b845260208401935050602081019050610448565b5050509392505050565b600082601f83011261048e5761048d61034e565b5b813561049e848260208601610410565b91505092915050565b600080604083850312156104be576104bd61030e565b5b60006104cc85828601610339565b925050602083013567ffffffffffffffff8111156104ed576104ec610313565b5b6104f985828601610479565b9150509250929050565b6000602082840312156105195761051861030e565b5b600061052784828501610339565b91505092915050565b61053981610318565b82525050565b60006020820190506105546000830184610530565b92915050565b600073ffffffffffffffffffffffffffffffffffffffff82169050919050565b60006105858261055a565b9050919050565b6105958161057a565b82525050565b60006040820190506105b0600083018561058c565b6105bd602083018461058c565b9392505050565b6000819050919050565b6000819050919050565b60008160001b9050919050565b60006106006105fb6105f6846105c4565b6105d8565b6105ce565b9050919050565b610610816105e5565b82525050565b6000819050919050565b600067ffffffffffffffff82169050919050565b6000819050919050565b600061065961065461064f84610616565b610634565b610620565b9050919050565b6106698161063e565b82525050565b6000819050919050565b600061ffff82169050919050565b60006106a261069d6106988461066f565b610634565b610679565b9050919050565b6106b281610687565b82525050565b6000819050919050565b600063ffffffff82169050919050565b60006106ed6106e86106e3846106b8565b610634565b6106c2565b9050919050565b6106fd816106d2565b82525050565b6000819050919050565b600061072861072361071e84610703565b610634565b6106c2565b9050919050565b6107388161070d565b82525050565b600060a0820190506107536000830188610607565b6107606020830187610660565b61076d60408301866106a9565b61077a60608301856106f4565b610787608083018461072f565b9695505050505050565b6000815190506107a081610322565b92915050565b6000602082840312156107bc576107bb61030e565b5b60006107ca84828501610791565b9150509291505056fea26469706673582212207588203ae6db2616149cfc5134bc7f47a33bed5b38466049d2f42b28c4d3679d64736f6c634300080c0033",
  "linkReferences": {},
  "deployedLinkReferences": {}
}