{
  "_format": "hh-sol-artifact-1",
  "contractName": "BuyDemoEightMinutes",
  "sourceName": "contract/ElectricKeeperV21.sol",
  "abi": [
    {
      "inputs": [
        {
          "internalType": "contract ElectricKeeper",
          "name": "electricKeeperAddress",
          "type": "address"
        }
      ],
      "stateMutability": "nonpayable",
      "type": "constructor"
    },
    {
      "inputs": [],
      "name": "BuyTestEightMinuteCountdown",
      "outputs": [],
      "stateMutability": "payable",
      "type": "function"
    }
  ],
  "bytecode": "0x608060405234801561001057600080fd5b50604051610424380380610424833981810160405281019061003291906100ed565b806000806101000a81548173ffffffffffffffffffffffffffffffffffffffff021916908373ffffffffffffffffffffffffffffffffffffffff1602179055505061011a565b600080fd5b600073ffffffffffffffffffffffffffffffffffffffff82169050919050565b60006100a88261007d565b9050919050565b60006100ba8261009d565b9050919050565b6100ca816100af565b81146100d557600080fd5b50565b6000815190506100e7816100c1565b92915050565b60006020828403121561010357610102610078565b5b6000610111848285016100d8565b91505092915050565b6102fb806101296000396000f3fe60806040526004361061001e5760003560e01c8063eb4c968d14610023575b600080fd5b61002b61002d565b005b60243414610070576040517f08c379a000000000000000000000000000000000000000000000000000000000815260040161006790610195565b60405180910390fd5b60005b60088110156101355760008054906101000a900473ffffffffffffffffffffffffffffffffffffffff1673ffffffffffffffffffffffffffffffffffffffff1663494762f66001836100c591906101ee565b836001856100d391906101ee565b6040518463ffffffff1660e01b81526004016100f0929190610253565b6000604051808303818588803b15801561010957600080fd5b505af115801561011d573d6000803e3d6000fd5b5050505050808061012d9061027c565b915050610073565b50565b600082825260208201905092915050565b7f4e4545445f33365f5745492e0000000000000000000000000000000000000000600082015250565b600061017f600c83610138565b915061018a82610149565b602082019050919050565b600060208201905081810360008301526101ae81610172565b9050919050565b6000819050919050565b7f4e487b7100000000000000000000000000000000000000000000000000000000600052601160045260246000fd5b60006101f9826101b5565b9150610204836101b5565b9250827fffffffffffffffffffffffffffffffffffffffffffffffffffffffffffffffff03821115610239576102386101bf565b5b828201905092915050565b61024d816101b5565b82525050565b60006040820190506102686000830185610244565b6102756020830184610244565b9392505050565b6000610287826101b5565b91507fffffffffffffffffffffffffffffffffffffffffffffffffffffffffffffffff8214156102ba576102b96101bf565b5b60018201905091905056fea264697066735822122066754a246bc65eb436daa2b05bc51ecd18200edfdb4e626ba828e740b74eab6f64736f6c634300080c0033",
  "linkReferences": {},
  "deployedLinkReferences": {}
}