{
  "_format": "hh-sol-artifact-1",
  "contractName": "ElectricKeeper",
  "sourceName": "contract/ElectricKeeperV21.sol",
  "abi": [
    {
      "inputs": [],
      "stateMutability": "nonpayable",
      "type": "constructor"
    },
    {
      "anonymous": false,
      "inputs": [],
      "name": "VoltageChange",
      "type": "event"
    },
    {
      "inputs": [
        {
          "internalType": "uint256",
          "name": "ledValue",
          "type": "uint256"
        },
        {
          "internalType": "uint256",
          "name": "minutesToHaveOn",
          "type": "uint256"
        }
      ],
      "name": "BuyElectricityTimeOn",
      "outputs": [],
      "stateMutability": "payable",
      "type": "function"
    },
    {
      "inputs": [
        {
          "internalType": "uint256",
          "name": "",
          "type": "uint256"
        }
      ],
      "name": "LED",
      "outputs": [
        {
          "internalType": "uint256",
          "name": "Voltage",
          "type": "uint256"
        },
        {
          "internalType": "uint256",
          "name": "ExpirationTimeUNIX",
          "type": "uint256"
        }
      ],
      "stateMutability": "view",
      "type": "function"
    },
    {
      "inputs": [],
      "name": "Owner",
      "outputs": [
        {
          "internalType": "address",
          "name": "",
          "type": "address"
        }
      ],
      "stateMutability": "view",
      "type": "function"
    },
    {
      "inputs": [
        {
          "internalType": "uint256",
          "name": "ledValue",
          "type": "uint256"
        }
      ],
      "name": "OwnerEmergencyDangerOff",
      "outputs": [],
      "stateMutability": "nonpayable",
      "type": "function"
    },
    {
      "inputs": [
        {
          "internalType": "uint256",
          "name": "ledValue",
          "type": "uint256"
        }
      ],
      "name": "OwnerEmergencySafeOn",
      "outputs": [],
      "stateMutability": "nonpayable",
      "type": "function"
    },
    {
      "inputs": [],
      "name": "OwnerManualExpirationOff",
      "outputs": [],
      "stateMutability": "nonpayable",
      "type": "function"
    },
    {
      "inputs": [
        {
          "internalType": "bytes",
          "name": "",
          "type": "bytes"
        }
      ],
      "name": "checkUpkeep",
      "outputs": [
        {
          "internalType": "bool",
          "name": "upkeepNeeded",
          "type": "bool"
        },
        {
          "internalType": "bytes",
          "name": "",
          "type": "bytes"
        }
      ],
      "stateMutability": "nonpayable",
      "type": "function"
    },
    {
      "inputs": [],
      "name": "expirationOccured",
      "outputs": [
        {
          "internalType": "bool",
          "name": "",
          "type": "bool"
        }
      ],
      "stateMutability": "view",
      "type": "function"
    },
    {
      "inputs": [
        {
          "internalType": "bytes",
          "name": "",
          "type": "bytes"
        }
      ],
      "name": "performUpkeep",
      "outputs": [],
      "stateMutability": "nonpayable",
      "type": "function"
    }
  ],
  "bytecode": "0x60a060405234801561001057600080fd5b503373ffffffffffffffffffffffffffffffffffffffff1660808173ffffffffffffffffffffffffffffffffffffffff168152505060805161125061007c6000396000818161020d015281816105dd015281816106f7015281816108a50152610a5301526112506000f3fe6080604052600436106100865760003560e01c80636bf93b66116100595780636bf93b66146101125780636e04ff0d14610150578063979c22ce1461018e5780639e476c29146101b7578063b4a99a4e146101e057610086565b80630e2e1ff31461008b5780634585e33b146100a2578063494762f6146100cb578063571fcf0a146100e7575b600080fd5b34801561009757600080fd5b506100a061020b565b005b3480156100ae57600080fd5b506100c960048036038101906100c49190610ae4565b6103a3565b005b6100e560048036038101906100e09190610b67565b610468565b005b3480156100f357600080fd5b506100fc610647565b6040516101099190610bc2565b60405180910390f35b34801561011e57600080fd5b5061013960048036038101906101349190610bdd565b6106bc565b604051610147929190610c19565b60405180910390f35b34801561015c57600080fd5b5061017760048036038101906101729190610ae4565b6106e0565b604051610185929190610cdb565b60405180910390f35b34801561019a57600080fd5b506101b560048036038101906101b09190610bdd565b6106f5565b005b3480156101c357600080fd5b506101de60048036038101906101d99190610bdd565b6108a3565b005b3480156101ec57600080fd5b506101f5610a51565b6040516102029190610d4c565b60405180910390f35b7f000000000000000000000000000000000000000000000000000000000000000073ffffffffffffffffffffffffffffffffffffffff163373ffffffffffffffffffffffffffffffffffffffff1614610299576040517f08c379a000000000000000000000000000000000000000000000000000000000815260040161029090610dea565b60405180910390fd5b6102a1610647565b6102e0576040517f08c379a00000000000000000000000000000000000000000000000000000000081526004016102d790610e56565b60405180910390fd5b60005b60088110156103745760016000808381526020019081526020016000206000015414801561032557506000808281526020019081526020016000206001015442115b15610361576000806000838152602001908152602001600020600001819055506000806000838152602001908152602001600020600101819055505b808061036c90610ea5565b9150506102e3565b507f72fdfd0f629c78d86d13a56ec6144a2c6a4904ad7de41d8089e90b00ff65a94a60405160405180910390a1565b60005b6008811015610437576001600080838152602001908152602001600020600001541480156103e857506000808281526020019081526020016000206001015442115b15610424576000806000838152602001908152602001600020600001819055506000806000838152602001908152602001600020600101819055505b808061042f90610ea5565b9150506103a6565b507f72fdfd0f629c78d86d13a56ec6144a2c6a4904ad7de41d8089e90b00ff65a94a60405160405180910390a15050565b816000811015801561047a5750600881105b6104b9576040517f08c379a00000000000000000000000000000000000000000000000000000000081526004016104b090610f86565b60405180910390fd5b81341480156104c85750600082115b610507576040517f08c379a00000000000000000000000000000000000000000000000000000000081526004016104fe90611018565b60405180910390fd5b60008060008581526020019081526020016000206000015414156105765760016000808581526020019081526020016000206000018190555081603c61054d9190611038565b426105589190611092565b600080858152602001908152602001600020600101819055506105af565b81603c6105839190611038565b60008085815260200190815260200160002060010160008282546105a79190611092565b925050819055505b7f72fdfd0f629c78d86d13a56ec6144a2c6a4904ad7de41d8089e90b00ff65a94a60405160405180910390a17f000000000000000000000000000000000000000000000000000000000000000073ffffffffffffffffffffffffffffffffffffffff166108fc479081150290604051600060405180830381858888f19350505050158015610641573d6000803e3d6000fd5b50505050565b600080600090505b60088110156106b35760016000808381526020019081526020016000206000015414801561069157506000808281526020019081526020016000206001015442115b156106a05760019150506106b9565b80806106ab90610ea5565b91505061064f565b50600090505b90565b60006020528060005260406000206000915090508060000154908060010154905082565b600060606106ec610647565b91509250929050565b7f000000000000000000000000000000000000000000000000000000000000000073ffffffffffffffffffffffffffffffffffffffff163373ffffffffffffffffffffffffffffffffffffffff1614610783576040517f08c379a000000000000000000000000000000000000000000000000000000000815260040161077a90610dea565b60405180910390fd5b80600081101580156107955750600881105b6107d4576040517f08c379a00000000000000000000000000000000000000000000000000000000081526004016107cb90610f86565b60405180910390fd5b6001600080848152602001908152602001600020600001541461082c576040517f08c379a000000000000000000000000000000000000000000000000000000000815260040161082390611134565b60405180910390fd5b60026000808481526020019081526020016000206000018190555042600080848152602001908152602001600020600101600082825461086c9190611154565b925050819055507f72fdfd0f629c78d86d13a56ec6144a2c6a4904ad7de41d8089e90b00ff65a94a60405160405180910390a15050565b7f000000000000000000000000000000000000000000000000000000000000000073ffffffffffffffffffffffffffffffffffffffff163373ffffffffffffffffffffffffffffffffffffffff1614610931576040517f08c379a000000000000000000000000000000000000000000000000000000000815260040161092890610dea565b60405180910390fd5b80600081101580156109435750600881105b610982576040517f08c379a000000000000000000000000000000000000000000000000000000000815260040161097990610f86565b60405180910390fd5b600260008084815260200190815260200160002060000154146109da576040517f08c379a00000000000000000000000000000000000000000000000000000000081526004016109d1906111fa565b60405180910390fd5b600160008084815260200190815260200160002060000181905550426000808481526020019081526020016000206001016000828254610a1a9190611092565b925050819055507f72fdfd0f629c78d86d13a56ec6144a2c6a4904ad7de41d8089e90b00ff65a94a60405160405180910390a15050565b7f000000000000000000000000000000000000000000000000000000000000000081565b600080fd5b600080fd5b600080fd5b600080fd5b600080fd5b60008083601f840112610aa457610aa3610a7f565b5b8235905067ffffffffffffffff811115610ac157610ac0610a84565b5b602083019150836001820283011115610add57610adc610a89565b5b9250929050565b60008060208385031215610afb57610afa610a75565b5b600083013567ffffffffffffffff811115610b1957610b18610a7a565b5b610b2585828601610a8e565b92509250509250929050565b6000819050919050565b610b4481610b31565b8114610b4f57600080fd5b50565b600081359050610b6181610b3b565b92915050565b60008060408385031215610b7e57610b7d610a75565b5b6000610b8c85828601610b52565b9250506020610b9d85828601610b52565b9150509250929050565b60008115159050919050565b610bbc81610ba7565b82525050565b6000602082019050610bd76000830184610bb3565b92915050565b600060208284031215610bf357610bf2610a75565b5b6000610c0184828501610b52565b91505092915050565b610c1381610b31565b82525050565b6000604082019050610c2e6000830185610c0a565b610c3b6020830184610c0a565b9392505050565b600081519050919050565b600082825260208201905092915050565b60005b83811015610c7c578082015181840152602081019050610c61565b83811115610c8b576000848401525b50505050565b6000601f19601f8301169050919050565b6000610cad82610c42565b610cb78185610c4d565b9350610cc7818560208601610c5e565b610cd081610c91565b840191505092915050565b6000604082019050610cf06000830185610bb3565b8181036020830152610d028184610ca2565b90509392505050565b600073ffffffffffffffffffffffffffffffffffffffff82169050919050565b6000610d3682610d0b565b9050919050565b610d4681610d2b565b82525050565b6000602082019050610d616000830184610d3d565b92915050565b600082825260208201905092915050565b7f4f4e4c595f4f574e45525f57414c4c45545f414444524553535f4841535f414360008201527f434553532e000000000000000000000000000000000000000000000000000000602082015250565b6000610dd4602583610d67565b9150610ddf82610d78565b604082019050919050565b60006020820190508181036000830152610e0381610dc7565b9050919050565b7f4e4f5f45585049524154494f4e5f5945542e0000000000000000000000000000600082015250565b6000610e40601283610d67565b9150610e4b82610e0a565b602082019050919050565b60006020820190508181036000830152610e6f81610e33565b9050919050565b7f4e487b7100000000000000000000000000000000000000000000000000000000600052601160045260246000fd5b6000610eb082610b31565b91507fffffffffffffffffffffffffffffffffffffffffffffffffffffffffffffffff821415610ee357610ee2610e76565b5b600182019050919050565b7f4c45445f56414c5545535f5245445f305f424c55455f315f59454c4c4f575f3260008201527f5f475245454e5f335f505552504c455f345f4f52414e47455f355f50494e4b5f60208201527f365f57484954455f372e00000000000000000000000000000000000000000000604082015250565b6000610f70604a83610d67565b9150610f7b82610eee565b606082019050919050565b60006020820190508181036000830152610f9f81610f63565b9050919050565b7f4d53472e56414c55455f4d5553545f42455f315f5745495f54494d45535f4d4960008201527f4e555445535f414e445f4e4f545f42455f5a45524f2e00000000000000000000602082015250565b6000611002603683610d67565b915061100d82610fa6565b604082019050919050565b6000602082019050818103600083015261103181610ff5565b9050919050565b600061104382610b31565b915061104e83610b31565b9250817fffffffffffffffffffffffffffffffffffffffffffffffffffffffffffffffff048311821515161561108757611086610e76565b5b828202905092915050565b600061109d82610b31565b91506110a883610b31565b9250827fffffffffffffffffffffffffffffffffffffffffffffffffffffffffffffffff038211156110dd576110dc610e76565b5b828201905092915050565b7f564f4c544147455f4e4f545f4f4e2e0000000000000000000000000000000000600082015250565b600061111e600f83610d67565b9150611129826110e8565b602082019050919050565b6000602082019050818103600083015261114d81611111565b9050919050565b600061115f82610b31565b915061116a83610b31565b92508282101561117d5761117c610e76565b5b828203905092915050565b7f564f4c544147455f4e4f545f494e5f454d455247454e43595f4f46465f53544160008201527f54452e0000000000000000000000000000000000000000000000000000000000602082015250565b60006111e4602383610d67565b91506111ef82611188565b604082019050919050565b60006020820190508181036000830152611213816111d7565b905091905056fea26469706673582212201a94ea6784ef4dbdc27954c72549f536b5cab419c6f10ea888201b1ff618f59164736f6c634300080c0033",
  "linkReferences": {},
  "deployedLinkReferences": {}
}