{
  "_format": "hh-sol-artifact-1",
  "contractName": "ElectricKeeper",
  "sourceName": "contract/ElectricKeeperV24.sol",
  "abi": [
    {
      "inputs": [],
      "stateMutability": "nonpayable",
      "type": "constructor"
    },
    {
      "anonymous": false,
      "inputs": [],
      "name": "VoltageChange",
      "type": "event"
    },
    {
      "inputs": [
        {
          "internalType": "uint256",
          "name": "ledValue",
          "type": "uint256"
        },
        {
          "internalType": "uint256",
          "name": "minutesToHaveOn",
          "type": "uint256"
        }
      ],
      "name": "BuyElectricityTimeOn",
      "outputs": [],
      "stateMutability": "payable",
      "type": "function"
    },
    {
      "inputs": [
        {
          "internalType": "uint256",
          "name": "",
          "type": "uint256"
        }
      ],
      "name": "LED",
      "outputs": [
        {
          "internalType": "uint256",
          "name": "Voltage",
          "type": "uint256"
        },
        {
          "internalType": "uint256",
          "name": "ExpirationTimeUNIX",
          "type": "uint256"
        }
      ],
      "stateMutability": "view",
      "type": "function"
    },
    {
      "inputs": [],
      "name": "Owner",
      "outputs": [
        {
          "internalType": "address",
          "name": "",
          "type": "address"
        }
      ],
      "stateMutability": "view",
      "type": "function"
    },
    {
      "inputs": [
        {
          "internalType": "uint256",
          "name": "ledValue",
          "type": "uint256"
        }
      ],
      "name": "OwnerEmergencyDangerOff",
      "outputs": [],
      "stateMutability": "nonpayable",
      "type": "function"
    },
    {
      "inputs": [
        {
          "internalType": "uint256",
          "name": "ledValue",
          "type": "uint256"
        }
      ],
      "name": "OwnerEmergencySafeOn",
      "outputs": [],
      "stateMutability": "nonpayable",
      "type": "function"
    },
    {
      "inputs": [],
      "name": "OwnerManualExpirationOff",
      "outputs": [],
      "stateMutability": "nonpayable",
      "type": "function"
    },
    {
      "inputs": [
        {
          "internalType": "bytes",
          "name": "",
          "type": "bytes"
        }
      ],
      "name": "checkUpkeep",
      "outputs": [
        {
          "internalType": "bool",
          "name": "upkeepNeeded",
          "type": "bool"
        },
        {
          "internalType": "bytes",
          "name": "",
          "type": "bytes"
        }
      ],
      "stateMutability": "nonpayable",
      "type": "function"
    },
    {
      "inputs": [],
      "name": "expirationOccured",
      "outputs": [
        {
          "internalType": "bool",
          "name": "",
          "type": "bool"
        }
      ],
      "stateMutability": "view",
      "type": "function"
    },
    {
      "inputs": [
        {
          "internalType": "uint256",
          "name": "scaleMinutes",
          "type": "uint256"
        }
      ],
      "name": "onePennyUSDinMatic",
      "outputs": [
        {
          "internalType": "uint256",
          "name": "",
          "type": "uint256"
        }
      ],
      "stateMutability": "view",
      "type": "function"
    },
    {
      "inputs": [
        {
          "internalType": "bytes",
          "name": "",
          "type": "bytes"
        }
      ],
      "name": "performUpkeep",
      "outputs": [],
      "stateMutability": "nonpayable",
      "type": "function"
    }
  ],
  "bytecode": "0x60a060405234801561001057600080fd5b503373ffffffffffffffffffffffffffffffffffffffff1660808173ffffffffffffffffffffffffffffffffffffffff168152505073d0d5e3db44de05e9f294bb0a3beeaf030de24ada6000806101000a81548173ffffffffffffffffffffffffffffffffffffffff021916908373ffffffffffffffffffffffffffffffffffffffff1602179055506080516115396100d0600039600081816102550152818161063601528181610751015281816109010152610ab101526115396000f3fe6080604052600436106100915760003560e01c80636e04ff0d116100595780636e04ff0d1461015b578063979c22ce146101995780639e476c29146101c2578063b4a99a4e146101eb578063b9dbf3d11461021657610091565b80630e2e1ff3146100965780634585e33b146100ad578063494762f6146100d6578063571fcf0a146100f25780636bf93b661461011d575b600080fd5b3480156100a257600080fd5b506100ab610253565b005b3480156100b957600080fd5b506100d460048036038101906100cf9190610c11565b6103ee565b005b6100f060048036038101906100eb9190610c94565b6104b6565b005b3480156100fe57600080fd5b506101076106a0565b6040516101149190610cef565b60405180910390f35b34801561012957600080fd5b50610144600480360381019061013f9190610d0a565b610716565b604051610152929190610d46565b60405180910390f35b34801561016757600080fd5b50610182600480360381019061017d9190610c11565b61073a565b604051610190929190610e08565b60405180910390f35b3480156101a557600080fd5b506101c060048036038101906101bb9190610d0a565b61074f565b005b3480156101ce57600080fd5b506101e960048036038101906101e49190610d0a565b6108ff565b005b3480156101f757600080fd5b50610200610aaf565b60405161020d9190610e79565b60405180910390f35b34801561022257600080fd5b5061023d60048036038101906102389190610d0a565b610ad3565b60405161024a9190610e94565b60405180910390f35b7f000000000000000000000000000000000000000000000000000000000000000073ffffffffffffffffffffffffffffffffffffffff163373ffffffffffffffffffffffffffffffffffffffff16146102e1576040517f08c379a00000000000000000000000000000000000000000000000000000000081526004016102d890610f32565b60405180910390fd5b6102e96106a0565b610328576040517f08c379a000000000000000000000000000000000000000000000000000000000815260040161031f90610f9e565b60405180910390fd5b60005b60088110156103bf5760018060008381526020019081526020016000206000015414801561036e5750600160008281526020019081526020016000206001015442115b156103ac5760006001600083815260200190815260200160002060000181905550600060016000838152602001908152602001600020600101819055505b80806103b790610fed565b91505061032b565b507f72fdfd0f629c78d86d13a56ec6144a2c6a4904ad7de41d8089e90b00ff65a94a60405160405180910390a1565b60005b6008811015610485576001806000838152602001908152602001600020600001541480156104345750600160008281526020019081526020016000206001015442115b156104725760006001600083815260200190815260200160002060000181905550600060016000838152602001908152602001600020600101819055505b808061047d90610fed565b9150506103f1565b507f72fdfd0f629c78d86d13a56ec6144a2c6a4904ad7de41d8089e90b00ff65a94a60405160405180910390a15050565b81600081101580156104c85750600881105b610507576040517f08c379a00000000000000000000000000000000000000000000000000000000081526004016104fe906110ce565b60405180910390fd5b60008211801561051e575061051b82610ad3565b34145b61055d576040517f08c379a000000000000000000000000000000000000000000000000000000000815260040161055490611160565b60405180910390fd5b6000600160008581526020019081526020016000206000015414156105ce5760018060008581526020019081526020016000206000018190555081603c6105a49190611180565b426105af91906111da565b6001600085815260200190815260200160002060010181905550610608565b81603c6105db9190611180565b60016000858152602001908152602001600020600101600082825461060091906111da565b925050819055505b7f72fdfd0f629c78d86d13a56ec6144a2c6a4904ad7de41d8089e90b00ff65a94a60405160405180910390a17f000000000000000000000000000000000000000000000000000000000000000073ffffffffffffffffffffffffffffffffffffffff166108fc479081150290604051600060405180830381858888f1935050505015801561069a573d6000803e3d6000fd5b50505050565b600080600090505b600881101561070d576001806000838152602001908152602001600020600001541480156106eb5750600160008281526020019081526020016000206001015442115b156106fa576001915050610713565b808061070590610fed565b9150506106a8565b50600090505b90565b60016020528060005260406000206000915090508060000154908060010154905082565b600060606107466106a0565b91509250929050565b7f000000000000000000000000000000000000000000000000000000000000000073ffffffffffffffffffffffffffffffffffffffff163373ffffffffffffffffffffffffffffffffffffffff16146107dd576040517f08c379a00000000000000000000000000000000000000000000000000000000081526004016107d490610f32565b60405180910390fd5b80600081101580156107ef5750600881105b61082e576040517f08c379a0000000000000000000000000000000000000000000000000000000008152600401610825906110ce565b60405180910390fd5b60018060008481526020019081526020016000206000015414610886576040517f08c379a000000000000000000000000000000000000000000000000000000000815260040161087d9061127c565b60405180910390fd5b60026001600084815260200190815260200160002060000181905550426001600084815260200190815260200160002060010160008282546108c8919061129c565b925050819055507f72fdfd0f629c78d86d13a56ec6144a2c6a4904ad7de41d8089e90b00ff65a94a60405160405180910390a15050565b7f000000000000000000000000000000000000000000000000000000000000000073ffffffffffffffffffffffffffffffffffffffff163373ffffffffffffffffffffffffffffffffffffffff161461098d576040517f08c379a000000000000000000000000000000000000000000000000000000000815260040161098490610f32565b60405180910390fd5b806000811015801561099f5750600881105b6109de576040517f08c379a00000000000000000000000000000000000000000000000000000000081526004016109d5906110ce565b60405180910390fd5b6002600160008481526020019081526020016000206000015414610a37576040517f08c379a0000000000000000000000000000000000000000000000000000000008152600401610a2e90611342565b60405180910390fd5b60018060008481526020019081526020016000206000018190555042600160008481526020019081526020016000206001016000828254610a7891906111da565b925050819055507f72fdfd0f629c78d86d13a56ec6144a2c6a4904ad7de41d8089e90b00ff65a94a60405160405180910390a15050565b7f000000000000000000000000000000000000000000000000000000000000000081565b60008060008060008060008054906101000a900473ffffffffffffffffffffffffffffffffffffffff1673ffffffffffffffffffffffffffffffffffffffff1663feaf968c6040518163ffffffff1660e01b815260040160a060405180830381865afa158015610b47573d6000803e3d6000fd5b505050506040513d601f19601f82011682018060405250810190610b6b91906113ef565b945094509450945094508369d3c21bcecceda1000000610b8b9190611499565b87610b969190611180565b95505050505050919050565b600080fd5b600080fd5b600080fd5b600080fd5b600080fd5b60008083601f840112610bd157610bd0610bac565b5b8235905067ffffffffffffffff811115610bee57610bed610bb1565b5b602083019150836001820283011115610c0a57610c09610bb6565b5b9250929050565b60008060208385031215610c2857610c27610ba2565b5b600083013567ffffffffffffffff811115610c4657610c45610ba7565b5b610c5285828601610bbb565b92509250509250929050565b6000819050919050565b610c7181610c5e565b8114610c7c57600080fd5b50565b600081359050610c8e81610c68565b92915050565b60008060408385031215610cab57610caa610ba2565b5b6000610cb985828601610c7f565b9250506020610cca85828601610c7f565b9150509250929050565b60008115159050919050565b610ce981610cd4565b82525050565b6000602082019050610d046000830184610ce0565b92915050565b600060208284031215610d2057610d1f610ba2565b5b6000610d2e84828501610c7f565b91505092915050565b610d4081610c5e565b82525050565b6000604082019050610d5b6000830185610d37565b610d686020830184610d37565b9392505050565b600081519050919050565b600082825260208201905092915050565b60005b83811015610da9578082015181840152602081019050610d8e565b83811115610db8576000848401525b50505050565b6000601f19601f8301169050919050565b6000610dda82610d6f565b610de48185610d7a565b9350610df4818560208601610d8b565b610dfd81610dbe565b840191505092915050565b6000604082019050610e1d6000830185610ce0565b8181036020830152610e2f8184610dcf565b90509392505050565b600073ffffffffffffffffffffffffffffffffffffffff82169050919050565b6000610e6382610e38565b9050919050565b610e7381610e58565b82525050565b6000602082019050610e8e6000830184610e6a565b92915050565b6000602082019050610ea96000830184610d37565b92915050565b600082825260208201905092915050565b7f4f4e4c595f4f574e45525f57414c4c45545f414444524553535f4841535f414360008201527f434553532e000000000000000000000000000000000000000000000000000000602082015250565b6000610f1c602583610eaf565b9150610f2782610ec0565b604082019050919050565b60006020820190508181036000830152610f4b81610f0f565b9050919050565b7f4e4f5f45585049524154494f4e5f5945542e0000000000000000000000000000600082015250565b6000610f88601283610eaf565b9150610f9382610f52565b602082019050919050565b60006020820190508181036000830152610fb781610f7b565b9050919050565b7f4e487b7100000000000000000000000000000000000000000000000000000000600052601160045260246000fd5b6000610ff882610c5e565b91507fffffffffffffffffffffffffffffffffffffffffffffffffffffffffffffffff82141561102b5761102a610fbe565b5b600182019050919050565b7f4c45445f56414c5545535f5245445f305f424c55455f315f59454c4c4f575f3260008201527f5f475245454e5f335f505552504c455f345f4f52414e47455f355f50494e4b5f60208201527f365f57484954455f372e00000000000000000000000000000000000000000000604082015250565b60006110b8604a83610eaf565b91506110c382611036565b606082019050919050565b600060208201905081810360008301526110e7816110ab565b9050919050565b7f4d5553545f484156455f4d494e555445535f475245415445525f5448414e5f3060008201527f5f414e445f4d53475f56414c55453d4d494e555445532a4645452e0000000000602082015250565b600061114a603b83610eaf565b9150611155826110ee565b604082019050919050565b600060208201905081810360008301526111798161113d565b9050919050565b600061118b82610c5e565b915061119683610c5e565b9250817fffffffffffffffffffffffffffffffffffffffffffffffffffffffffffffffff04831182151516156111cf576111ce610fbe565b5b828202905092915050565b60006111e582610c5e565b91506111f083610c5e565b9250827fffffffffffffffffffffffffffffffffffffffffffffffffffffffffffffffff0382111561122557611224610fbe565b5b828201905092915050565b7f564f4c544147455f4e4f545f4f4e2e0000000000000000000000000000000000600082015250565b6000611266600f83610eaf565b915061127182611230565b602082019050919050565b6000602082019050818103600083015261129581611259565b9050919050565b60006112a782610c5e565b91506112b283610c5e565b9250828210156112c5576112c4610fbe565b5b828203905092915050565b7f564f4c544147455f4e4f545f494e5f454d455247454e43595f4f46465f53544160008201527f54452e0000000000000000000000000000000000000000000000000000000000602082015250565b600061132c602383610eaf565b9150611337826112d0565b604082019050919050565b6000602082019050818103600083015261135b8161131f565b9050919050565b600069ffffffffffffffffffff82169050919050565b61138181611362565b811461138c57600080fd5b50565b60008151905061139e81611378565b92915050565b6000819050919050565b6113b7816113a4565b81146113c257600080fd5b50565b6000815190506113d4816113ae565b92915050565b6000815190506113e981610c68565b92915050565b600080600080600060a0868803121561140b5761140a610ba2565b5b60006114198882890161138f565b955050602061142a888289016113c5565b945050604061143b888289016113da565b935050606061144c888289016113da565b925050608061145d8882890161138f565b9150509295509295909350565b7f4e487b7100000000000000000000000000000000000000000000000000000000600052601260045260246000fd5b60006114a4826113a4565b91506114af836113a4565b9250826114bf576114be61146a565b5b600160000383147f8000000000000000000000000000000000000000000000000000000000000000831416156114f8576114f7610fbe565b5b82820590509291505056fea264697066735822122044d78943ade5e24d1c56b8ea6e993ea49a76f982bb5324ea31e35a6f6eca79e864736f6c634300080c0033",
  "linkReferences": {},
  "deployedLinkReferences": {}
}