{
  "_format": "hh-sol-artifact-1",
  "contractName": "BuyDemoEightMinutesMock",
  "sourceName": "contracts/ElectricKeeperMockV24.sol",
  "abi": [
    {
      "inputs": [
        {
          "internalType": "contract ElectricKeeperMock",
          "name": "electricKeeperAddress",
          "type": "address"
        }
      ],
      "stateMutability": "nonpayable",
      "type": "constructor"
    },
    {
      "inputs": [],
      "name": "BuyTestEightMinuteCountdown",
      "outputs": [],
      "stateMutability": "payable",
      "type": "function"
    }
  ],
  "bytecode": "0x608060405234801561001057600080fd5b5060405161085738038061085783398181016040528101906100329190610186565b6100647ff0622d300d61bfcc366e19f86f3d81c6d6eff0f2db8b11639b9a2d0daf47ae6b60001b61010e60201b60201c565b6100967ff275845a84b1d11adf4529b90808766d389bae3cf66b0d9d00cedfababf39fa160001b61010e60201b60201c565b6100c87f1b9f53287693453c60bd0e98895c0f54aafd0e6db80c350bc4618179af620c4c60001b61010e60201b60201c565b806000806101000a81548173ffffffffffffffffffffffffffffffffffffffff021916908373ffffffffffffffffffffffffffffffffffffffff160217905550506101b3565b50565b600080fd5b600073ffffffffffffffffffffffffffffffffffffffff82169050919050565b600061014182610116565b9050919050565b600061015382610136565b9050919050565b61016381610148565b811461016e57600080fd5b50565b6000815190506101808161015a565b92915050565b60006020828403121561019c5761019b610111565b5b60006101aa84828501610171565b91505092915050565b610695806101c26000396000f3fe60806040526004361061001e5760003560e01c8063eb4c968d14610023575b600080fd5b61002b61002d565b005b6100597fece90110bcf16f486df94aace76e27eab0bd9dddfc32ce62707167594482986d60001b6103f6565b6100857f986280a2bbff9dfd4fd00c572891f550346a5e0bac432ff2ea698974f0227f0360001b6103f6565b6100b17f1f849dee5f0bdc6b0c3588f7babb1943211a7e1f2822065095221abc4085ca7260001b6103f6565b6100dd7f6d4312bc30078a4a341e052464b63118f598c709c592e0f267aac056110f900b60001b6103f6565b60008054906101000a900473ffffffffffffffffffffffffffffffffffffffff1673ffffffffffffffffffffffffffffffffffffffff1663b9dbf3d160246040518263ffffffff1660e01b81526004016101379190610448565b602060405180830381865afa158015610154573d6000803e3d6000fd5b505050506040513d601f19601f820116820180604052508101906101789190610494565b34146101b9576040517f08c379a00000000000000000000000000000000000000000000000000000000081526004016101b09061051e565b60405180910390fd5b6101e57f960bd2359ef06470dc92f1b09f3538beb4a07a7bf60691631af9f8f49165714b60001b6103f6565b6102117fb807c173c810e693d1fe8447ec44ebe3835aa179e05bad05f49324c0748d42cc60001b6103f6565b61023d7feaf9d99b407950e99912bb11f7168b59fe02d2bca181779d6a98a559ac50f41d60001b6103f6565b60005b60088110156103f3576102757fdbed67217a4c54f05a342104eb8077c4e6f7e7b8b6782ca1c9e991965f92b25860001b6103f6565b6102a17f90d8a35dd74eaf2cc70c29e85eec7a6217ea76fb2db18dafd1bf32b2455f2e2360001b6103f6565b60008054906101000a900473ffffffffffffffffffffffffffffffffffffffff1673ffffffffffffffffffffffffffffffffffffffff1663494762f660008054906101000a900473ffffffffffffffffffffffffffffffffffffffff1673ffffffffffffffffffffffffffffffffffffffff1663b9dbf3d1600185610326919061056d565b6040518263ffffffff1660e01b815260040161034291906105d2565b602060405180830381865afa15801561035f573d6000803e3d6000fd5b505050506040513d601f19601f820116820180604052508101906103839190610494565b83600185610391919061056d565b6040518463ffffffff1660e01b81526004016103ae9291906105ed565b6000604051808303818588803b1580156103c757600080fd5b505af11580156103db573d6000803e3d6000fd5b505050505080806103eb90610616565b915050610240565b50565b50565b6000819050919050565b6000819050919050565b6000819050919050565b600061043261042d610428846103f9565b61040d565b610403565b9050919050565b61044281610417565b82525050565b600060208201905061045d6000830184610439565b92915050565b600080fd5b61047181610403565b811461047c57600080fd5b50565b60008151905061048e81610468565b92915050565b6000602082840312156104aa576104a9610463565b5b60006104b88482850161047f565b91505092915050565b600082825260208201905092915050565b7f4d5553545f484156455f4d53475f56414c55453d33362a4645452e0000000000600082015250565b6000610508601b836104c1565b9150610513826104d2565b602082019050919050565b60006020820190508181036000830152610537816104fb565b9050919050565b7f4e487b7100000000000000000000000000000000000000000000000000000000600052601160045260246000fd5b600061057882610403565b915061058383610403565b9250827fffffffffffffffffffffffffffffffffffffffffffffffffffffffffffffffff038211156105b8576105b761053e565b5b828201905092915050565b6105cc81610403565b82525050565b60006020820190506105e760008301846105c3565b92915050565b600060408201905061060260008301856105c3565b61060f60208301846105c3565b9392505050565b600061062182610403565b91507fffffffffffffffffffffffffffffffffffffffffffffffffffffffffffffffff8214156106545761065361053e565b5b60018201905091905056fea2646970667358221220359378c0584e4906bcb227f4b68ea270808b923f17dc76bf844904b7e8eb272864736f6c634300080c0033",
  "linkReferences": {},
  "deployedLinkReferences": {}
}