{
  "_format": "hh-sol-artifact-1",
  "contractName": "ElectricKeeperMock",
  "sourceName": "contracts/ElectricKeeperMockV24.sol",
  "abi": [
    {
      "inputs": [],
      "stateMutability": "nonpayable",
      "type": "constructor"
    },
    {
      "anonymous": false,
      "inputs": [],
      "name": "VoltageChange",
      "type": "event"
    },
    {
      "inputs": [
        {
          "internalType": "uint256",
          "name": "ledValue",
          "type": "uint256"
        },
        {
          "internalType": "uint256",
          "name": "minutesToHaveOn",
          "type": "uint256"
        }
      ],
      "name": "BuyElectricityTimeOn",
      "outputs": [],
      "stateMutability": "payable",
      "type": "function"
    },
    {
      "inputs": [
        {
          "internalType": "uint256",
          "name": "",
          "type": "uint256"
        }
      ],
      "name": "LED",
      "outputs": [
        {
          "internalType": "uint256",
          "name": "Voltage",
          "type": "uint256"
        },
        {
          "internalType": "uint256",
          "name": "ExpirationTimeUNIX",
          "type": "uint256"
        }
      ],
      "stateMutability": "view",
      "type": "function"
    },
    {
      "inputs": [],
      "name": "Owner",
      "outputs": [
        {
          "internalType": "address",
          "name": "",
          "type": "address"
        }
      ],
      "stateMutability": "view",
      "type": "function"
    },
    {
      "inputs": [
        {
          "internalType": "uint256",
          "name": "ledValue",
          "type": "uint256"
        }
      ],
      "name": "OwnerEmergencyDangerOff",
      "outputs": [],
      "stateMutability": "nonpayable",
      "type": "function"
    },
    {
      "inputs": [
        {
          "internalType": "uint256",
          "name": "ledValue",
          "type": "uint256"
        }
      ],
      "name": "OwnerEmergencySafeOn",
      "outputs": [],
      "stateMutability": "nonpayable",
      "type": "function"
    },
    {
      "inputs": [],
      "name": "OwnerManualExpirationOff",
      "outputs": [],
      "stateMutability": "nonpayable",
      "type": "function"
    },
    {
      "inputs": [],
      "name": "expirationOccured",
      "outputs": [
        {
          "internalType": "bool",
          "name": "",
          "type": "bool"
        }
      ],
      "stateMutability": "view",
      "type": "function"
    },
    {
      "inputs": [
        {
          "internalType": "uint256",
          "name": "scaleMinutes",
          "type": "uint256"
        }
      ],
      "name": "onePennyUSDinMatic",
      "outputs": [
        {
          "internalType": "uint256",
          "name": "",
          "type": "uint256"
        }
      ],
      "stateMutability": "view",
      "type": "function"
    }
  ],
  "bytecode": "0x60a06040523480156200001157600080fd5b50620000467fc819f0038973bae78711fb7bb6c1aa1f5e0e991f36d2164ac8e6999a036f431a60001b620000e860201b60201c565b6200007a7f679087c5ae345cdce74148dc4bc0f34606b00956f2742f9ec384b1200d732e1360001b620000e860201b60201c565b620000ae7f5289c70b00763e2ddf69a0d670f1a720c79d6397523da37b827885775daec57260001b620000e860201b60201c565b3373ffffffffffffffffffffffffffffffffffffffff1660808173ffffffffffffffffffffffffffffffffffffffff1681525050620000eb565b50565b608051612295620001236000396000818161028801528181610d30015281816110c6015281816116680152611b5a01526122956000f3fe60806040526004361061007b5760003560e01c8063979c22ce1161004e578063979c22ce1461011c5780639e476c2914610145578063b4a99a4e1461016e578063b9dbf3d1146101995761007b565b80630e2e1ff314610080578063494762f614610097578063571fcf0a146100b35780636bf93b66146100de575b600080fd5b34801561008c57600080fd5b506100956101d6565b005b6100b160048036038101906100ac9190611c5a565b610767565b005b3480156100bf57600080fd5b506100c8610d9a565b6040516100d59190611cb5565b60405180910390f35b3480156100ea57600080fd5b5061010560048036038101906101009190611cd0565b610ff0565b604051610113929190611d0c565b60405180910390f35b34801561012857600080fd5b50610143600480360381019061013e9190611cd0565b611014565b005b34801561015157600080fd5b5061016c60048036038101906101679190611cd0565b6115b6565b005b34801561017a57600080fd5b50610183611b58565b6040516101909190611d76565b60405180910390f35b3480156101a557600080fd5b506101c060048036038101906101bb9190611cd0565b611b7c565b6040516101cd9190611d91565b60405180910390f35b6102027ffe4df4fbaf70697950e61b0956a03752b8ee8f24d5f23956ec189584effee8d460001b611c1c565b61022e7ff0e80b394a320ad70f56425337fd17038d430e4a84dc68fd460744e57575bc7260001b611c1c565b61025a7f99e37d79cd35ad7f95d15583b2b6082049dbdbd4ba2c92e3b54df9b0fe7a0b7560001b611c1c565b6102867fe37de6dc9afbb06ed539592ee41fbeaf33f6de5c82ee31d88f2a87550602f45d60001b611c1c565b7f000000000000000000000000000000000000000000000000000000000000000073ffffffffffffffffffffffffffffffffffffffff163373ffffffffffffffffffffffffffffffffffffffff1614610314576040517f08c379a000000000000000000000000000000000000000000000000000000000815260040161030b90611e2f565b60405180910390fd5b6103407f13f8ccc6d9cb012e915b93e0708f03ccdae564dcf87735582dde0770adf8544560001b611c1c565b61036c7fb2945b3e127cb2477a12e9eafa9417c20945866e7ac29d8c166d7a0f21aa1c9660001b611c1c565b6103987f8f9380edf986e7531e077b854c864d29ff3281d9d69a3de4b0ed804abf9e126a60001b611c1c565b6103c47f3861ee96d6cb54802d8d06451dd93e7c857f079b025c2d2db102dc2bb2617b1560001b611c1c565b6103f07fe3f9de4a92c43b302ed1ac53680d191ffae88ddb2557917b2355f1b6d4f5e6bc60001b611c1c565b61041c7f2519a46fcc8fbf7da6b00ba5fe21503fbd817ee8c912ded19a46e9b3c29847d360001b611c1c565b610424610d9a565b610463576040517f08c379a000000000000000000000000000000000000000000000000000000000815260040161045a90611e9b565b60405180910390fd5b61048f7fb40ab7ab8df1a7632ce2435bb820887376fafc0081df72fcc34df6437aeff56f60001b611c1c565b6104bb7f0d6131c7ab7ef3afa7e1f46d146ceeaa922c3c0508d4dac0bd75d4958c7acf1b60001b611c1c565b6104e77f33e55e59fa4e9004170c3c7e21c2cc82a021acf2f985baa0f2e8f5a93b67044960001b611c1c565b60005b60088110156106e05761051f7fced65a335286ef56f5f891cc34f697d768ae84403a630ca8aea29141e48de7ae60001b611c1c565b61054b7f583a256bc84ad85b6eefe5d6a20dbbc30043386453ea56dcac91e67f59495f4660001b611c1c565b60016000808381526020019081526020016000206000015414801561058457506000808281526020019081526020016000206001015442115b156106a0576105b57f752467db0558971704c080489782e734aa2acd44c85e76edd5fabcc746db00fe60001b611c1c565b6105e17fa9ebdd78bd5457cfc7733221d44051c90c097ff083d4a1bce24dc3422d2eb71b60001b611c1c565b61060d7f5cd67fe3f5fc87dc1112f097ccd76ef4efc607748675589b66999a6fa683917960001b611c1c565b6000806000838152602001908152602001600020600001819055506106547fa65c7a799de2a3c5415790223c1cf5e3b56ea2fe7a696e1c500ede8cad5000fa60001b611c1c565b6106807f5b4eaf88ebebc41915be25f2fa6d74e54eba96026c3680084ecddd566523512060001b611c1c565b6000806000838152602001908152602001600020600101819055506106cd565b6106cc7fcd6dba1331176c2e6c87590e8356822c19c56e4f059d9e70e33d1510efe677cc60001b611c1c565b5b80806106d890611eea565b9150506104ea565b5061070d7f8a384ea9dd204c5f6dbc82ccc99dcb9e86d7214070e812d19541fa614b67848060001b611c1c565b6107397f5b83b7496e8f85da5950bf97f760ba98a3fd8703aa518ff4a91316dfa93ce0eb60001b611c1c565b7f72fdfd0f629c78d86d13a56ec6144a2c6a4904ad7de41d8089e90b00ff65a94a60405160405180910390a1565b816107947f8301963dd4d922c7f0f49fff9fcc40cee9c4fd5f211e5d11f03383f6664cd8b960001b611c1c565b6107c07f737674995c2f7a269512865052a581ff247d70d049fe079a87f72629e127fb6f60001b611c1c565b6107ec7ffdd1f8374aa8c433b231e8ee24e67e87f27473f9957df30bd8477a3d6339d49660001b611c1c565b6108187f981685f79fd472c17688b8c94b6a5bb9f7d84844380bc28110dfe5af61929d6360001b611c1c565b600081101580156108295750600881105b610868576040517f08c379a000000000000000000000000000000000000000000000000000000000815260040161085f90611fcb565b60405180910390fd5b6108947f8f346dfb9cbc6e01fe4ed74c4abaf358edd227a0b05ce6c0e909ec65f10fb24260001b611c1c565b6108c07f2fd260f9fb008973c165c4709fa0afc8020c4018a985e483331bf59f8e34fc9960001b611c1c565b6108ec7fe7a0d6b7ec0fb53e35bd18a1532b6cce61ed777b36f322c4c3e2ba911a86881560001b611c1c565b6109187fe8826aa7231c3a994273847e8a7b2b01dad5ef645f994627c80130c9edd70b8260001b611c1c565b6109447f5e2427083efff55b488521b3c313eebe56e6b00f8f167089357ade6f48841f8660001b611c1c565b6109707fdc9c94a2d25313642493f17f3880d0b79a9b0eae855fd411436d43c7529eccb460001b611c1c565b600082118015610987575061098482611b7c565b34145b6109c6576040517f08c379a00000000000000000000000000000000000000000000000000000000081526004016109bd9061205d565b60405180910390fd5b6109f27ff39c6d3768f612dd12a1d559731f11701af4d46c399a6183e130c2afd61edcee60001b611c1c565b610a1e7fb215a52528f877a59689631421e9c6b180dfe53cf499ea930511661bbea0623c60001b611c1c565b610a4a7f1b8d7b13a99b028900518b0e6f02639e2fb58210f34215f8af575434f9b65fb060001b611c1c565b6000806000858152602001908152602001600020600001541415610b9557610a947fe8ca38686a913738f8c24b714efb02766fda60108255385c7c4bc68e9e789af960001b611c1c565b610ac07f8fe3b1e5a09d6f2796bef794c754c976c643748f7f0ce9138898779747349a6860001b611c1c565b610aec7f331aa7f29ce87e88b516c6e5b0daece879ac12626e0f23080924fffd8518e6ad60001b611c1c565b600160008085815260200190815260200160002060000181905550610b337f122f9107b23fcf8df1b0f6807596ecba46dcdbe45515c92a4f353dbbe3cab34760001b611c1c565b610b5f7fb82a69cc5a3eaecd820f473fe9369121027f35940ec1eddf2796b4045c207be360001b611c1c565b81603c610b6c919061207d565b42610b7791906120d7565b60008085815260200190815260200160002060010181905550610c52565b610bc17f53d01cc20598f7a2f19304ca7b933aff744a88bd24fa70aa71cfa6e40488996760001b611c1c565b610bed7f6d9e507dadc917c73cb1a0c7c85e0699ec9d1138a600130f8b34ac6ce0354dfd60001b611c1c565b610c197f2b6caf26838430d0ba85c263935f7bc476e6350c8268b7414f9dc447eff908d760001b611c1c565b81603c610c26919061207d565b6000808581526020019081526020016000206001016000828254610c4a91906120d7565b925050819055505b610c7e7ff5fcdecd315fff6c254b6cc38337436a563b4d6a22d131f5ede4ba6fcc59ff4260001b611c1c565b610caa7ff0ad06de410961c8985135aa998c99c72114ee38f9679d49a0c80b7bd189bf7c60001b611c1c565b7f72fdfd0f629c78d86d13a56ec6144a2c6a4904ad7de41d8089e90b00ff65a94a60405160405180910390a1610d027fc598befe186843a507755f35248251cc3c57270dabc880f8f42befe911d350f960001b611c1c565b610d2e7f851c262cf938f627a929b005f3f1a778b8e5f41ba057cd389134d9a9c6cb8ea160001b611c1c565b7f000000000000000000000000000000000000000000000000000000000000000073ffffffffffffffffffffffffffffffffffffffff166108fc479081150290604051600060405180830381858888f19350505050158015610d94573d6000803e3d6000fd5b50505050565b6000610dc87f1efd43f9fc4bf2a2d33de4c1ef2b1d47afad85105b79b6ea3a83689ae9f4670860001b611c1c565b610df47fd768651dfa8e6c2426c7ba0b9d06d9f03b7e49b17fc9b31e8e9ccc4f0799948660001b611c1c565b610e207f6f6e31b1759799cf0583fa84df55abfde18fa663afb9fdc93c59b66efad08aaa60001b611c1c565b60005b6008811015610f8f57610e587fc8f219aee68119c35414851f4b9476b4d5707f48c2825239d6cab570746721a760001b611c1c565b610e847f57fb09091ac5e0a1f9ae9410cfa1ba174d2fb23091d35de3b288df215d306ba560001b611c1c565b600160008083815260200190815260200160002060000154148015610ebd57506000808281526020019081526020016000206001015442115b15610f5057610eee7fcb4622a65da322c799264c69c7fc2da1a308a5d83fd886f55e7295eabe201c1b60001b611c1c565b610f1a7f1673f3f6c1cde9f227e5e1b5da291c2425df4c6326e222f5e1e7af7c34253a0b60001b611c1c565b610f467ffbf59be165eedd04f328c6f11ef78ca16e2c9cd8f9e551aec9b115f4e7ba965b60001b611c1c565b6001915050610fed565b610f7c7fefa986668917b2205d990b75f95ab9ed1b34a2d091a36dfb002694f4cbe79c7160001b611c1c565b8080610f8790611eea565b915050610e23565b50610fbc7f614192831b59a9fc31f71b0d4648691c27689f4dcf1c9054f4a3713af306e9fb60001b611c1c565b610fe87fde7996e3b26280942919bd1e2ad8c008fa3a3bda9c3b62ceadb1f60ac8b8bc2060001b611c1c565b600090505b90565b60006020528060005260406000206000915090508060000154908060010154905082565b6110407ffe4df4fbaf70697950e61b0956a03752b8ee8f24d5f23956ec189584effee8d460001b611c1c565b61106c7ff0e80b394a320ad70f56425337fd17038d430e4a84dc68fd460744e57575bc7260001b611c1c565b6110987f99e37d79cd35ad7f95d15583b2b6082049dbdbd4ba2c92e3b54df9b0fe7a0b7560001b611c1c565b6110c47fe37de6dc9afbb06ed539592ee41fbeaf33f6de5c82ee31d88f2a87550602f45d60001b611c1c565b7f000000000000000000000000000000000000000000000000000000000000000073ffffffffffffffffffffffffffffffffffffffff163373ffffffffffffffffffffffffffffffffffffffff1614611152576040517f08c379a000000000000000000000000000000000000000000000000000000000815260040161114990611e2f565b60405180910390fd5b61117e7f13f8ccc6d9cb012e915b93e0708f03ccdae564dcf87735582dde0770adf8544560001b611c1c565b6111aa7fb2945b3e127cb2477a12e9eafa9417c20945866e7ac29d8c166d7a0f21aa1c9660001b611c1c565b806111d77f8301963dd4d922c7f0f49fff9fcc40cee9c4fd5f211e5d11f03383f6664cd8b960001b611c1c565b6112037f737674995c2f7a269512865052a581ff247d70d049fe079a87f72629e127fb6f60001b611c1c565b61122f7ffdd1f8374aa8c433b231e8ee24e67e87f27473f9957df30bd8477a3d6339d49660001b611c1c565b61125b7f981685f79fd472c17688b8c94b6a5bb9f7d84844380bc28110dfe5af61929d6360001b611c1c565b6000811015801561126c5750600881105b6112ab576040517f08c379a00000000000000000000000000000000000000000000000000000000081526004016112a290611fcb565b60405180910390fd5b6112d77f8f346dfb9cbc6e01fe4ed74c4abaf358edd227a0b05ce6c0e909ec65f10fb24260001b611c1c565b6113037f2fd260f9fb008973c165c4709fa0afc8020c4018a985e483331bf59f8e34fc9960001b611c1c565b61132f7fc9ee29c1aa1bae3ac533e5351fb5a80eb5233d8de11add7f1ed48dd85f462cd560001b611c1c565b61135b7f7d464f5ebe84b1a7e49c182413fa4fca40e188302666c7165d2d3f1e1d4fa60f60001b611c1c565b6113877fed3db62f08f9f2c2ff91786e979cbf9fc5b04cc6998fbbf462565bf8b76efb0660001b611c1c565b6113b37f228c1c4c7c5133a07c1a9a517ecf05f0befbb3be6b1b4c584442b3ee3f48589760001b611c1c565b6001600080848152602001908152602001600020600001541461140b576040517f08c379a000000000000000000000000000000000000000000000000000000000815260040161140290612179565b60405180910390fd5b6114377fcd926bb88301cd8fb38f93b3d6ffa4e6d6bb258bbd1ce68bb25bc7f57a851c5e60001b611c1c565b6114637fe8aa451bac78be2070d1d6229a980da8fbf546734c053df54a39ad5e77e83bda60001b611c1c565b61148f7ff176de6e02d5bfed009226fb9796b69ea866eb59afb1d5f5b16e19027b51f49b60001b611c1c565b6002600080848152602001908152602001600020600001819055506114d67fff47c33e8b9b3445a847b58edc43d4f6996647fc2816075de9be949dda6a4f7860001b611c1c565b6115027fe44b67800e45ad0c40b97c04fccc49df8cc39ddc42ba3cf2d302daf716343f8360001b611c1c565b4260008084815260200190815260200160002060010160008282546115279190612199565b9250508190555061155a7f3890508c1f57df690057ef0e404700b4f5260e414701da5daddcbd7c6165666d60001b611c1c565b6115867fa549b8272c1a45016fd45744fa7f5ae61822bfc9a0e2c33a9ad3048a843c2b0060001b611c1c565b7f72fdfd0f629c78d86d13a56ec6144a2c6a4904ad7de41d8089e90b00ff65a94a60405160405180910390a15050565b6115e27ffe4df4fbaf70697950e61b0956a03752b8ee8f24d5f23956ec189584effee8d460001b611c1c565b61160e7ff0e80b394a320ad70f56425337fd17038d430e4a84dc68fd460744e57575bc7260001b611c1c565b61163a7f99e37d79cd35ad7f95d15583b2b6082049dbdbd4ba2c92e3b54df9b0fe7a0b7560001b611c1c565b6116667fe37de6dc9afbb06ed539592ee41fbeaf33f6de5c82ee31d88f2a87550602f45d60001b611c1c565b7f000000000000000000000000000000000000000000000000000000000000000073ffffffffffffffffffffffffffffffffffffffff163373ffffffffffffffffffffffffffffffffffffffff16146116f4576040517f08c379a00000000000000000000000000000000000000000000000000000000081526004016116eb90611e2f565b60405180910390fd5b6117207f13f8ccc6d9cb012e915b93e0708f03ccdae564dcf87735582dde0770adf8544560001b611c1c565b61174c7fb2945b3e127cb2477a12e9eafa9417c20945866e7ac29d8c166d7a0f21aa1c9660001b611c1c565b806117797f8301963dd4d922c7f0f49fff9fcc40cee9c4fd5f211e5d11f03383f6664cd8b960001b611c1c565b6117a57f737674995c2f7a269512865052a581ff247d70d049fe079a87f72629e127fb6f60001b611c1c565b6117d17ffdd1f8374aa8c433b231e8ee24e67e87f27473f9957df30bd8477a3d6339d49660001b611c1c565b6117fd7f981685f79fd472c17688b8c94b6a5bb9f7d84844380bc28110dfe5af61929d6360001b611c1c565b6000811015801561180e5750600881105b61184d576040517f08c379a000000000000000000000000000000000000000000000000000000000815260040161184490611fcb565b60405180910390fd5b6118797f8f346dfb9cbc6e01fe4ed74c4abaf358edd227a0b05ce6c0e909ec65f10fb24260001b611c1c565b6118a57f2fd260f9fb008973c165c4709fa0afc8020c4018a985e483331bf59f8e34fc9960001b611c1c565b6118d17fb3245ee4fb94e6e85d97ef2d516037b9a747ae9fa4d6bfc6bb0baa8131e3c7ac60001b611c1c565b6118fd7f69bacefb11496ce0ef84a9f1eabc0c9bb73bb1b7a33644d41cfc896f06e1c97160001b611c1c565b6119297f4b866208e87d3a0410e420ec0cef513e8a724b95211273bf95822e143dce166960001b611c1c565b6119557f0f41aa23395d230d8a518a83f8535cfb3617f16bd974bb0953b9aabe757ae60e60001b611c1c565b600260008084815260200190815260200160002060000154146119ad576040517f08c379a00000000000000000000000000000000000000000000000000000000081526004016119a49061223f565b60405180910390fd5b6119d97ffea88ddef8c620cc48420c50611f3d0f68d4141af4a18df252f4fe219bdd507860001b611c1c565b611a057fadf5ff9e941bc3191af6be69ce468355386c603e9e1d3575009ebfc989b4cfbf60001b611c1c565b611a317f6712241c3a3889292edffae538929a29c030ac8b70faa85359d6e6a29a63ae8260001b611c1c565b600160008084815260200190815260200160002060000181905550611a787f81f001ed9cdb1be8978e9bb569882d4afaf0368d122018b46fdca2335607741660001b611c1c565b611aa47f12f7f0ffe5bfe40a4b3a2c45c05f65f886a3fadb1fc9fb51a81dccaf4c28cc8760001b611c1c565b426000808481526020019081526020016000206001016000828254611ac991906120d7565b92505081905550611afc7f229f73aebb56bbcf6b5176787a4eadea7bb039a16e6fa5ce4a4ae90ff6a5f8d860001b611c1c565b611b287f99823dc3fd9fddf35ac00181ffaca31c84fb163a7d66bf6e9a3d2d31dbcdb5d460001b611c1c565b7f72fdfd0f629c78d86d13a56ec6144a2c6a4904ad7de41d8089e90b00ff65a94a60405160405180910390a15050565b7f000000000000000000000000000000000000000000000000000000000000000081565b6000611baa7f71304b1a33ff8abac4f4ff098bd73bb8ffb575b050df04475530a56010da503360001b611c1c565b611bd67fb46db4871e2e17c6e1417eedf86413c0b2ceb0335130c98e25d4418ae091fddf60001b611c1c565b611c027f4cf4345cc28d8880c212a1caee5859918af16dd1fb32105d5ebd0d067330d83e60001b611c1c565b6618de76816d800082611c15919061207d565b9050919050565b50565b600080fd5b6000819050919050565b611c3781611c24565b8114611c4257600080fd5b50565b600081359050611c5481611c2e565b92915050565b60008060408385031215611c7157611c70611c1f565b5b6000611c7f85828601611c45565b9250506020611c9085828601611c45565b9150509250929050565b60008115159050919050565b611caf81611c9a565b82525050565b6000602082019050611cca6000830184611ca6565b92915050565b600060208284031215611ce657611ce5611c1f565b5b6000611cf484828501611c45565b91505092915050565b611d0681611c24565b82525050565b6000604082019050611d216000830185611cfd565b611d2e6020830184611cfd565b9392505050565b600073ffffffffffffffffffffffffffffffffffffffff82169050919050565b6000611d6082611d35565b9050919050565b611d7081611d55565b82525050565b6000602082019050611d8b6000830184611d67565b92915050565b6000602082019050611da66000830184611cfd565b92915050565b600082825260208201905092915050565b7f4f4e4c595f4f574e45525f57414c4c45545f414444524553535f4841535f414360008201527f434553532e000000000000000000000000000000000000000000000000000000602082015250565b6000611e19602583611dac565b9150611e2482611dbd565b604082019050919050565b60006020820190508181036000830152611e4881611e0c565b9050919050565b7f4e4f5f45585049524154494f4e5f5945542e0000000000000000000000000000600082015250565b6000611e85601283611dac565b9150611e9082611e4f565b602082019050919050565b60006020820190508181036000830152611eb481611e78565b9050919050565b7f4e487b7100000000000000000000000000000000000000000000000000000000600052601160045260246000fd5b6000611ef582611c24565b91507fffffffffffffffffffffffffffffffffffffffffffffffffffffffffffffffff821415611f2857611f27611ebb565b5b600182019050919050565b7f4c45445f56414c5545535f5245445f305f424c55455f315f59454c4c4f575f3260008201527f5f475245454e5f335f505552504c455f345f4f52414e47455f355f50494e4b5f60208201527f365f57484954455f372e00000000000000000000000000000000000000000000604082015250565b6000611fb5604a83611dac565b9150611fc082611f33565b606082019050919050565b60006020820190508181036000830152611fe481611fa8565b9050919050565b7f4d5553545f484156455f4d494e555445535f475245415445525f5448414e5f3060008201527f5f414e445f4d53475f56414c55453d4d494e555445532a4645452e0000000000602082015250565b6000612047603b83611dac565b915061205282611feb565b604082019050919050565b600060208201905081810360008301526120768161203a565b9050919050565b600061208882611c24565b915061209383611c24565b9250817fffffffffffffffffffffffffffffffffffffffffffffffffffffffffffffffff04831182151516156120cc576120cb611ebb565b5b828202905092915050565b60006120e282611c24565b91506120ed83611c24565b9250827fffffffffffffffffffffffffffffffffffffffffffffffffffffffffffffffff0382111561212257612121611ebb565b5b828201905092915050565b7f564f4c544147455f4e4f545f4f4e2e0000000000000000000000000000000000600082015250565b6000612163600f83611dac565b915061216e8261212d565b602082019050919050565b6000602082019050818103600083015261219281612156565b9050919050565b60006121a482611c24565b91506121af83611c24565b9250828210156121c2576121c1611ebb565b5b828203905092915050565b7f564f4c544147455f4e4f545f494e5f454d455247454e43595f4f46465f53544160008201527f54452e0000000000000000000000000000000000000000000000000000000000602082015250565b6000612229602383611dac565b9150612234826121cd565b604082019050919050565b600060208201905081810360008301526122588161221c565b905091905056fea2646970667358221220b61aff23750158b7645d774ddaa104201c6902b0db5b9a6c0cde2e95a5df783764736f6c634300080c0033",
  "linkReferences": {},
  "deployedLinkReferences": {}
}