{
  "_format": "hh-sol-artifact-1",
  "contractName": "ElectricKeeperMock",
  "sourceName": "contracts/ElectricKeeperMockV24.sol",
  "abi": [
    {
      "inputs": [],
      "stateMutability": "nonpayable",
      "type": "constructor"
    },
    {
      "anonymous": false,
      "inputs": [],
      "name": "VoltageChange",
      "type": "event"
    },
    {
      "inputs": [
        {
          "internalType": "uint256",
          "name": "ledValue",
          "type": "uint256"
        },
        {
          "internalType": "uint256",
          "name": "minutesToHaveOn",
          "type": "uint256"
        }
      ],
      "name": "BuyElectricityTimeOn",
      "outputs": [],
      "stateMutability": "payable",
      "type": "function"
    },
    {
      "inputs": [
        {
          "internalType": "uint256",
          "name": "",
          "type": "uint256"
        }
      ],
      "name": "LED",
      "outputs": [
        {
          "internalType": "uint256",
          "name": "Voltage",
          "type": "uint256"
        },
        {
          "internalType": "uint256",
          "name": "ExpirationTimeUNIX",
          "type": "uint256"
        }
      ],
      "stateMutability": "view",
      "type": "function"
    },
    {
      "inputs": [],
      "name": "Owner",
      "outputs": [
        {
          "internalType": "address",
          "name": "",
          "type": "address"
        }
      ],
      "stateMutability": "view",
      "type": "function"
    },
    {
      "inputs": [
        {
          "internalType": "uint256",
          "name": "ledValue",
          "type": "uint256"
        }
      ],
      "name": "OwnerEmergencyDangerOff",
      "outputs": [],
      "stateMutability": "nonpayable",
      "type": "function"
    },
    {
      "inputs": [
        {
          "internalType": "uint256",
          "name": "ledValue",
          "type": "uint256"
        }
      ],
      "name": "OwnerEmergencySafeOn",
      "outputs": [],
      "stateMutability": "nonpayable",
      "type": "function"
    },
    {
      "inputs": [],
      "name": "OwnerManualExpirationOff",
      "outputs": [],
      "stateMutability": "nonpayable",
      "type": "function"
    },
    {
      "inputs": [],
      "name": "expirationOccured",
      "outputs": [
        {
          "internalType": "bool",
          "name": "",
          "type": "bool"
        }
      ],
      "stateMutability": "view",
      "type": "function"
    },
    {
      "inputs": [
        {
          "internalType": "uint256",
          "name": "scaleMinutes",
          "type": "uint256"
        }
      ],
      "name": "onePennyUSDinMatic",
      "outputs": [
        {
          "internalType": "uint256",
          "name": "",
          "type": "uint256"
        }
      ],
      "stateMutability": "view",
      "type": "function"
    }
  ],
  "bytecode": "0x60a06040523480156200001157600080fd5b50620000467f53eaba580dde665795ff4d8f9c2a6b1e4c6283b77f6d5b62876dacdb707f777860001b620000e860201b60201c565b6200007a7fe3b7d099539f4fe199878bd65f0183478ebd4de8316ce251e2b9c20e9cef89ef60001b620000e860201b60201c565b620000ae7f7332ae81d849007c8550b9d5d64749d7f688c1fcacec1567f735943a0ff1ad2860001b620000e860201b60201c565b3373ffffffffffffffffffffffffffffffffffffffff1660808173ffffffffffffffffffffffffffffffffffffffff1681525050620000eb565b50565b608051612295620001236000396000818161028801528181610d30015281816110c6015281816116680152611b5a01526122956000f3fe60806040526004361061007b5760003560e01c8063979c22ce1161004e578063979c22ce1461011c5780639e476c2914610145578063b4a99a4e1461016e578063b9dbf3d1146101995761007b565b80630e2e1ff314610080578063494762f614610097578063571fcf0a146100b35780636bf93b66146100de575b600080fd5b34801561008c57600080fd5b506100956101d6565b005b6100b160048036038101906100ac9190611c5a565b610767565b005b3480156100bf57600080fd5b506100c8610d9a565b6040516100d59190611cb5565b60405180910390f35b3480156100ea57600080fd5b5061010560048036038101906101009190611cd0565b610ff0565b604051610113929190611d0c565b60405180910390f35b34801561012857600080fd5b50610143600480360381019061013e9190611cd0565b611014565b005b34801561015157600080fd5b5061016c60048036038101906101679190611cd0565b6115b6565b005b34801561017a57600080fd5b50610183611b58565b6040516101909190611d76565b60405180910390f35b3480156101a557600080fd5b506101c060048036038101906101bb9190611cd0565b611b7c565b6040516101cd9190611d91565b60405180910390f35b6102027f364037cc00296d2b972a42ba9c45f019e5bca9d92e8f5cba2d901c282871ffd360001b611c1c565b61022e7f92740882563a5b94df822abc0f9721e482962a8fbb940032713218603f883de560001b611c1c565b61025a7f45480ae32c9f56c3122eb0c5da03d3827d1eba5bd1f196dfaf2f4dc17147cef860001b611c1c565b6102867fe4a5d666efb542c0d1c0035ba9c0ea2c419ceac30b56ec1fc2035c0498e6753460001b611c1c565b7f000000000000000000000000000000000000000000000000000000000000000073ffffffffffffffffffffffffffffffffffffffff163373ffffffffffffffffffffffffffffffffffffffff1614610314576040517f08c379a000000000000000000000000000000000000000000000000000000000815260040161030b90611e2f565b60405180910390fd5b6103407f3824004cf516116b0644517b87c770735ed6c329491fbeb8aa927442f72f9c4460001b611c1c565b61036c7fb8c5b8884134fd1805ea1df2fb50c61f344330ec83739b991e2b5d2a411a29f960001b611c1c565b6103987f59128cd467a177b316e247c804be6b7d3412d1f03887db4bbfad901699f313df60001b611c1c565b6103c47f9020bbd3e484135e07cf9e0b0bde0029b9469d21425034689f7ee6b12b980e1960001b611c1c565b6103f07f37086b3da62b6847f1002211775d876966b0c1dff763df0d9710b915466ca42860001b611c1c565b61041c7f2db70d70629c910943734de398c36789c4a0b1490f8a4f92b5df203b6f1be35f60001b611c1c565b610424610d9a565b610463576040517f08c379a000000000000000000000000000000000000000000000000000000000815260040161045a90611e9b565b60405180910390fd5b61048f7f44b75ffc37e02d6e8e26cfb89de614ffcb50a8cb86a8c32fa9a1e21293e10db560001b611c1c565b6104bb7f801e85d53ff2b07b3109b66e78d507cee78d9c8dfa87dbdba52c874f1b04e7d560001b611c1c565b6104e77f1dc5267d51a10db8f3d31f42a967f65451993f318edb599b9c68a55a6e0d214d60001b611c1c565b60005b60088110156106e05761051f7f5e518b326b70f57766b335b425f00a963d45531d7119e2fa06426d127d67755a60001b611c1c565b61054b7fc105a4e72657b18ed80d7d77749776871b9abf7b0466c1a291d755bb70d5746160001b611c1c565b60016000808381526020019081526020016000206000015414801561058457506000808281526020019081526020016000206001015442115b156106a0576105b57fde40e8dffc25873f0d3415655491a78f774b6b6a7530c5ccb95592e84ef2f8e360001b611c1c565b6105e17fd715aff2f12ff9e2e3c39f8b4b67cede5d7e5a5e9c5d704e0eab4344e5f51dd360001b611c1c565b61060d7f3ca756631ea62494709434adab6e90f9b28e366d83b99d1dc24d4836c7e2ab0060001b611c1c565b6000806000838152602001908152602001600020600001819055506106547f107ed2b72310ae36379f042035ae2f775ba6172eee1cb63682d5a52fdf43840e60001b611c1c565b6106807f95a7fc18792acfd8b61762362801f122bef149f41302f4d9ef14d637cbf2a81260001b611c1c565b6000806000838152602001908152602001600020600101819055506106cd565b6106cc7f8bb2894db6021ba8c1dae8f04ddfd349b5a2587a620fee4344941460daf6710960001b611c1c565b5b80806106d890611eea565b9150506104ea565b5061070d7fb2faf3937922f6dd3be66f0734e0bea43c465a7ef21308a792804ddca7836cd660001b611c1c565b6107397f452e8f04d99da3cfc935e17d84e10409c849d403cf2383caee43460573b9552c60001b611c1c565b7f72fdfd0f629c78d86d13a56ec6144a2c6a4904ad7de41d8089e90b00ff65a94a60405160405180910390a1565b816107947fd935ed6b084021b7489e8078daa41947165e2a5ab0ae3a2847a62c69a4a6898860001b611c1c565b6107c07fe420d0b1147e3caff302a7253601d20e2d66aad0a108910d0ba3ab521d6e960160001b611c1c565b6107ec7fdc37e1bdd721f744d6aeb2327f57aa000bbeb8fb50bed63377a99592176a23fa60001b611c1c565b6108187faddf6f789803c5462284c8e3861fd12f2e3f1ebc3d686749c092cd1119d1473b60001b611c1c565b600081101580156108295750600881105b610868576040517f08c379a000000000000000000000000000000000000000000000000000000000815260040161085f90611fcb565b60405180910390fd5b6108947f55f3d4e0d5cd45f603e139429eac166c3f98fceb40d305d9f3b8fe8296e7715f60001b611c1c565b6108c07fb7c85819ce72300f736b612c4e7b35a2c3d634c4004fbe677dc1a117f29355a860001b611c1c565b6108ec7fec748e3955c90569ca2832324886d82d3a59008dd46cd0371881b2165850a1c260001b611c1c565b6109187f79c81bc559d7e90b2bc54df7f6cd0e1a143bb92b01b6369c8a4d463b7c2e3c0860001b611c1c565b6109447fa225e861637444b5fab645b43ca711e903625cff1f496c4a6ef4f5d63b33b52060001b611c1c565b6109707f684ad210ee24cedb01d03038d872446528a95bf2bbb26e5b894552fd9fc2554b60001b611c1c565b600082118015610987575061098482611b7c565b34145b6109c6576040517f08c379a00000000000000000000000000000000000000000000000000000000081526004016109bd9061205d565b60405180910390fd5b6109f27f6623c456e20dcd96cb4939f555e643da840b32e21e2da6169b4bcb734b872a3c60001b611c1c565b610a1e7fd539ec54c1d7bb1fc3050c50bc19144604c2995d0af10136fd4659bc50825ecf60001b611c1c565b610a4a7f5341595d3fb4575a2bc537f355819e71912bb46180a5f172692b6d6cb026cca560001b611c1c565b6000806000858152602001908152602001600020600001541415610b9557610a947f5338b395db2d6dc3fe029796870953481b8ddb84ab149b0293a7d0cc98b6005860001b611c1c565b610ac07f465015fb9ff0542f0d4c084dee27b9564db43c94ef3a0ed69d9a5d01e2d2701060001b611c1c565b610aec7f7d3128c3e499804f17f6c60953b08bb64c965190b264d9d77d88b6e7036c54f860001b611c1c565b600160008085815260200190815260200160002060000181905550610b337f1d607d50ca157862596aa1abb140b26021ec1456be15b43858611357765b060860001b611c1c565b610b5f7ffc84570b83d7a6859ef6b898dfe5bd2657a7b4dca3b64028d5fc6b770570494a60001b611c1c565b81603c610b6c919061207d565b42610b7791906120d7565b60008085815260200190815260200160002060010181905550610c52565b610bc17fa5c3ece146cd707655278e3f88a36326b52e6ec5078915f76792c8ac2abe77b960001b611c1c565b610bed7f9134d0d4a6ce118a8a043c3633185445630241b125e00f3e472223568d4928d860001b611c1c565b610c197fca315eb06f318743b5bf8bb356d7c54307cc928d6c399b9c0c0d82a1fa4e281f60001b611c1c565b81603c610c26919061207d565b6000808581526020019081526020016000206001016000828254610c4a91906120d7565b925050819055505b610c7e7fa52499ee0a07902532b51b8a0eeabfaf5216b3b7e9122468a850cbbf48fb258860001b611c1c565b610caa7faa49c2b9d9d0c5fca3b47946c28182901bb180c17dcec96aced3fa1cf5a6e8a860001b611c1c565b7f72fdfd0f629c78d86d13a56ec6144a2c6a4904ad7de41d8089e90b00ff65a94a60405160405180910390a1610d027f1e508da0a225ad032b8e9c587077cc65d00a470e019d4df7732607a9e8c8758e60001b611c1c565b610d2e7fe6d10fbbb4e1636e25e4b6339d9e14674f84fd6d4f433ad5f18302f2e569d50660001b611c1c565b7f000000000000000000000000000000000000000000000000000000000000000073ffffffffffffffffffffffffffffffffffffffff166108fc479081150290604051600060405180830381858888f19350505050158015610d94573d6000803e3d6000fd5b50505050565b6000610dc87f3f3409b6c0c79a3b125d1cc53dc9d5fed9d69fc9b7c9f481c3c2b3131f84287160001b611c1c565b610df47ff2a8c88aec1af80b7c1576f1c123696ee1a2d0a80726cce2b966a5040610d0c660001b611c1c565b610e207f37c54f0a001af97b72b1f1538891ec6ce8e2d362fa8182055d3b67ab30afeaea60001b611c1c565b60005b6008811015610f8f57610e587fa1bb7a938fe13ccf84bdc15ce1f5146baa2db28acaab134f4478b3a917fadbeb60001b611c1c565b610e847ff3566d9c0aa63dd263f00a1450187c7862aa04fb2ae1f282c72ffe9dcb17267360001b611c1c565b600160008083815260200190815260200160002060000154148015610ebd57506000808281526020019081526020016000206001015442115b15610f5057610eee7fc590439e508fe4edcda2dcfba886cb86bd945cfc827e646fc8e4454dfb495c2c60001b611c1c565b610f1a7f5da7d87460a338776fc0c736955a49b6ae7b47d5fdccd63ecc04a29d2472bf3c60001b611c1c565b610f467fb50efe452249bae87ed71c5b78bbcc28853ef98706f0c0ec803d586594b32a0760001b611c1c565b6001915050610fed565b610f7c7fbaf94439383c61391078b3699688a67f2705264700c0a1d9e39c32832678cfe060001b611c1c565b8080610f8790611eea565b915050610e23565b50610fbc7f1bbe6494e3cb7be318b56dd6ef9ec595cddc6aeb6510fa8bf49c29ae8e73cc7a60001b611c1c565b610fe87f17f8d490d4e38ef7c6c2073f35e8ab4fd9b1799993e9b2f6fbdc214bcc91b39960001b611c1c565b600090505b90565b60006020528060005260406000206000915090508060000154908060010154905082565b6110407f364037cc00296d2b972a42ba9c45f019e5bca9d92e8f5cba2d901c282871ffd360001b611c1c565b61106c7f92740882563a5b94df822abc0f9721e482962a8fbb940032713218603f883de560001b611c1c565b6110987f45480ae32c9f56c3122eb0c5da03d3827d1eba5bd1f196dfaf2f4dc17147cef860001b611c1c565b6110c47fe4a5d666efb542c0d1c0035ba9c0ea2c419ceac30b56ec1fc2035c0498e6753460001b611c1c565b7f000000000000000000000000000000000000000000000000000000000000000073ffffffffffffffffffffffffffffffffffffffff163373ffffffffffffffffffffffffffffffffffffffff1614611152576040517f08c379a000000000000000000000000000000000000000000000000000000000815260040161114990611e2f565b60405180910390fd5b61117e7f3824004cf516116b0644517b87c770735ed6c329491fbeb8aa927442f72f9c4460001b611c1c565b6111aa7fb8c5b8884134fd1805ea1df2fb50c61f344330ec83739b991e2b5d2a411a29f960001b611c1c565b806111d77fd935ed6b084021b7489e8078daa41947165e2a5ab0ae3a2847a62c69a4a6898860001b611c1c565b6112037fe420d0b1147e3caff302a7253601d20e2d66aad0a108910d0ba3ab521d6e960160001b611c1c565b61122f7fdc37e1bdd721f744d6aeb2327f57aa000bbeb8fb50bed63377a99592176a23fa60001b611c1c565b61125b7faddf6f789803c5462284c8e3861fd12f2e3f1ebc3d686749c092cd1119d1473b60001b611c1c565b6000811015801561126c5750600881105b6112ab576040517f08c379a00000000000000000000000000000000000000000000000000000000081526004016112a290611fcb565b60405180910390fd5b6112d77f55f3d4e0d5cd45f603e139429eac166c3f98fceb40d305d9f3b8fe8296e7715f60001b611c1c565b6113037fb7c85819ce72300f736b612c4e7b35a2c3d634c4004fbe677dc1a117f29355a860001b611c1c565b61132f7f28063ee4578834ac02eb374f1cb6f6af9ba7b45fada9b5d4c878c9e33fb65a8760001b611c1c565b61135b7f895af5a716eb2aff185481a55d9ebb71cb0d3e408bddc00f149b832998390ffd60001b611c1c565b6113877fd19d9c2c0aec9861101e03ba10100221bf0651e9b63b7f5c32b9aa86ea30403360001b611c1c565b6113b37f5287f6772b5b57158c1b36c7ac118f720eea1d0756b2c29a6c93383097c4e02260001b611c1c565b6001600080848152602001908152602001600020600001541461140b576040517f08c379a000000000000000000000000000000000000000000000000000000000815260040161140290612179565b60405180910390fd5b6114377f55fc616e4014e15288c8ec7f9e0c5aa55fd8d16a89ed608a979be3d6ca444f2260001b611c1c565b6114637f18ec831919fc91dde9fafa24d03c0a37c3dae2efc858ce11210bf427926de11260001b611c1c565b61148f7fa383f603ebbf8e79b41945d61037105fed20b7a86450d725e5a33d1daeffdfab60001b611c1c565b6002600080848152602001908152602001600020600001819055506114d67f4656bde92c66db4dac1d432c296d6e85b126bcaa507ed0ab2b64c44b659c6c0360001b611c1c565b6115027f851945c4cea7bbe8807023c8f19d1efa15bc80284d88b6486e496762a4adc94d60001b611c1c565b4260008084815260200190815260200160002060010160008282546115279190612199565b9250508190555061155a7f4473eedb6222c4baae94ad34f8ae8b6b945508ea0dd9211778609a180bb569a560001b611c1c565b6115867f02ba296463eff553635a869c95ed3e449def45bb5606f205a3dc64c7890eb76760001b611c1c565b7f72fdfd0f629c78d86d13a56ec6144a2c6a4904ad7de41d8089e90b00ff65a94a60405160405180910390a15050565b6115e27f364037cc00296d2b972a42ba9c45f019e5bca9d92e8f5cba2d901c282871ffd360001b611c1c565b61160e7f92740882563a5b94df822abc0f9721e482962a8fbb940032713218603f883de560001b611c1c565b61163a7f45480ae32c9f56c3122eb0c5da03d3827d1eba5bd1f196dfaf2f4dc17147cef860001b611c1c565b6116667fe4a5d666efb542c0d1c0035ba9c0ea2c419ceac30b56ec1fc2035c0498e6753460001b611c1c565b7f000000000000000000000000000000000000000000000000000000000000000073ffffffffffffffffffffffffffffffffffffffff163373ffffffffffffffffffffffffffffffffffffffff16146116f4576040517f08c379a00000000000000000000000000000000000000000000000000000000081526004016116eb90611e2f565b60405180910390fd5b6117207f3824004cf516116b0644517b87c770735ed6c329491fbeb8aa927442f72f9c4460001b611c1c565b61174c7fb8c5b8884134fd1805ea1df2fb50c61f344330ec83739b991e2b5d2a411a29f960001b611c1c565b806117797fd935ed6b084021b7489e8078daa41947165e2a5ab0ae3a2847a62c69a4a6898860001b611c1c565b6117a57fe420d0b1147e3caff302a7253601d20e2d66aad0a108910d0ba3ab521d6e960160001b611c1c565b6117d17fdc37e1bdd721f744d6aeb2327f57aa000bbeb8fb50bed63377a99592176a23fa60001b611c1c565b6117fd7faddf6f789803c5462284c8e3861fd12f2e3f1ebc3d686749c092cd1119d1473b60001b611c1c565b6000811015801561180e5750600881105b61184d576040517f08c379a000000000000000000000000000000000000000000000000000000000815260040161184490611fcb565b60405180910390fd5b6118797f55f3d4e0d5cd45f603e139429eac166c3f98fceb40d305d9f3b8fe8296e7715f60001b611c1c565b6118a57fb7c85819ce72300f736b612c4e7b35a2c3d634c4004fbe677dc1a117f29355a860001b611c1c565b6118d17f79a1186cc050c6fde44126e8d4ca34f04680ecaaaa0bc62f5ff5fbaee75e4f6760001b611c1c565b6118fd7f7196db510aefacbfccd67edee64272cd98549856e8d41595b8cb380218fde4c660001b611c1c565b6119297ff3e0703ed1787d2123f2babb2d974539c312c5123bfb1935610664d12ad17e8160001b611c1c565b6119557fb6b7f9eb378efdfb094abf2be9eb295d23e6da3929297ae5ac26d5829c9d963f60001b611c1c565b600260008084815260200190815260200160002060000154146119ad576040517f08c379a00000000000000000000000000000000000000000000000000000000081526004016119a49061223f565b60405180910390fd5b6119d97faada2c441ab2aac400d60b41bb29ddf08e3572a23ec549730855906fbd09223460001b611c1c565b611a057f42d433e7d05bd8eb0040807f5a689a2342fe612901e733d7498cacfb138b222560001b611c1c565b611a317f7dc325191a82eaebb75e993407873d283221b70e59eb9ec2239d6a24d6438b2960001b611c1c565b600160008084815260200190815260200160002060000181905550611a787f7341cc96c27b41fac7daaea06e4b5e28e31921be80e254c10759928975a6f94960001b611c1c565b611aa47fb716decb93cd9efdee7c3f13c675126caf78e555c2bae9755d31bb54a4a88af860001b611c1c565b426000808481526020019081526020016000206001016000828254611ac991906120d7565b92505081905550611afc7fa39112eb11a8cb297f65273a15e8ae847077d5164613ece29d6ede457c4e7bf160001b611c1c565b611b287f2139d2cb84787a92eb9c1d04c656bd03ea6e8a221baf29e88f6d470c4d18883460001b611c1c565b7f72fdfd0f629c78d86d13a56ec6144a2c6a4904ad7de41d8089e90b00ff65a94a60405160405180910390a15050565b7f000000000000000000000000000000000000000000000000000000000000000081565b6000611baa7f6d23013a57bd6e5291691566a1524aae2be6b7cd4b8111c948b8d3996e01ffa660001b611c1c565b611bd67f0dd94f7b3f1faf6f25f3d41bc999fb064caaa57b3488c9e7e9cd1c0b8abf8fc160001b611c1c565b611c027f22f58f036d5506939a6f0be9f5bb7e04a986511e3ec03393f87fdd391cadd01060001b611c1c565b6618de76816d800082611c15919061207d565b9050919050565b50565b600080fd5b6000819050919050565b611c3781611c24565b8114611c4257600080fd5b50565b600081359050611c5481611c2e565b92915050565b60008060408385031215611c7157611c70611c1f565b5b6000611c7f85828601611c45565b9250506020611c9085828601611c45565b9150509250929050565b60008115159050919050565b611caf81611c9a565b82525050565b6000602082019050611cca6000830184611ca6565b92915050565b600060208284031215611ce657611ce5611c1f565b5b6000611cf484828501611c45565b91505092915050565b611d0681611c24565b82525050565b6000604082019050611d216000830185611cfd565b611d2e6020830184611cfd565b9392505050565b600073ffffffffffffffffffffffffffffffffffffffff82169050919050565b6000611d6082611d35565b9050919050565b611d7081611d55565b82525050565b6000602082019050611d8b6000830184611d67565b92915050565b6000602082019050611da66000830184611cfd565b92915050565b600082825260208201905092915050565b7f4f4e4c595f4f574e45525f57414c4c45545f414444524553535f4841535f414360008201527f434553532e000000000000000000000000000000000000000000000000000000602082015250565b6000611e19602583611dac565b9150611e2482611dbd565b604082019050919050565b60006020820190508181036000830152611e4881611e0c565b9050919050565b7f4e4f5f45585049524154494f4e5f5945542e0000000000000000000000000000600082015250565b6000611e85601283611dac565b9150611e9082611e4f565b602082019050919050565b60006020820190508181036000830152611eb481611e78565b9050919050565b7f4e487b7100000000000000000000000000000000000000000000000000000000600052601160045260246000fd5b6000611ef582611c24565b91507fffffffffffffffffffffffffffffffffffffffffffffffffffffffffffffffff821415611f2857611f27611ebb565b5b600182019050919050565b7f4c45445f56414c5545535f5245445f305f424c55455f315f59454c4c4f575f3260008201527f5f475245454e5f335f505552504c455f345f4f52414e47455f355f50494e4b5f60208201527f365f57484954455f372e00000000000000000000000000000000000000000000604082015250565b6000611fb5604a83611dac565b9150611fc082611f33565b606082019050919050565b60006020820190508181036000830152611fe481611fa8565b9050919050565b7f4d5553545f484156455f4d494e555445535f475245415445525f5448414e5f3060008201527f5f414e445f4d53475f56414c55453d4d494e555445532a4645452e0000000000602082015250565b6000612047603b83611dac565b915061205282611feb565b604082019050919050565b600060208201905081810360008301526120768161203a565b9050919050565b600061208882611c24565b915061209383611c24565b9250817fffffffffffffffffffffffffffffffffffffffffffffffffffffffffffffffff04831182151516156120cc576120cb611ebb565b5b828202905092915050565b60006120e282611c24565b91506120ed83611c24565b9250827fffffffffffffffffffffffffffffffffffffffffffffffffffffffffffffffff0382111561212257612121611ebb565b5b828201905092915050565b7f564f4c544147455f4e4f545f4f4e2e0000000000000000000000000000000000600082015250565b6000612163600f83611dac565b915061216e8261212d565b602082019050919050565b6000602082019050818103600083015261219281612156565b9050919050565b60006121a482611c24565b91506121af83611c24565b9250828210156121c2576121c1611ebb565b5b828203905092915050565b7f564f4c544147455f4e4f545f494e5f454d455247454e43595f4f46465f53544160008201527f54452e0000000000000000000000000000000000000000000000000000000000602082015250565b6000612229602383611dac565b9150612234826121cd565b604082019050919050565b600060208201905081810360008301526122588161221c565b905091905056fea26469706673582212208bbb3bcb59dc5aeb4bb7414574fe0147e37446cdb501a05ca0103fa75fbec20764736f6c634300080c0033",
  "linkReferences": {},
  "deployedLinkReferences": {}
}